S0130000534852415659415F325F302E73726563D3
S31502000000B0040022D9060002C5050002D506000288
S31502000010D5060002D5060002D5060002D506000264
S31502000020000000000000000000000000D5060002EB
S31502000030D506000200000000D5060002D506000221
S315020000400348044B834202D0034B03B1184770475F
S31502000050080000220800002200000000064B0749A3
S31502000060C91A891048BF0131491003D0044B0BB19C
S3150200007001481847704700BF080000220800002206
S315020000800000000010B5064C237843B9FFF7D8FFED
S31502000090044B13B10448AFF300800123237010BD53
S315020000A03800002200000000300E000208B5054BA1
S315020000B01BB105490548AFF30080BDE80840FFF7CC
S315020000C0CDBF00BF000000003C000022300E00023F
S315020000D0704700BF022800D070470249024800F06C
S315020000E0D7B800BF700900025400002208B5FFF716
S315020000F0EFFF002008BD00BF2DE9F84F0388DBB1F2
S315020001004FF0000A80464FF00109DFF8D4B0002410
S31502000110314D4FEACA07D8F8043035F8022BD919FF
S31502000120898891420AD00134032CF4D1B8F8003000
S315020001300AF1010A5345EAD8BDE8F88FDB5909FAF4
S3150200014004F603F0B853B3F1807F244BF6B293F86A
S315020001504C2C12D0324230D104F120021BF812305C
S31502000160DB09E0D01BF81230012123F08003C820FE
S315020001700BF8123000F0E6F9D5E7324210D004F15E
S3150200018020021BF81230DB09CDD11BF812300121F7
S3150200019043F08003C8200BF8123000F0D3F9C2E70F
S315020001A0012000F06DFA0D4B012093F84C2C3243DE
S315020001B083F84C2C00F034FAE1E7012000F060FAF3
S315020001C0064B012093F84C2C22EA060283F84C2CAB
S315020001D000F026FAC0E700BF1C0E000200E0014054
S315020001E000202040F8B50646FFF786FFEFF310829F
S315020001F0012383F31088234F3B681BB94020224911
S315020002000B7508753B6801333B6082F310883388AF
S3150200021000211BB31D4D08E01B01134445F8234082
S31502000220328801318BB29A4218D9736853F8314039
S3150200023003EBC1029288E0034FEA1223D2B2EBD556
S3150200024002EB031055F820E024F4803C2EF4803EA5
S3150200025045F820E01B0145F820C0DEE7EFF31082E7
S31502000260012383F310883B6813B13B68013B3B6073
S315020002703B681BB9802004490B75087582F3108808
S31502000280F8BD00BFA0000022000D4040000840401B
S3150200029008B5034B03600846FFF7A4FF002008BD1C
S315020002A054524F501E4A92F8263092F82420DBB25E
S315020002B002F00F02A2F1080103292BD8DFE801F0B0
S315020002C020160C021749184A51F82330A2FB0323C1
S315020002D01B09164A136070471249134A51F8233014
S315020002E0A2FB0323114ADB08136070470D490E4A2D
S315020002F051F82330A2FB03230C4A9B081360704774
S315020003000849094A51F82330A2FB0323074A5B082E
S3150200031013607047034951F82330D340D9E700BF31
S3150200032000E0014008000022ABAAAAAAAC00002203
S31502000330704700BFFFFFFFFFF8B54AF203500123E3
S315020003404B494C4AA1F8FA03938093889BB2002B3F
S31502000350FBD101244FF400409FED416B9FED427BA0
S31502000360454B4649C3E907115961148083ED007F65
S315020003701861FFF797FF092206213D4B83F8501AB1
S3150200038083F8A22093F8002C1AB993F8013C980737
S3150200039060D0374C94F8003C002B50D00022344BEE
S315020003A083F8012C83F8002C0023314A82F832307C
S315020003B092F83C301907FBD545F6017040F211114F
S315020003C000232B4C1085A2F84C1082F82A3094F8A0
S315020003D03C309B06FBD5042201250526254B284FDA
S315020003E01A77276284F8245084F82660FFF75AFFAA
S315020003F02946962000F0A6F8002384F824302762C6
S31502000400FFF750FF2946962000F09CF884F82660F4
S31502000410FFF748FF4AF201521A4B1A80BFF35F8F69
S315020004201D72BFF35F8F4FF425421A8084F8305055
S3150200043084F8525084F85350A4F8FA23F8BD0121E7
S31502000440C82084F8001C00F07DF894F8003C012BCB
S31502000450FBD1A3E74FF47A70FFF76AFFA4E700BF68
S31502000460006CDC0200127A0000800000002D3101CF
S3150200047000E0014000C101400800002200389C1C37
S31502000480322312310020004038B50025284C0121C4
S31502000490C82084F8285000F055F884F8245094F8BF
S315020004A02430002BFBD194F82430214943F0020377
S315020004B084F8243091F82430C3F340009B07F9D422
S315020004C01B4A81F8220092F8223003F0FF00002B2B
S315020004D0F9D192F84030164960F3C71382F84030DA
S315020004E091F84030DB09FBD191F84200104A63F3E0
S315020004F0C71081F8420092F84230DB09FBD192F82C
S3150200050044000B4963F3C71082F8440091F8443063
S31502000510C3F3C014DB09F9D1012000F0B1F8054B91
S31502000520012083F84C4CBDE8384000F079B800BF92
S315020005300020204000E00140A0F101000028FBD18C
S31502000540704700BF1C4B1D4A1B6800FB01F193421A
S315020005500FD302F1854202F5071202F68342A2FB8D
S3150200056003239B0CA3FB01314FF0FF30E1B1FFF7F0
S31502000570E3BF4FF47A7210B4114C4FF0FF30B4FB64
S31502000580F3F3A1FB02C434B9BCFBF3F080B15DF80E
S31502000590044BFFF7D1BFB1FBF3F1A1FB0212002A14
S315020005A0F5D1084620B1F2E71846002BDFD1704795
S315020005B05DF8044B704700BFAC00002200127A00BF
S315020005C000CA9A3B70B500240D4B0E4EB3F80021BB
S315020005D0B3F82051ADB2154025FA04F3DB0704D572
S315020005E056F82430E0B203B198470134102CF3D107
S315020005F0034AA2F81051B2F820311D42FBD170BD58
S3150200060000C0004060000022034B1A8812B1034B5F
S31502000610C3F80023704700BF240E000200C000404A
S31502000620EFF31081012383F31088124B33F8102065
S3150200063092B22AB133F81020013A92B223F810206E
S3150200064033F810309BB293B910B40B4A0B4CB2F884
S31502000650FA3334F810009BB243F4254323EA00032D
S31502000660A2F8FA3381F310885DF8044B704781F3E0
S3150200067010887047A400002200E00140280E000204
S3150200068030B4EFF31081012383F310880E4A32F857
S3150200069010309BB26BB90D4C0D4DB4F8FA3335F8E8
S315020006A010C09BB243EA0C0343F425439BB2A4F861
S315020006B0FA3332F8103001339BB222F8103081F34C
S315020006C0108830BC704700BFA400002200E0014041
S315020006D0280E000200BE704708B500F005F8FFF7C5
S315020006E005FDFEE7FFFFFFFF70B5654B654D6B61CC
S315020006F0BFF34F8FBFF36F8F634A136843F0040350
S315020007001360BFF34F8FBFF36F8F4FF0E0229368F2
S3150200071043F480339360BFF34F8FBFF36F8F4FF471
S3150200072070035A4CC5F888300020AC60FFF7D2FC43
S31502000730FFF702FE0120FFF7CDFC2368A3F58063D5
S3150200074083F30A885248534A0021121A00F0D3F85A
S315020007505148524A5249121A00F0C0F85149524AB7
S315020007605248521AD20842F009C800BFAFF30080BD
S31502000770F1E80223E0E802230FF007C04C494D4A94
S315020007804D48521AD20842F009C800BFAFF30080A2
S31502000790F1E80223E0E802230FF007C0474B484A7C
S315020007A00020D21A0021D20842F007C0AFF300801F
S315020007B0E3E802010FF005C0BFF34F8FBFF36F8F5F
S315020007C00024C5F85042BFF34F8FBFF36F8F3D4BE6
S315020007D03D4D5B1BA34206DD9E1055F8043B0134DA
S315020007E09847A642F9DCFFF75DFDFFF74DFE0320B1
S315020007F0FFF746FF00234FF00C0E1C464EF001E0B9
S31502000800324903F10C0221F8224001330FF007C8E6
S315020008100320FFF705FF0320FFF732FF2C4B0320CF
S315020008205C609C60DC601C612A4CFFF7F9FED4F820
S31502000830D8335BB1D4F8D8330220FFF74BFCFFF76D
S31502000840E3FEBDE87040002000F046B894F810318F
S31502000850002BF1D00120FFF713FF94F8103103F0BB
S31502000860C003802BF9D100231A4A84F8103192F87A
S3150200087010313F2BFBD80120FFF7D2FEDCE700BF89
S3150200088001020E0000ED00E000E001E000000002BF
S3150200089038000022B00000220000002208000022D8
S315020008A0340E0002400E0002400E0002000000005C
S315020008B0400E0002400E0002000000200000002050
S315020008C0000000200400002200000022000D40402B
S315020008D00040204000E00140704700BF0A44431E2A
S315020008E0914200D1704710B511F8014B914203F8BD
S315020008F0014FF9D110BD02440346934200D170471D
S3150200090003F8011BF9E7FFFF4275696C74207769EA
S3150200091074682052656E6573617320416476616EF8
S3150200092063656420466C657869626C6520536F6600
S315020009307477617265205061636B616765207665C5
S315020009407273696F6E20352E392E3000352E392E90
S315020009503000000000000905F8B500BFF8BC08BC6D
S315020009609E467047F8B500BFF8BC08BC9E46704765
S31502000970940000007C0900020000000000800000D4
S31502000980020000000080000003000000008000005A
S315020009900400000000800000050000000080000046
S315020009A007000000008000000B000000008000002D
S315020009B00E000000008000000F0000000008011C6D
S315020009C0000100000008011C010100000008011CD2
S315020009D0020100000008011C03010000000C011CBA
S315020009E0040100000000011C050100000000011CBA
S315020009F0060100000400000007010000000C010BC4
S31502000A000C010000000C010B0D010000000C010B93
S31502000A100E010000000C010B0F0100000000011F77
S31502000A20060200000004011907020000000001008E
S31502000A300802000000000100090200000000010097
S31502000A400A020000000001000B020000000C010B6C
S31502000A5000030000000C010B01030000000C010B57
S31502000A6002030000000C010B03030000000C010B43
S31502000A7004030000000C010B05030000000C010B2F
S31502000A8006030000000C010B07030000000C010B1B
S31502000A9008030000000C010B09030000000C010B07
S31502000AA00A030000000C010B0B030000000C010BF3
S31502000AB00C030000000C010F0004000000040117E3
S31502000AC001040000000401170204000000000117DF
S31502000AD003040000000C011705040000000C0117B6
S31502000AE0060400000000011307040000000C0105C3
S31502000AF008040000000C010509040000000C0106B0
S31502000B000A040000000C01060B040000000C01069A
S31502000B100C040000000C01060D0400000400000095
S31502000B200E040000000C010F0F0400000000011368
S31502000B30000500000000011301050000000000008E
S31502000B40040500000000000005050000000000008A
S31502000B500605000004000000070500000004010766
S31502000B600B050000000401070C0500000004011932
S31502000B700D050000000C01190E0500000004011904
S31502000B800F0500000400000000060000000C010B27
S31502000B9001060000000C010B02060000000C010B0E
S31502000BA003060000000C010B04060000000C010BFA
S31502000BB005060000000C010B06060000000C010BE6
S31502000BC007060000000C010B09060000000C010BD1
S31502000BD00A060000000C010B0B060000000C010BBC
S31502000BE00C060000000C010B0D060000000C010BA8
S31502000BF00E060000000C010B0F060000000C011788
S31502000C0000070000000C011701070000000C011785
S31502000C1002070000000C011703070000000C011771
S31502000C2004070000000C011705070000040000007D
S31502000C30060700000004011907070000000C010F57
S31502000C4008070000000C010F09070000000C010F45
S31502000C500A070000000401190B070000000401192D
S31502000C600C070000000401190D0700000004011919
S31502000C700E070000000401190F0700000008011CFE
S31502000C80000800000008011C010800000008011C01
S31502000C90020800000008011C030800000008011CED
S31502000CA0040800000004011905080000000C0119DF
S31502000CB00608000000040119070800000008011CCC
S31502000CC008080000040000000908000000000000F7
S31502000CD00A080000000000000B08000004000000E3
S31502000CE00D080000000001130E08000000000113A9
S31502000CF00F0800000004011902090000000401198E
S31502000D00030900000004011904090000000C010B8C
S31502000D1005090000000C010B060900000000000096
S31502000D2007090000000C010B08090000000C010B6A
S31502000D3009090000000401190A090000000401194A
S31502000D400B090000000401190C0900000004011936
S31502000D500D090000000401190E0900000004011922
S31502000D600F090000000C010B000A00000000000041
S31502000D70010A0000000C0104020A0000000C010432
S31502000D80030A0000000C0104040A0000000C01041E
S31502000D90050A000000000000060A0000000000002C
S31502000DA0070A0000000C010B080A00000008010BEC
S31502000DB0090A0000000C010B0A0A000000000000EC
S31502000DC00B0A0000040000000D0A0000000C0105D9
S31502000DD00E0A0000000C01050F0A000000040119AA
S31502000DE0000B000000040119010B000000040119A8
S31502000DF0020B000000040119030B00000004011994
S31502000E00040B000000040119050B0000000401197F
S31502000E10060B000000040119070B0000020403047C
S31502000E200404FFFF0000FFFF01000200080010009B
S30902000E3000000000B6
S30D02000E34AD0000028500000278
S3150300A100FFFFFFFFFFFFFFFFFFFFFFFFFFFFFFFF56
S3090300A110FFFFFFFF46
S3090300A134FFFFFFFF22
S3150300A200FFFFFFFDFFFFFFFFFFFFFFFFFFFFFFFF57
S3150300A210FFFFFFFFFFFFFFFFFFFFFFFFFFFFFFFF45
S3150300A220FFFFFFFFFFFFFFFFFFFFFFFFFFFFFFFF35
S3150300A230FFFFFFFFFFFFFFFFFFFFFFFFFFFFFFFF25
S3150300A240FFFFFFFFFFFFFFFFFFFFFFFFFFFFFFFF15
S3150300A250FFFFFFFFFFFFFFFFFFFFFFFFFFFFFFFF05
S3150300A260FFFFFFFFFFFFFFFFFFFFFFFFFFFFFFFFF5
S3150300A270FFFFFFFFFFFFFFFFFFFFFFFFFFFFFFFFE5
S3150300A28000000000FFFFFFFFFFFFFFFFFFFFFFFFD1
S3150300A290FFFFFFFFFFFFFFFFFFFFFFFFFFFFFFFFC5
S3150300A2A0FFFFFFFFFFFFFFFFFFFFFFFFFFFFFFFFB5
S3150300A2B0FFFFFFFFFFFFFFFFFFFFFFFFFFFFFFFFA5
S3150300A2C0FFFFFFFFFFFFFFFFFFFFFFFFFFFFFFFF95
S705020006D919
