S00F0000534852415659412E73726563F7
S3150200000098260122D53700026D360002D13700024A
S31502000010D1370002D1370002D1370002D1370002B0
S31502000020000000000000000000000000D1370002BE
S31502000030D137000200000000D1370002D13700029A
S31502000040B12C0002C92D0002892F000219300002CC
S31502000050F5300002C5310002CD3200020348044BDE
S31502000060834202D0034B03B118477047680000224F
S315020000706800002200000000064B0749C91A8910D1
S3150200008048BF0131491003D0044B0BB10148184750
S31502000090704700BF680000226800002200000000CE
S315020000A010B5064C237843B9FFF7D8FF044B13B1BA
S315020000B00448AFF300800123237010BD980000228C
S315020000C0000000008863000208B5054B1BB1054914
S315020000D00548AFF30080BDE80840FFF7CDBF00BF7B
S315020000E0000000009C000022886300022DE9F04F08
S315020000F02DED088B012A83B0019002EBD27A53DDF3
S3150200010007EE902A17460D46F8EEE7AA4FF00008CA
S315020001104FF000099FED27BA4FEA6A0A0E1D07EE55
S31502000120908ADFED258AB8EEE7AA00242AEE0BAA0A
S31502000130B0EE689ADDF804B046F8049CC5F804905F
S3150200014007EE904AF8EEE77A67EE8A7AC7EEAA9A3F
S31502000150B0EE690A04F0B8FF9BED008AF0EE407A31
S3150200016068EE277A39EE279AB0EE690A06ED019A09
S3150200017004F0B6FEFBEC017A20EE270A78EE808ABE
S315020001800134A742C5ED018ADAD189EE2A7AC8EE90
S31502000190AA7A08F101080835D04506F1080606EDE7
S315020001A0037A45ED017ABADB03B0BDEC088BBDE8F4
S315020001B0F08F00BFDB0FC9C000000000F0B507EEEC
S315020001C0902A2DED048B002AB8EEE79AADF60C0DB7
S315020001D040F35B814FEA820EAEF1040E4FEA9E0EA9
S315020001E00DF581630EF1010E1D46F6EE006A4EF024
S315020001F001E01C469700F0EC017AB1EC017A77EE49
S31502000200877A67EEA67AE4EC017A0FF00DC0A7F1C1
S31502000210040E4FEA9E0E0EF1010E1946DFEDC17A6B
S315020002204EF001E0FE18B1EC017A77EE877A0FF014
S3150200023007C087EE898AA6EB030EAEF1040EBA4C0E
S315020002404FEA9E0E0EF1010E9FEDB67A4EF001E0D8
S31502000250194684ED0A8AF1EC017A67EEA77A37EE3F
S31502000260277A0FF009C087EE090AB5EE400AF1EEC9
S3150200027010FA00F14881F1EEC07AA6EB030EAEF158
S31502000280040E4FEA9E0E0EF1010EC4ED0B7A9FED9F
S31502000290A57A4EF001E0F5EC017A77EEC87A67EEC0
S315020002A0A77A37EE277A0FF00BC0551E07EE905A43
S315020002B0F8EEE79AC7EE298AF5EE408AF1EE10FAD1
S315020002C0C4ED0C8A00F10A81F1EEE85AF5EEC05A45
S315020002D0F1EE10FA40F31281DFED926A043F4FEA23
S315020002E0970E0EF1010E4EF001E0B0EE666AB3EC27
S315020002F0017A37EE487AC7EE257A27EEA77A27EEF5
S31502000300277A67EE877A36EE076A76EEA76A0FF0E5
S3150200031013C0C6EE897AF0EE086A86EE097A77EE9F
S31502000320E67A012A84ED0D7AC4ED0E7A40F3D08086
S315020003300DF581630DF20C4103EB82035B1A043B5C
S315020003409B080020013308E051ED027AF5EEC07AEF
S31502000350F1EE10FA10D4013B12D0F1EC017AF5EE6F
S31502000360C07AF1EE10FAEFDAF5D551ED027AF5EE32
S31502000370C07AF1EE10FAEEDB013B00F10100ECD19E
S3150200038007EE900AF8EEE77A023A87EEA97A07EEC6
S31502000390902A002DC4ED108AB8EEE76A84ED0F7A32
S315020003A067DD4FEA850EAEF1040E4FEA9E0E03ABF1
S315020003B00EF1010E19464EF001E00DF5816292ED45
S315020003C0007A03EB85050DF20C42F0EE477AB2ECA9
S315020003D0017A77EE677AE1EC017A0FF00BC0A5EBB2
S315020003E0030EAEF1040E4FEA9E0E0EF1010E1A46F0
S315020003F0DFED4C7A4EF001E0B2EC017A77EE877AC5
S315020004000FF007C0ED1AA5F1040E4FEA9E0E0EF18B
S31502000410010EC7EEA96A9FED437A4EF001E0F3ECB6
S31502000420017A77EEE67A67EEA77A37EE277A0FF049
S315020004300BC0F5EEC08AF1EE10FA08DCDFED397A70
S31502000440C4ED117A0DF60C0DBDEC048BF0BDC7EEB2
S31502000450067A87EEA80AB5EE400AF1EE10FA5BD4E8
S31502000460F1EEC07AC4ED117A0DF60C0DBDEC048BDB
S31502000470F0BDDFED2C7AF4EEE78AF1EE10FADDDD5F
S3150200048087EE867A87EE280AEAE7551E07EE905A25
S315020004909FED247AF8EEE79AC7EE298AF1EEE86A2A
S315020004A0C7EE097AF4EEC76AB1EEE76AF1EE10FA20
S315020004B01D4CC4ED0A7AC4ED0C8A84ED0B6A0ADD82
S315020004C0B0EE087AC4ED0D7A77EEC77AC4ED0E7AED
S315020004D0DFED147A58E7F0EE477A22E7B0EE680AC3
S315020004E0019204F0F3FBB5EEC00AF1EE10FAF0EE5B
S315020004F0405A019A0DF581633FF7EEAE9FED097AF8
S31502000500F0EE477A0DE7019204F0E0FB019AF0EE75
S31502000510407A0DF58163B0E604F0D8FBF0EE407A3E
S315020005208EE700BF00000000900B0022F0B52DED13
S315020005300C8B0C461546ADF6042D80A9FFF7D6FDA9
S315020005402A460DF5C0612046FFF7D0FD4FF0200E7A
S3150200055086EF504F69464EF001E00DF5C06280AB62
S3150200056093FC009FB3FC209F92FC001FB2FC201F4D
S315020005700AFF5ACD08FF588D02FF526D00FF500D3B
S315020005800CEF48CD06EF406D06EF4C6D06FF546D3D
S31502000590A1EC047F0FF01DC09FED6A7ADDED026AC1
S315020005A09DED045A9DED008A76EE875A35EE076A6E
S315020005B09DED014A9DED033ADDED053AF0EE477AEF
S315020005C038EE077ADDED064A75EE835A36EE236A71
S315020005D037EE047A4FF00A0E75EE855A36EE246A25
S315020005E037EE267A584E6C464EF001E0C6ED015AB9
S315020005F086ED026A86ED007A06ABB3EC017A77EEF7
S31502000600877A0FF007C04FF0090EC6ED037A9FED09
S315020006104D7A4EF001E00FABF3EC016A37EE267A23
S315020006200FF007C0F5EEC07AF1EE10FAB5EEC06A29
S3150200063086ED047ACCBF86EE277A9FED427AF1EEFA
S3150200064010FA4FF0800ECCBFC5EE867ADFED3D7A0A
S3150200065086ED057AC6ED067A6B46DFED3A8A4EF0EE
S3150200066001E080AFF3EC017A78EEA78A0FF007C0BB
S31502000670F5EEC08AF1EE10FA61D96D46DFED319AD8
S31502000680F5EC017AF5EEC07AF1EE10FA09DD87EEA5
S31502000690A89AB0EE490A04F0B7FB29EE009A79EE61
S315020006A0C99AAF42ECD1B1EE0C7AC9EE877AC6EDA1
S315020006B0077A012200217F2301A8F0EC017AF4EEE9
S315020006C0C87AF1EE10FAC8BF114637FE888A013B96
S315020006D002F10102F1D107EE901ADFED1C5AF8EE93
S315020006E0E77ADFED186A4FF0800E67EEA57A0023EF
S315020006F0B0EE666A4EF001E0C6ED087A07EE903A71
S31502000700F8EEE77AB4EC017A67EEA57A67EE877AB5
S3150200071076EE876A36EE276A01330FF011C8F5EED8
S31502000720C06AF1EE10FACCBFC6EE267ADFED057A84
S31502000730C6ED097A0DF6042DBDEC0C8BF0BDDFED8E
S31502000740017AB4E700000000900B00220000FA3F95
S3150200075070B560222DED048B00213E4803F038FF70
S31502000760282200213C4803F033FF9FED3C9AF6EE27
S31502000770008A9FED3B8A3B4DA5F5C06404F1400615
S3150200078003F08CFE07EE900AF8EEE77A67EE897AB6
S3150200079077EEE87A67EE887AE4EC017AB442EFD132
S315020007A0A542EBD1402200212E4803F011FF9FED16
S315020007B02B9AF6EE008A9FED2A8A2B4D05F5407696
S315020007C0A5F1300403F06AFE07EE900AF8EEE77A26
S315020007D067EE897A77EEE87A67EE887AE4EC017A50
S315020007E0AC42EFD104F13005B542E9D13022002105
S315020007F01E4803F0EDFE9FED199AF6EE008A9FED74
S31502000800188A1B4D05F59076A5F1180403F046FEED
S3150200081007EE900AF8EEE77A67EE897A77EEE87ADB
S3150200082067EE887AE4EC017AA542EFD11835AE423A
S31502000830EAD1002280EF50600E4B00205A6101245B
S31502000840A3EC047F0C4D0D4928601A600C70BDECB8
S31502000850048B70BD900B0022680B00220000003052
S31502000860CDCC4C3EC006002230070022000A0022F0
S31502000870480A0022500B0022B4000022B8000022CF
S315020008802DE9F0412DED048B0026F6EE009A9FED40
S31502000890599ADFED598A594D594CDFF86C8188B067
S315020008A005F148074FF0FF31206801F0B9FD002835
S315020008B0F8D107AA06A905A802F022F90028F1D163
S315020008C0DDE906120598FFF731FEDDE90612059805
S315020008D0FFF774FCDDE90523079900297DDDDFEDCD
S315020008E0496A4FEA810EAEF1040E4FEA9E0E0EF1F0
S315020008F0010E4EF001E0B0EE660AB0EE668AB2EC88
S31502000900017AF3EC017A27EE076A27EE277A67EE79
S31502000910A77A30EE060A38EE078A76EEA76A0FF055
S3150200092013C020EE260AB5EE400AF1EE10FA5BD4A9
S31502000930F1EEC07AF5EEC07AF1EE10FA4DDDC8EEB0
S31502000940276AF7EE007AB0EEE66A77EEC67A67EEC7
S31502000950A97A95ED027AD5ED035ACDED037A77EEB3
S31502000960257A77EE897A95ED0C8ACDED006AC7EE87
S31502000970276A85EEA77A28EE280A66EE866A67EE69
S31502000980067AB5EEC00ACDED016ACDED027A9DED8D
S31502000990007FF1EE10FA95ED0B5A87ED007F11DC20
S315020009A000EE106AF7EE007A38EE278A87EE887A2A
S315020009B00121D8F8000085ED160A85ED177A01F0B7
S315020009C031FD6FE725EE055A85EE000A04F04EF971
S315020009D0F2EE047A20EE270AE4E7F6EE007A06EE55
S315020009E0106A06EE906AB4E704F070F9F0EE407A07
S315020009F0A0E700BFBD378635CDCCCC3D900B00229B
S31502000A000816012200000000041601222DE9F04F0B
S31502000A102DED068BBFB0FFF79BFE20B14FF47A7027
S31502000A2001F0D4FCFAE79FEDCF9ADFEDCF8A9FED76
S31502000A30CF8ACF4F0DF1980916AD0AAEDFEDCD9AEA
S31502000A40CD4B4FF0FF31186801F0EAFC044600284E
S31502000A50F6D1CA4B186A93F82420C0F3036102F058
S31502000A600F035FFA82FEC64A41EA030C12681CF0C3
S31502000A70080F4FEA1060019200F04E811EF0080F37
S31502000A8000F06C8103230EF00702934002074ABF6F
S31502000A900322012200F007018A40019901FB03F3B8
S31502000AA0B3FBF2F8B74B284693ED007F89ED007F42
S31502000AB093ED047F8DED2A7F93ED087F8DED2E7FDA
S31502000AC093ED0C7F8DED327F93ED107F8DED367FAA
S31502000AD093ED147F8DED3A7FAB4BAC49A3FB0838FF
S31502000AE04FEA981302930DF1F80CACEB090EAEF136
S31502000AF0040E4FEA9E0E0EF1010E4EF001E04A463A
S31502000B0091ED007AA1F5C06304319846F2EC017AC0
S31502000B10D8ED006A67EEA67A403337EE277A0FF0F1
S31502000B200DC0B5EEC07AF1EE10FAD8BF9FED987AF5
S31502000B30B942A0EC017AD8D13046964905F1400C6B
S31502000B40ACEB050EAEF1040E4FEA9E0E0EF1010E4F
S31502000B504EF001E02A4691ED007AA1F54073043188
S31502000B609846F2EC017AD8ED006A67EEA67A30333F
S31502000B7037EE277A0FF00DC0B5EEC07AF1EE10FA15
S31502000B80D8BF9FED837AA0EC017AA842D8D10DF1A5
S31502000B90100A504680494FF00C0E32464EF001E0E4
S31502000BA091ED007AA1F5907304319C46F2EC017A3C
S31502000BB0DCED006A67EEA67A183337EE277A0FF075
S31502000BC00DC0A0EC017A8642E5D1744903949FEDEB
S31502000BD070AA8B4688460C46BAEC010A04F098F8CD
S31502000BE05645A4EC010A3AEE00AAF5D1B5EEC0AA22
S31502000BF0F1EE10FA4146039C12DD694BA3EB080E97
S31502000C00AEF1040E4FEA9E0E0EF1010E4EF001E019
S31502000C1091ED007AC7EE0A7AE1EC017A0FF009C08B
S31502000C20DBED006A01220523F0EE667A5D49B1EC3E
S31502000C30017AB4EEE77AF1EE10FAC8BF144677FEEF
S31502000C40277A013B02F10102F1D1B7EE007A9BED60
S31502000C50015ADBED047A37EE456ADBED025A66EE9F
S31502000C60A86A67EE897A37EE657A26EE086A77EE23
S31502000C70A67A27EE297A77EE867A77EE877AE4B233
S31502000C80012CCBED077A8BF818405DD0022C4DD1A2
S31502000C90F6EE087AF4EEE75AF1EE10FACCBF01212D
S31502000CA00021364A8BF82410136A92F82420C3F3E3
S31502000CB0036002F00F0440EA040C1CF0080F4FEA2E
S31502000CC01363D2B22ED012F0080F75D0032402F0AD
S31502000CD0070204FA02F21C074ABF03F007000123C7
S31502000CE003238340019800FB02F2B2FBF3F3264A88
S31502000CF0A2FB0323029AC2EB93132B4ACBF82030B2
S31502000D0013680133136000293FF49AAE274B012181
S31502000D10186801F087FB91E6019A02FA03F828FAAD
S31502000D2001F8BFE6019BA340C340E0E7032C46D18E
S31502000D309BED037ADFED1E7AB4EEE77AF1EE10FA56
S31502000D40CCBF01210021ACE7DFED1A7AB4EEE75AF7
S31502000D50F1EE10FACCBF01210021A2E7012202FA2C
S31502000D6003F393E6CDCCCC3E9A99993ECDCC4C3E3C
S31502000D7000070022CDCCCC3D0416012200E0014042
S31502000D8048210122900B0022D34D6210C006002298
S31502000D9000000000000A0022500B0022680B00220D
S31502000DA0800B00226C0B0022B400002200160122E6
S31502000DB0CDCC4C3F3333333F0122A2408BE7002197
S31502000DC06FE700BF10B590B10B4B1B787BB1844621
S31502000DD04FF0000E094C0FCCACE80F000FCCACE87C
S31502000DE00F0094E803008CE80300704610BD4FF034
S31502000DF0020E704610BD00BFB8000022680B00222A
S31502000E0030B108B56022034903F01EFA002008BD7E
S31502000E1002207047900B002238B54FF499620021E8
S31502000E201F4803F0D5FB1F4B1A6A93F82410C2F32E
S31502000E30036C01F00F001C4B4CEA000425071B68EB
S31502000E4012D5C9B20C074FEA12621ED401218140A3
S31502000E50100721D5032002F0070200FA02F201FB75
S31502000E6003F3B3FBF2F302E0834023FA0CF301220D
S31502000E700E490F4DA1FB0313094C0E499B092B602A
S31502000E8084F8C0240A70002038BD032001F007014F
S31502000E9000FA01F11007DDD4012202FA0CF2DEE7B4
S31502000EA0F80B002200E0014048210122D34D6210D6
S31502000EB0F00B0022F40B00222DE9F04F2DED108BE2
S31502000EC0ADF6442DFFF7A8FF002840F028839FEDDA
S31502000ED0C98AC94EDFF85493DFF854A3C74FDFF827
S31502000EE0548347F2305001F071FA36A8FFF76AFFD1
S31502000EF0A8B9D6F8B04436ADA7FB04239B0803EB8A
S31502000F004303A4EB430404EB840406EBC4040FCDB1
S31502000F100FC40FCD0FC495E8030084E803004AA866
S31502000F20FFF76EFFD6F8B04480B9B5486022A0FB41
S31502000F300430C00800EB8000A4EB400000EB400048
S31502000F4006EB4010F0304AA903F07EF9631CA7FBBA
S31502000F500324A40804EB4404B3EB4404C6F8B034F7
S31502000F60BFD1002BBDD0B422214662A803F030FBCC
S31502000F70A44BD9F800101A6A93F82430C2F303601E
S31502000F8003F00F0540EA050636074FEA1262DBB2A6
S31502000F9040F14C831E0740F15783032503F00703F4
S31502000FA005FA03F3150740F14C83032002F007020A
S31502000FB000FA02F201FB03F3B3FBF2F1A8FB0130E4
S31502000FC0914A924B8009A3FB0131A2FB00535B09B4
S31502000FD0A2FB03525209C2EB0212A3EB8202490D93
S31502000FE0C3EB03130092A0EB8300A7FB01231B09AB
S31502000FF003EB4303A1EBC303854A2021019062A8B8
S3150200100003F0D4F9834A6AAD07CA85E807007D4B27
S31502001010186A93F82430C0F3036103F00F0241EA21
S3150200102002052E074FEA1060DBB240F102831D076C
S315020010304ABF03F00702012303239340020740F14C
S31502001040FD82032100F0070201FA02F2D9F800102C
S3150200105001FB03F3B3FBF2F3A8FB03239B0907EEA1
S31502001060903A9AED007AF8EEE77AF8EE476A9FED43
S315020010706A6A77EEE67A4FF0000BC7EE866A5E4D35
S315020010809FED667A4FF0040E2E462B4606225946EF
S315020010905846CDED6E6AD3ED077AF5EEC07AF1EEDB
S315020010A010FA0FDD93F824C037EE277ABCF1000F51
S315020010B050EA009093F818C011B1F4455BEA0B9B15
S315020010C0E6460131013A03F12803E4D1DFED536A22
S315020010D029B107EE901AF8EE677AC7EE276ABEF1D3
S315020010E0050F96BF4E4B4F4953F82E10759071A8B7
S315020010F0CDED6F6ACDF8DCB102F06CFC40A8FFF7CB
S3150200110061FE30B99DF8183140AA02EB83031B68D1
S315020011107093002276A9104601F040F90DF1D30230
S3150200112040A935A801F0BEFC9FED3C7A00210A22B7
S31502001130F0EE476A304BD3ED527AF5EEC07AF1EE15
S3150200114010FA06DD93ED536A76EEA76A37EE067A53
S315020011500131013A03F16003EDD1002900F0618209
S3150200116007EE901AF8EE677A86EEA7DA87EE27CAB6
S315020011702D4B9FED2A7A93ED00BA8DED78DA8DED3F
S3150200118079CA00210A22F0EE476A8DED7BBAB0EEEB
S31502001190476AF0EE475AB0EE475AF0EE474AF0EE8B
S315020011A0473ADDF800C1A3F2C443CDF8E8C1D3ED56
S315020011B03C7AF5EEC07AF1EE10FA3DDD93ED3D1A7A
S315020011C0D3ED3E1A93ED3F2AD3ED402A93ED413AF1
S315020011D093ED434A73EEA73A74EE814A35EE215AED
S315020011E075EE825A36EE226A76EE836A37EE047A14
S315020011F0013121E03333333FF80B0022ABAAAAAA0E
S31502001200CDCCCCCC00E0014089888888B17C219580
S31502001210CC580002EC5800020000704200000000A8
S31502001220105D0002C4580002BC10002248210122AF
S31502001230F00B0022D34D6210013A03F16003B6D1DE
S31502001240002940F0C9819DED7C4A9DED7D3A9DEDD8
S315020012507E2A9DED7F1A9DED800A9DED819A9DED78
S3150200126082AAD04AD9F80030106A92F82420C0F334
S31502001270036102F00F0E41EA0E0B1BF0080F4FEA54
S315020012801060D2B200F0A48112F0080F00F0E381E0
S315020012904FF0030E02F007020EFA02F210F0080FE8
S315020012A000F0D581032100F00700814002FB03F321
S315020012B0B3FBF1F3A8FB03239B0906EE903ADAEDA2
S315020012C0007AF8EEE66AB8EE677A9FEDB75A76EEDE
S315020012D0C76ADFEDBE7AB54BB54A5B1B283BDB0816
S315020012E002FB03F323F06043B6EE006AB0EE677AC0
S315020012F0C6EE855A01330AE00AB937EE067AD5ED0B
S31502001300026A013B77EEA67A05F1280514D02A7EF9
S31502001310012AF1D1D5ED016AF4EEC86AF1EE10FAAE
S31502001320D5ED026A04F10102C8BF1446013B77EE0D
S31502001330A67A05F12805EAD1F5EEC05AF1EE086A59
S31502001340F1EE10FA87EEA66A40F3098107EE904A9B
S31502001350F8EE677AF0EE006A87EEA55AB4EEE65A20
S31502001360F1EE10FA8DED847A8DED856A8DED835A54
S3150200137040F3FF808F4D87AC0FCD0FC495E8030075
S3150200138044F8040B2180DDED6FEA9DED6EEAB7EEBF
S31502001390C66A9DED76FADDED708AB7EEC77A8DEDF7
S315020013A02A6BB7EEEE6AB7EECEEAB7EEC55AB7EEDD
S315020013B0C00AB7EEC11AB7EEC22AB7EEC33AB7EE03
S315020013C0C44A8DED287BB7EECAAAB7EEE87AB7EE25
S315020013D0C99AB7EECBBAB7EECCCAB7EECDDAB7EE4C
S315020013E0CFFA6AAB009387AB2C9371AB0693779BCC
S315020013F0714A0E93759B8DED046B4FF400610A934F
S315020014008DED02EB62AB90A88DED265B8DED200B88
S315020014108DED1E1B8DED1C2B8DED1A3B8DED184BA4
S315020014208DED087BCDF850C08DED24AB8DED229B62
S315020014308DED16BB8DED12CB8DED10DB8DED0CFB1C
S3150200144002F0B4FF4FF47A71642002F0CFF890A94B
S315020014505A4802F0C7FAD6F8B424524B0132C6F8FB
S31502001460B424196A93F82430C1F3036003F00F041D
S3150200147040EA04052D074FEA1161DBB258D51D0774
S315020014804ABF03F0070401230323A3400C074ABF04
S3150200149001F00700012103218140D9F8000000FB79
S315020014A003F3B3FBF1F3A8FB03139B09C6F8BC34A1
S315020014B0002A48D0D6F8B83407EE902A07EE103A3A
S315020014C0F8EE677AB8EE477AB7EE009AC7EE276A61
S315020014D00DF1D30240A935A839EE669A01F0E2FA77
S315020014E0359B8BB107EE903A409BF8EE677A06EE93
S315020014F0903AF8EE666AB7EE007A86EEA76A77EE5B
S31502001500467A29EE279A2F93B5EEC09AF1EE10FA93
S3150200151048BF9FED2E9A2A4B83ED009AE1E44FF4E1
S315020015207A7000F053FF4FF47A7000F04FFFF6E73F
S31502001530D9F80030A340C340A8FB03139B09C6F8A1
S31502001540BC34002AB6D10DF1D30240A935A801F068
S31502001550A9FA359BB7EE009A002BC3D1DBE7DFED84
S315020015601B7A8DED847ACDED837A8DED856AB0EEA8
S31502001570675ADFED147AB4EEE76AF1EE10FA73DC1D
S31502001580F1EE047AB4EEE77AF1EE10FA87AC66D59C
S315020015900D4D0FCD0FC42B6824F8023B1B0C237094
S315020015A0F1E600BF00E0014000006145E80C0022C0
S315020015B0CDCCCC0CF8580002485900027C5C0002E3
S315020015C0BC1000229A99193F24590002000000001B
S315020015D003FA0EF3CB406DE607EE901AF8EE677A41
S315020015E083EEA74A84EEA73A85EE272A85EEA71A46
S315020015F08DED304A8DED313A8DED322A8DED331A6D
S3150200160086EE270A86EEA79A87EE27AA9DED307FF9
S315020016108DED800A8DED819A8DED82AA8DED7C7F0E
S315020016201FE61FED16DAB0EE4DCAA1E5A940C1408C
S31502001630C4E4D9F800309340CB400DE501228A403C
S3150200164004E501228240B5E40123AB40AAE401206D
S3150200165000FA01F12AE6012202FA0EF21EE6044B14
S315020016600FCB07C423808EE6024D87AC91E700BFFD
S315020016703859000210590002034630B5114D83B0A5
S3150200168000224FF4807128468DF8073001F00AFED9
S315020016900121084601F0AAFF082301220DF10701E4
S315020016A0094801F03DFC044601210A2001F09EFF93
S315020016B001224FF48071284601F0F4FD204603B062
S315020016C030BD00BFA0200122A820012270B5154E10
S315020016D082B00D46002204464FF48071304601F076
S315020016E0E1FD0121084601F081FF002108230322C2
S315020016F08DF8051044F0400401A90B488DF804400A
S315020017008DF8065001F00CFC044601210A2001F076
S315020017106DFF01224FF48071304601F0C3FD204671
S3150200172002B070BDA0200122A820012238B50021F6
S31502001730002400253F4B4FF48032A3F58030C3E9E5
S3150200174000451972D96002F043FF0620FFF794FFA5
S31502001750044608B1204638BD4FF47A71052001F0DF
S3150200176045FF4FF47A710A2001F040FF1121012052
S31502001770FFF7ACFF052105460220FFF7A7FF034648
S31502001780214603201D43FFF7A1FF034680210420C3
S315020017901D43FFF79BFF0346042105201D43FFF768
S315020017A095FF0346012106201D43FFF78FFF0346DF
S315020017B021460F201D43FFF789FF0346042115200A
S315020017C01D43FFF783FF0346232116201D43FFF720
S315020017D07DFF55EA0004BDD11620FFF74DFF4FF4F9
S315020017E07A710446642001F001FF1720FFF744FFD7
S315020017F003464FF47A7164201C4301F0F7FE1B2066
S31502001800FFF73AFF03464FF47A7164201C4301F056
S31502001810EDFE1C20FFF730FF03464FF47A711C439E
S31502001820642001F0E3FE002C94D10122024B1A70CF
S3150200183090E700BFD0100122C81000222DE9F04F18
S315020018402DED028B89B0FFF771FF40B1874C4FF443
S315020018507A7000F0BBFD236801332360F7E70820A6
S31502001860FFF70AFF0C20FFF707FF0123804D2B70BD
S315020018702B78002B00F0CF809FED7E8A7E4FBBE057
S315020018804FF480717D48029205920392ADF81020C2
S315020018900692ADF81C2001F005FD0121084601F073
S315020018A0A5FE0824122104238DF80810744805AAFF
S315020018B000940DEB040101F03FFB002840F0B080DC
S315020018C0142200949DF816408DF808209DF81520E4
S315020018D0240244EA02449DF8172014F4000F44EA55
S315020018E0020444F07F4218BF14460323644802A947
S315020018F006AA01F021FB002840F092809DF81930DB
S315020019009DF818209DF81A601B0243EA02431E4303
S3150200191001221B024FF48071584848BF46F07F46A9
S3150200192001F0C0FC4FF4FA6C564884EAE47301688D
S31502001930A3EBE47386EAE672B3F5800F0CFB01FCB7
S31502001940A2EBE67277DAB2F5800FACBF4FF0000E6B
S315020019504FF0010E07EE904A07EE106AF8EEE77AAC
S31502001960B8EEC77AB6EE006A77EE877AF0EE046AC8
S3150200197067EE867A67EEA67ADFF824811344C3F30C
S315020019800742D8E9009309F10101C1F30A0199421C
S3150200199067EE887A52D09FED3C7A3C4B4FEA491B60
S315020019A043F80B4003EB491383ED047A4FF0000A28
S315020019B09FED377A83F818E05A7683ED057AC3ED00
S315020019C0077A5E60C3F80CC0C3F808A0D8F80430E2
S315020019D0304A994204BF012388F808300368C8F8E0
S315020019E0001001330360036802FB03F32A4AB2EBD9
S315020019F0730F34D22B7873B10521386800F010FDCD
S31502001A00024600283FF43CAF184A136801331360BC
S31502001A102B78002BF0D109B0BDEC028BBDE8F08F1C
S31502001A2001224FF48071154801F03CFC0F4A1368FD
S31502001A3001331360ECE74FF0000E8BE798F808309D
S31502001A40002BA8D0DFF824A04B1CC3F30A03C8F866
S31502001A500430DAF800300133CAF800309BE70F4B46
S31502001A600121186800F0DEFCC4E700BFC0100022A6
S31502001A70C91000220000003410160122A020012203
S31502001A80A8200122C410002200004842D0100022E1
S31502001A9000003442CDCCCCCC999999190C1601226E
S31502001AA0D01001222DE9F041074698B316468AB3B3
S31502001AB01A4D08462B7A53BBD5E900218A4238BF14
S31502001AC002F50062511A814228BF01463160D9B13E
S31502001AD000246B68DFF8488007EB441E08EB431CC2
S31502001AE0BCE80F00AEE80F009CE80F008EE80F007E
S31502001AF06B6801340133C3F30A036B603268A24296
S31502001B00EAD80AB100232B720020BDE8F0814FF417
S31502001B100061D8E70220BDE8F08100BFD0100122A3
S31502001B20D010002208B500F04DFC00B108BDBDE89A
S31502001B30084000F079BC00BF70B5002401258CB0C6
S31502001B4004A80695CDE9044400F048FC0246454B3C
S31502001B5004A81A6000F042FC0246434B04A81A602D
S31502001B6000F03CFC0246414B04A81A6000F036FC29
S31502001B7002463F4B04A81A6000F030FC02463D4B79
S31502001B8002A81A60CDE9024500F030FC02220546A1
S31502001B90002339496846CDE900230D6000F02EFC8A
S31502001BA040F201310A224FF40063344D344E28606C
S31502001BB007A8CDE90923089607910B9400F026FCA5
S31502001BC0A04202DD214600F029FC0F224FF40063F9
S31502001BD02C4907A8CDE908120A9300F017FC002841
S31502001BE002DD002100F01AFC14224FF4406326495C
S31502001BF007A8CDE908120A9300F008FC002802DDC6
S31502001C00002100F00BFC19224FF480531F4907A84C
S31502001C10CDE908120A9300F0F9FB002802DD002143
S31502001C2000F0FCFB1E224FF48063194907A8CDE998
S31502001C3008120A9300F0EAFB002802DD002100F0F8
S31502001C40EDFB23224FF40063124907A8CDE90812DF
S31502001C500A9300F0DBFB002802DD002100F0DEFB28
S31502001C600CB070BD101601220C16012208160122B4
S31502001C700416012200160122E4100122E0100122BC
S31502001C803D18000239270002810800020D0A0002EF
S31502001C9095200002B90E000208B5FFF743FF30B1E6
S31502001CA04FF47A714FF4FA7001F0A0FCF8E7FFF7EF
S31502001CB043FF00F089FB00BFFDE700BF704700BF8E
S31502001CC0032898BF284B70B598BF53F82010274BAE
S31502001CD088BF27490546D422184602F0B5FA4FF4C2
S31502001CE0807603464FF0000C224A146A92F82410BA
S31502001CF0214A01F00F0040EA147E1EF0080F126816
S31502001D00C9B24FEA147483F8DB5083F8D4C0A3F83F
S31502001D10D6C0A3F8D86083F8DAC011D00D071DD457
S31502001D200121814020074CBF0320012001FB02F262
S31502001D3048BF04F0070400FA04F4B2FBF4F201E02F
S31502001D408240E2400D48D3F8E010A0FB02020131C6
S31502001D50920CC3F8E010C3F8DC2070BD032001F03A
S31502001D60070100FA01F1DDE7285D000218150122DC
S31502001D70EC10012200E001404821012283DE1B43D0
S31502001D802DE9F84FE8220021B44802F021FC4FF079
S31502001D9000014FF4C163EDEE101A00214FF0010C61
S31502001DA0AF4DB04A25F8033CAF4B11609A89DFF874
S31502001DB0D4A225F8B92C9A8B05F801CC25F8AD2CBE
S31502001DC0BAE807002860696093E8030045F8C30C87
S31502001DD0986825F8BF1C45F8BD0C03F1100003C82E
S31502001DE045F8B70C9869AA6045F8B10C03F12000D2
S31502001DF09AF8002025F8B31C03C845F8AB0C986A7C
S31502001E002A7325F8A71C45F8A50C4FF0FA7045F879
S31502001E109F0C4FF47A7045F8970C002045F89B0CFE
S31502001E2040F60A10914E9A8D26F8030CFDEE100A22
S31502001E3026F8BD0CC82046F8BB0CFDEE100A26F8A3
S31502001E40B10CC82046F8AF0CFDEE100ADFF8389246
S31502001E5026F8A50C25F8A12CB9E80700306003F195
S31502001E603000716003C846F8C30C03F1380026F847
S31502001E70BF1C03C846F8B70C03F140004FF0000A36
S31502001E8026F8B31C03C846F8AB0CC820B260B9F8F2
S31502001E90002026F8A71CB28106F801AC46F8A30C6E
S31502001EA04FF4967046F8970C4FF4487046F88B0C30
S31502001EB040F206406E4F6F4D27F8030C642047F838
S31502001EC0BB0CFDEE100A26F8990C26F88D0C27F8A5
S31502001ED0BD0C03F1480003C846F89F0C03F15000FD
S31502001EE026F89B1C03C846F8930C26F88F1C07CDD0
S31502001EF0BA602A7838603A7303F15802796092E838
S31502001F00030008324FF0010C47F8C30C27F8BF1C38
S31502001F1092E80300FDEE102A47F8B70C27F8B31C27
S31502001F2007F801CC27F8B12CC82247F8AF2C4FF49A
S31502001F304272514CDFF854B124F8032C03F16802C3
S31502001F4092E80300B3F8742047F8AB0C27F8A12CEB
S31502001F50B3F88420186F24F8B92C03F1780227F815
S31502001F60A71C47F8A50CBBE803002060616092E855
S31502001F700300BBF8002044F8C30C22819BF8022020
S31502001F80D3F88000A27203F1880224F8BF1C44F839
S31502001F90BD0C92E8030044F8B70CD3F890004FF456
S31502001FA0C86204F801AC24F8B31C44F8B10C40F240
S31502001FB00440DFF8DCE044F8972CFDEE102A2EF8F8
S31502001FC0030C4FF07A7024F8992C2EF8BF2C03F1EB
S31502001FD098024EF8C30C92E80300B3F8942044F832
S31502001FE0AB0CD3F8A00024F8AD2C03F1A80224F818
S31502001FF0A71C44F8A50C92E80300B3F8A42044F801
S315020020009F0C24F89B1C24F8A12CB3F8B4201B4C7B
S315020020102EF8B92C07CCCEF80000D3F8B000CEF8D3
S31502002020082003F1B802CEF804104EF8BD0C0EF8E3
S3150200203001CC92E803004EF8B70CD3F8C000B3F80F
S31502002040C4304EF8B10C2EF8AD3C0D4B002083F88F
S3150200205000C02EF8B31CBDE8F88F00BF1815012288
S31502002060FF14012214150122385D00022B140122ED
S3150200207057130122E85C000283120122045D00026A
S3150200208010150122C85C0002D85C0002F85C00024E
S31502002090AF1101222DE9F04F2DED028B97B0FFF71C
S315020020A06FFE20B14FF47A7000F090F9FAE7DFED97
S315020020B0B08A9FEDB08AB04EB04CDFF8D492DFF80A
S315020020C0D482DFF8D4B2AE4D4FF0FF31306800F063
S315020020D0A7F90028F8D102A8FEF774FE94F8D930C1
S315020020E050B95BB99DF82C30002BEDD09DF820003D
S315020020F0FFF7E6FD94F8D930002BE5D04FF0000A41
S315020021006DE014F817E0477889F800E088F8007067
S31502002110BCF1000F00F0AB8040889A4FB3EB500F32
S31502002120A7FB00C74FEA57172B608BF800706ED2D9
S315020021309BF8007099F800C03846009798F800702E
S315020021400197002800F0A9802F780098ACEB070CC5
S315020021509CFBF0FEBEF1000F00F0A480BE445FFAC5
S315020021608EF7642F28BF642701982F706F78A0EB33
S31502002170070C00989CFBF0F0002800F09D80384484
S31502002180C7B2642F6F7001D964206870114404EBE2
S315020021904101498832339BB29942A4F8D63016D807
S315020021A094F8C0300132D2B2934284F8D420A4F813
S315020021B0D6A00CD894F8D83094F8C1200133DBB2FB
S315020021C09A4284F8D83040F2818084F8D4A0322032
S315020021D000F0FCF894F8D930002B3FF475AF94F870
S315020021E0DA30002BF3D194F8D420B4F8D63002EBCF
S315020021F0420704EB470090F804C05100002B80D040
S31502002200BCF1000F03D04088B3EB500F90D388186F
S3150200221004EB40004779002FB8D04088B3EB500F4B
S31502002220B4D99BF80000002867D02F78C7F1000CBC
S315020022309CFBF0FE0FFA8CFCBEF1000F61D1BCF1E3
S31502002240000F07D04FF0FF3E7744FFB2642F88BFDE
S3150200225064272F706F78C7F1000C9CFBF0F00FFA21
S315020022608CFC002850D000B20744FFB289E77046C2
S31502002270642828BF6420BEF1000E18BF4FF0010E7D
S31502002280642F2870384628BF6420003F18BF0127F4
S3150200229085F802E06870EF7078E7019885F800C06B
S315020022A0687073E7BCF1000F3FF45BAFCCBF013738
S315020022B007F1FF37FFB254E7BCF1000F3FF461AFFD
S315020022C0CCBF013707F1FF37FFB25AE70CA894F8E3
S315020022D0DB7084F8D9A0C5F800A0FEF773FDF0EE16
S315020022E0487A38B9022F37D0032F24D0012F12D0C3
S315020022F0DFED1F7AC4ED397A69E74FF000002880D6
S3150200230044E70FFA8EFE9FE7BCF1000F3FF43EAFA3
S315020023104FF0FF30A8E7F6EE006A9DED0D6AB4EEC7
S31502002320E66ADFED137A9FED137AF1EE10FA58BFE3
S31502002330F0EE477ADEE7DFED147A9DED0C7AB4EE25
S31502002340E77AF1EE10FACCBF01230023002B48FEF8
S31502002350287AC4ED397A3AE7DFED0C7A9DED0E7AEA
S31502002360B4EEE77AF1EE10FA4CBF01230023EDE753
S31502002370CDCC4C3F9A99993E00160122181501229E
S31502002380141501221F85EB51CDCCCC3E9A99193FEB
S31502002390EA100122E9100122E810012218B1084BC5
S315020023A0D3F8E030036019B1054BD3F8E4300B6083
S315020023B01AB1034B93F8D93013700020704700BF4F
S315020023C018150122002070470020704708B54FF407
S315020023D07A7101F00BF9002008BD00BF024B1868A4
S315020023E0421C1A60704700BF00000022024B1868A8
S315020023F0421C1A60704700BF00000022024B186898
S31502002400421C1A60704700BF00000022024B186887
S31502002410421C1A60704700BF00000022002070476D
S315020024200020704700207047002070470020704748
S315020024301046704700207047002070470120704701
S3150200244000207047D0ED056AD0ED013AD0ED007A52
S3150200245088B090ED064ACDED056AD0ED025A66EED9
S31502002460A36A60EE277A90ED077AD0ED034A65EE0D
S31502002470845A77EEA67A90ED085A8DED077A90ED9A
S31502002480046A27EE247A77EEA57A26EE056A77EEB7
S31502002490C77A77EEC67A8DED040ACDED067A9DED02
S315020024A0045FD0ED0E6A90ED093AD0ED0A3A80ED5E
S315020024B0055FCDED016A90ED0F4A27EE830A66EEBF
S315020024C0A36AD0ED0B5A90ED107AD0ED0C4A65EE68
S315020024D0845A30EE260A90ED0D6A90ED115A8DED72
S315020024E0037A30EE250A27EE247ACDED007A30EE15
S315020024F0470A66EE057A30EE670A8DED020A9DED11
S31502002500007F80ED0E7F08B0704700BFFFFFFFFF20
S3150200251003469FED3D4B9FED3E5B2DE9F04FA3EC4D
S31502002520045F9FED3D4B9FED3E5B83ED005F9FEDAC
S315020025303E4B9FED3F5B80ED085F9FED3F4B9FED6E
S31502002540405B80ED0C5F9FED404B9FED415B80ED64
S31502002550105F9FED414B9FED425B80ED145F9FED57
S31502002560424B9FED435B80ED185F9FED434B9FED22
S31502002570445B80ED1C5F9FED444B9FED455B80ED18
S31502002580245F9FED454B9FED465B80ED285F9FEDF7
S31502002590464B9FED475B80ED2C5F9FED474B9FEDD2
S315020025A0485B80EF506080ED305F9FED474B9FEDBB
S315020025B0485B85B000F1D0020192019B80ED207F3D
S315020025C083ED005F9FED444B9FED455B00F1E0021A
S315020025D00292029B00F1F00283ED005F9FED424BF7
S315020025E09FED435B0392039B00F1A00E83ED005F18
S315020025F09FED414B9FED425B80ED447F80ED405F56
S3150200260005B0BDE8F08F00BFC9622D3FAA458CBF59
S31502002610C9622D3FAA458CBF258BB53E000000003E
S31502002620000000000000000000000000C9622D3F0B
S31502002630AA458CBFC9622D3FAA458CBF258BB53EE4
S315020026400000000000000000000000000000000082
S315020026500E8D223F39FD6CBF0E8D223F39FD6CBFB8
S315020026603A348A3E0000000000000000000000002C
S31502002670000000000E8D223F39FD6CBF0E8D223FF9
S3150200268039FD6CBF3A348A3E7ADD7E3F7ADDFEBF83
S315020026907ADD7E3FD6DCFEBF3EBC7D3F00000000F9
S315020026A00000000000000000000000007ADD7E3F0E
S315020026B07ADDFEBF7ADD7E3FD6DCFEBF3EBC7D3FC5
S315020026C00000000000000000000000000000000002
S315020026D08136673D8136E73D8136673D63C19CBFE2
S315020026E0C9A0E63E00000000000000000000000055
S315020026F0000000008136673D8136E73D8136673D41
S3150200270063C19CBFC9A0E63E10B5094C4FF42862CE
S315020027100021204601F05CFF2046FFF7F9FE04F592
S315020027209070FFF7F5FE0122024B00201A7010BDD1
S31502002730201601221C1601222DE9F04F2DED0A8BDF
S31502002740D3B0FFF7E1FF20B14FF47A70FFF73EFEF8
S31502002750FAE79FEDBE9ADFEDBE8ADFEDBECA9FEDB8
S31502002760BE8ABE4CBE4FDFF834B3DFF834A304F69C
S31502002770742904F678289FEDBBBA4FF0FF3138680A
S31502002780FFF74EFE0028F8D101AA0A2102A8FFF798
S3150200279089F9D4F87C2A054608B9019BCBB9B24B14
S315020027A003FB02F2B14BB3EBB20FE6D30021D4F82E
S315020027B0703AAF4A0133A2FB0302D20802EB82024D
S315020027C0C4F8703AA3EB420303F2922344F82310AF
S315020027D0D1E7DFEDA8AA9FEDA8AADFEDA89A9FEDA3
S315020027E0A8CADFEDA8BA02AE30E077EEC87A67EE85
S315020027F08B7A77EE887AB4EEC80AF1EE10FA40F3D5
S31502002800E28030EE480A20EE0B0A30EE080AD4F8CF
S31502002810403A013203F5C87104EB810181ED000AE9
S3150200282004EB83010133FF2BCBED007A8AED000A1C
S31502002830C1ED907AC4F87C2AC4F8403A00F2E880E6
S31502002840019B0135AB4206F12006A8D9D6ED007AE6
S31502002850B8EEE70A20EE2A0A20EE0A0AF0EEC07A5D
S31502002860F4EEE97AF1EE10FA9BED007ADAED006AFF
S31502002870736800F3B78006EE103AF8EEC62A62EEE7
S31502002880AA2A62EE8A2AF0EEE25AF4EEE95AF1EE4A
S3150200289010FA00F3A78030EE476AB0EEC66AB4EECD
S315020028A0EB6AF1EE10FA00F39D8032EEE66AB0EEC4
S315020028B0C66AB4EEEB6AF1EE10FA00F39380F4EE18
S315020028C0EB7AF1EE10FA11DDF4EEEB5AF1EE10FAB4
S315020028D00CDD67EEA57A20EE225A9FED6B6AC5EEF5
S315020028E0275AF4EEC65AF1EE10FA7BDCD9ED001A3D
S315020028F098ED002A62EEA87A20EE287A61EE891A0D
S3150200290022EE092A71EE871A32EE272A5F48C9EDAE
S31502002910001A88ED002AFFF795FD00F59070B0EEDB
S31502002920401AB0EE620AFFF78DFDA0F5D870F0EE00
S31502002930402AB0EE410AFFF785FD00F59070B0EE31
S31502002940401AB0EE620AFFF77DFDD838F0EE402A53
S31502002950B0EE410AFFF776FD00F59070B0EE401A30
S31502002960B0EE620AFFF76EFD9038F0EE402AB0EE46
S31502002970410AFFF767FDF0EE407AB0EE620AF0EE2A
S31502002980672A00F59070FFF75DFD72EEE17AF4EECC
S31502002990C87AF1EE10FA30EE420A3FF726AFF4EEAD
S315020029A0EC7AF1EE10FA7FF526AF77EE887A9FED94
S315020029B02D7AB4EEC80A67EE877AF1EE10FA77EE50
S315020029C0C87A3FF71EAFB4EEEC0AF1EE10FA7FF5C5
S315020029D01EAF30EE080A9FED237A20EE070A30EE8C
S315020029E0480A14E7D4F8701A214B27EE0C0AA3FB07
S315020029F00103DB0803EB8303A1EB430303F29223F8
S31502002A0054F8231066EE8C2A013144F823106DE740
S31502002A10802201231E49C4F8402AA1F500704FF412
S31502002A20007284F8443A01F00FFC1A494FF400721E
S31502002A30A1F5007001F008FC01231946164B18682F
S31502002A40FFF7F0FCD4F87C2AFAE600BF77BE7F3F98
S31502002A506F12833A0000C8C20000C8422016012243
S31502002A600C160122CDCCCC3D917EFB3AE2361A0001
S31502002A70CDCCCCCC8096984700000034000016439B
S31502002A806666663F00004842CDCC4C3FB016012236
S31502002A90601A0122601E012208160122181601225E
S31502002AA01416012218B1134BD3F87C3A0360B1B164
S31502002AB010B54FF00A0E00234EF001E00E4850F812
S31502002AC0044F23440FF005C80B603AB1094B93F843
S31502002AD0443A13B1094B1B78DBB2137010BD42B1F5
S31502002AE0044B93F8443A13B1044B1B78DBB21370D0
S31502002AF07047704720160122642001221C1601220B
S31502002B0010B40C4B93F8444A74B110B103F5107328
S31502002B10036009B1084B0B6012B14FF48073136066
S31502002B2000205DF8044B70476FF00B005DF8044B14
S31502002B30704700BF20160122601C012208B5FFF76C
S31502002B40ABF8002008BD00BF10B5826804461368C2
S31502002B5023F0705323F0030343F00073136082687B
S31502002B60136923F00C0313614368DA6822B1936890
S31502002B7010681B69984763689A6822B1936810685F
S31502002B801B69984763680022DB79A168DB070B6142
S31502002B90C4E90322C4E9052210BD00BF30B581682D
S31502002BA083694C69057FC4F305249C4228BF1C46F1
S31502002BB0022D426938D0012D1CD065BBB4B1234623
S31502002BC000E08168097F013B02F8011BF9D1D0E9D7
S31502002BD00532017F121B04FA01F10B44C0E90532EA
S31502002BE04FF48032836859695A61836903B1436934
S31502002BF0436130BD002C3AD06300023B5B080133CF
S31502002C0000E08168898B013B22F8021BF9D1057F1E
S31502002C10426945B3836904FA05F51B1B2A44C0E9D8
S31502002C200523002CE2D0DBE70CB31346C969012C5D
S31502002C3043F8041B11D002EB8402A2EB030EAEF1A1
S31502002C40040E4FEA9E0E0EF1010E4EF001E082686E
S31502002C50D26943F8042B0FF007C0057F4269012DA4
S31502002C6003D0002DD6D18168A9E78168C4E7AC40BC
S31502002C702244C0E90523B9E730B5436A83B0044666
S31502002C800A466D468BB193E8030085E803001A7184
S31502002C90A26A18461A60236A9847636A1BB195E8C6
S31502002CA0030083E8030003B030BD2B46EFE700BF05
S31502002CB030B5EFF30383103B414A5BB203F5C651CD
S31502002CC052F821403F4824F4803450F8230042F859
S31502002CD0214052F82130C368002B51D08268056921
S31502002CE05469017FC4F30564C4F12004AC4228BFD1
S31502002CF02C46022924D001294BD0002937D1B4B160
S31502002D00214600E0826813F801CB013982F818C027
S31502002D10F8D1D0E90332017F121B04FA01F10B4408
S31502002D20C0E903320122836859695A61056935B9D6
S31502002D30C56083685B69C3F30563102B24D830BD75
S31502002D40002C37D053F8041B012C916109D004F1F1
S31502002D50FF3E4EF001E0826853F8041B91610FF0CA
S31502002D6007C0017FC368012922D0F9B1056904FAB7
S31502002D7001F12D1B1944C0E90315002CD7D0D1E768
S31502002D800369002BD5D030BD0121BDE83040FFF7E5
S31502002D9073BF7CB1214600E0826833F8025B0139D9
S31502002DA01583F9D1017FC3680029DFD18268A7E7BD
S31502002DB08268EFE704FA01F10B44C0E90335B6E78E
S31502002DC0006000402021012210B5EFF303830021A9
S31502002DD0114A103B5CB252F8240083685A68596063
S31502002DE0930111D443690BB1FFF7D8FEFFF7ACFE8E
S31502002DF00A4A04F5C65352F8231021F4803142F8E8
S31502002E00231052F8233010BD83681A6861F35962A1
S31502002E101A60FFF731FFEBE7202101220060004034
S31502002E202DE9F0411D4683689DF818C01E6E002EDE
S31502002E305FD1BCF10F0F04460F46C0E90312C0E989
S31502002E400566C56180F820C04CD8BCF1070F94BF57
S31502002E504FF000084FF0010863685969C9B14FF095
S31502002E60020CA5615B69A8B259680968C881C8786D
S31502002E708A6068F30510C87088786CF383008870DE
S31502002E80002A3AD09A6818685368984700282CD1C5
S31502002E9063681A699AB1022065611A69ADB253680C
S31502002EA01968CB78CD8168F3051360F383034F600D
S31502002EB0CB704FB3936810685B689847A8B9012135
S31502002EC0A26894F82000536923F4F81343EA0043F6
S31502002ED05361A3683046D966A26893680B43936030
S31502002EE0BDE8F0814FF00208B6E706463046BDE877
S31502002EF0F08108263046BDE8F081C0B262F3830055
S31502002F00054A88708A60BDE70448DBB267F383032B
S31502002F10CB704860CEE700BFDC200122D820012218
S31502002F2010B594461C4682B0002263460094FFF711
S31502002F3077FF02B010BD00BF10B49DF804400194A3
S31502002F405DF8044BFFF76CBF30B5836A85B0044663
S31502002F508C4601ADABB193E8070085E807006268CD
S31502002F601846127883F804C01A60E26A9A60636AA5
S31502002F709847A36A1BB195E8070083E8070005B0E6
S31502002F8030BD2B46EBE700BFEFF30383103B1F4A2E
S31502002F905BB203F5C65152F8210020F4803042F8A4
S31502002FA0210052F821201A4A52F82330D3E9062189
S31502002FB08A421CD01869996828B393F820C0096818
S31502002FC0BCF10F0F0FD8BCF1070F8CBF20F81210FF
S31502002FD0815499684FF000408866D969013291425E
S31502002FE09A6104D0704740F822109968F2E75B684C
S31502002FF093F90330012203F01F0006495B09824060
S3150200300041F8232070470868E4E700BF00600040EB
S315020030102021012200E100E030B4EFF30383103BEC
S3150200302031495BB203F5C65251F8220020F48030D2
S3150200303041F8220051F822202C4A52F823305D68CA
S315020030402A6A507801281ED05A69DC69A2420FD03A
S31502003050D3E90201A9B193F820400F2C0AD951F8FD
S31502003060221001604FF000509968013288665A6159
S3150200307030BC7047072C03D931F812100160F1E712
S31502003080895C0160EEE7DC695A6904F1FF3C62453E
S315020030900CD029690029D9D095F90320144902F0E8
S315020030A01F04A040520941F82200CDE795F90340DA
S315020030B004F5C65251F8225025F4803541F82250C3
S315020030C051F82220BFF35F8F6209920004F01F04B9
S315020030D002F1604200FA04F402F56142C2F880414C
S315020030E014605A69DC69B1E70060004020210122C0
S315020030F000E100E030B4EFF30382103A2E4953B2F6
S3150200310003F5C65051F8204002F0FF0224F4803441
S3150200311041F8204051F82010284951F823008168CF
S31502003120096D890105D54168497A012901D030BC6A
S3150200313070470121224C5B0902F01F02203301FA7B
S3150200314002F244F82320BFF34F8FBFF36F8F436819
S3150200315093F902305A0903F01F0301FA03F32032EE
S3150200316044F82230BFF34F8FBFF36F8F8468124B40
S31502003170A26822F00102A260426892F9022002F5D8
S31502003180C65453F8245025F4803543F8245053F896
S315020031902430BFF35F8F53099B0002F01F0203F135
S315020031A0604301FA02F203F56143C3F880211A6013
S315020031B030BCFFF7C9BE00BF0060004020210122DB
S315020031C000E100E070B5EFF3038301223149103BC1
S315020031D05CB251F824603048736893F90230590999
S315020031E003F01F03203102FA03F340F82130BFF344
S315020031F04F8FBFF36F8FB068284B816821F00101B2
S315020032008160716891F9021001F5C65053F8205099
S3150200321025F4803543F8205053F82030BFF35F8FF2
S315020032204B099B0001F01F0103F160438A4003F53D
S315020032306143C3F880211A60B368194A1D6D9A6604
S315020032402A0112D4EB0116D405F0A055B5F1A05F00
S315020032501AD0124A04F5C65352F8231021F48031CB
S3150200326042F8231052F8233070BD05213046FFF78D
S315020032706BFEEB01E8D50421304605F0A055FFF7B9
S3150200328063FEB5F1A05FE4D108213046FFF75CFE8C
S31502003290DFE700BF2021012200E100E000600040DC
S315020032A0000080FD002001238242CAB203FA02F323
S315020032B09AB24FEA034308BF1A460B0A5B0103F1AF
S315020032C0804303F580039A60704700BF10B582B051
S315020032D0EFF30384194B103C64B253F82410184AD6
S315020032E04879135C03F00303032B13D004F5C65489
S315020032F052F8243023F4803342F8243052F8243032
S315020033008B682BB14879CA68CDE900206846984790
S3150200331002B010BD8B6823B1CA68CDE900206846A9
S315020033209847074B04F5C65453F8242022F48032FA
S3150200333043F8242053F8243002B010BD2021012284
S31502003340006000401E4A92F8263092F82420DBB232
S3150200335002F00F02A2F1080103292BD8DFE801F0DF
S3150200336020160C021749184A51F82330A2FB0323F0
S315020033701B09164A136070471249134A51F8233043
S31502003380A2FB0323114ADB08136070470D490E4A5C
S3150200339051F82330A2FB03230C4A9B0813607047A3
S315020033A00849094A51F82330A2FB0323074A5B085E
S315020033B013607047034951F82330D340D9E700BF61
S315020033C000E0014068000022ABAAAAAA4821012215
S315020033D0704700BFFFFFFFFFF8B54AF20350012313
S315020033E04B494C4AA1F8FA03938093889BB2002B6F
S315020033F0FBD101244FF400409FED416B9FED427BD0
S31502003400454B4649C3E907115961148083ED007F94
S315020034101861FFF797FF092206213D4B83F8501AE0
S3150200342083F8A22093F8002C1AB993F8013C980766
S3150200343060D0374C94F8003C002B50D00022344B1D
S3150200344083F8012C83F8002C0023314A82F83230AB
S3150200345092F83C301907FBD545F6017040F211117E
S3150200346000232B4C1085A2F84C1082F82A3094F8CF
S315020034703C309B06FBD5042201250526254B284F09
S315020034801A77276284F8245084F82660FFF75AFFD9
S315020034902946962000F0AAF8002384F824302762F1
S315020034A0FFF750FF2946962000F0A0F884F8266020
S315020034B0FFF748FF4AF201521A4B1A80BFF35F8F99
S315020034C01D72BFF35F8F4FF425421A8084F8305085
S315020034D084F8525084F85350A4F8FA23F8BD012117
S315020034E0C82084F8001C00F081F894F8003C012BF7
S315020034F0FBD1A3E74FF47A70FFF76AFFA4E700BF98
S31502003500006CDC0200127A0000800000002D3101FE
S3150200351000E0014000C101406800002200389C1C06
S31502003520322312310020004038B50025284C0121F3
S31502003530C82084F8285000F059F884F8245094F8EA
S315020035402430002BFBD194F82430214943F00203A6
S3150200355084F8243091F82430C3F340009B07F9D451
S315020035601B4A81F8220092F8223003F0FF00002B5A
S31502003570F9D192F84030164960F3C71382F8403009
S3150200358091F84030DB09FBD191F84200104A63F30F
S31502003590C71081F8420092F84230DB09FBD192F85B
S315020035A044000B4963F3C71082F8440091F8443093
S315020035B0C3F3C014DB09F9D1012000F0BFF8054BB3
S315020035C0012083F84C4CBDE8384000F087B800BFB4
S315020035D00020204000E0014000BEFEE7FFFFFFFFA3
S315020035E0A0F101000028FBD1704700BF1C4B1D4A09
S315020035F01B6800FB01F193420FD302F1854202F5EB
S31502003600071202F68342A2FB03239B0CA3FB0131A2
S315020036104FF0FF30E1B1FFF7E3BF4FF47A7210B417
S31502003620114C4FF0FF30B4FBF3F3A1FB02C434B9E3
S31502003630BCFBF3F080B15DF8044BFFF7D1BFB1FBE1
S31502003640F3F1A1FB0212002AF5D1084620B1F2E7F6
S315020036501846002BDFD170475DF8044B704700BF58
S315020036604821012200127A0000CA9A3B70B5002452
S315020036700D4B0E4EB3F80021B3F82051ADB21540F2
S3150200368025FA04F3DB0704D556F82430E0B203B179
S3150200369098470134102CF3D1034AA2F81051B2F81C
S315020036A020311D42FBD170BD00C00040E020012246
S315020036B00022072310B40748074C30F8021F02F510
S315020036C0C65C013209B144F82C10013BF5D15DF814
S315020036D0044B7047FE5D000200600040EFF310816C
S315020036E0012383F31088124B33F8102092B22AB1C9
S315020036F033F81020013A92B223F8102033F8103032
S315020037009BB293B910B40B4A0B4CB2F8FA3334F8A5
S3150200371010009BB243F4254323EA0003A2F8FA33CE
S3150200372081F310885DF8044B704781F31088704767
S315020037303C21012200E00140105E000230B4EFF3AA
S315020037401081012383F310880E4A32F810309BB29F
S315020037506BB90D4C0D4DB4F8FA3335F810C09BB267
S3150200376043EA0C0343F425439BB2A4F8FA3332F836
S31502003770103001339BB222F8103081F3108830BC2E
S31502003780704700BF3C21012200E00140105E0002AA
S315020037900B4A0346106870B103330A4923F0030348
S315020037A003448B4201D8136070470C22064B4FF03C
S315020037B0FF301A607047054908461160ECE700BF02
S315020037C044210122982201224C210122982201221F
S315020037D000BE704708B500F003F8FFF7AFF9FEE741
S315020037E070B5654B654D6B61BFF34F8FBFF36F8F3E
S315020037F0634A136843F004031360BFF34F8FBFF3AA
S315020038006F8F4FF0E022936843F480339360BFF3E7
S315020038104F8FBFF36F8F4FF470035A4CC5F8883041
S315020038200020AC60FEF74AFAFFF7D6FD0120FEF74C
S3150200383045FA2368A3F5806383F30A885248534AFC
S315020038400021121A00F0C4FE5148524A5249121A75
S3150200385000F0FAFC5149524A5248521AD20842F032
S3150200386009C800BFAFF30080F1E80223E0E80223B3
S315020038700FF007C04C494D4A4D48521AD20842F041
S3150200388009C800BFAFF30080F1E80223E0E8022393
S315020038900FF007C0474B484A0020D21A0021D2082F
S315020038A042F007C0AFF30080E3E802010FF005C063
S315020038B0BFF34F8FBFF36F8F0024C5F85042BFF39B
S315020038C04F8FBFF36F8F3D4B3D4D5B1BA34206DD12
S315020038D09E1055F8043B01349847A642F9DCFFF7DF
S315020038E031FDFFF721FE0320FFF728FF00234FF0EB
S315020038F00C0E1C464EF001E0324903F10C0221F88F
S31502003900224001330FF007C80320FFF7E7FE03202A
S31502003910FFF714FF2C4B03205C609C60DC601C618B
S315020039202A4CFFF7DBFED4F8D8335BB1D4F8D83390
S315020039300220FEF7C3F9FFF7BBFEBDE87040002088
S3150200394000F046B894F81031002BF1D00120FFF7B1
S31502003950F5FE94F8103103F0C003802BF9D1002351
S315020039601A4A84F8103192F810313F2BFBD8012005
S31502003970FFF7B4FEDCE700BF01020E0000ED00E037
S3150200398000E001E0000000029800002298220122D5
S3150200399000000022680000228C630002906300028D
S315020039A0906300020000000000640002006400024E
S315020039B00000002000000020000000206400002219
S315020039C060000022000D40400040204000E001401F
S315020039D0704700BF034611F8012B03F8012B002A9A
S315020039E0F9D170470FB407B5064904AB086853F816
S315020039F0042B8168019300F031F803B05DF804EB03
S31502003A0004B07047040000229368013B002B9360C8
S31502003A1010B408DA9469A34201DB0A2903D15DF8DE
S31502003A20044B00F033B91368581C1060084619702D
S31502003A305DF8044B7047F8B506460F461446D5188E
S31502003A40AC4201D1002007E03A4614F8011B304689
S31502003A50FFF7DAFF431CF3D1F8BDFFFF2DE9F04F64
S31502003A600D469DB014469846064618B1036A0BB930
S31502003A7000F084FC6B6ED90705D4AB899A0502D493
S31502003A80A86D00F026FEAB891B0701D52B699BB9F1
S31502003A902946304600F038F970B16B6EDC0704D562
S31502003AA04FF0FF301DB0BDE8F08FAB899805F7D413
S31502003AB0A86D00F00FFEF3E70023CDF80C804FF05F
S31502003AC00109DFF8B481099320238DF829303023C8
S31502003AD08DF82A3023469A4613F8012B0AB1252A75
S31502003AE0F9D1BAEB040B0BD05B4622462946304687
S31502003AF0FFF7A1FF013000F0A780099A5A44099204
S31502003B009AF80030002B00F09F8000234FF0FF321E
S31502003B100AF1010A049307938DF853301A93CDE9FB
S31502003B20052354460522544814F8011B00F07EFB77
S31502003B30049AD8B9D10644BF20238DF8533013070F
S31502003B4044BF2B238DF853309AF800302A2B15D018
S31502003B50079A544600204FF00A0C214611F8013B01
S31502003B60303B092B4BD9B0B1079214E0A0EB080306
S31502003B70A24609FA03F313430493D2E7039B191DE2
S31502003B801B68002B0391BBBF5B4242F00202079304
S31502003B900793B8BF049223782E2B0AD163782A2B77
S31502003BA032D1039B02341A1D1B6843EAE373039264
S31502003BB00593DFF8D4A003222178504600F036FBA5
S31502003BC038B1A0EB0A004022049B01348240134321
S31502003BD0049314F8011B062228488DF8281000F0D9
S31502003BE025FB00283FD0264B1BBB039B073323F044
S31502003BF0070308330393099B3B4409936AE70CFBCB
S31502003C0002320C460120A8E7002301344FF00A0CC9
S31502003C1019460593204610F8012B303A092A03D992
S31502003C20002BC6D00591C4E70CFB012104460123F3
S31502003C30F0E703AB2A4604A930460093114BAFF3D3
S31502003C4000800746781CD6D16B6ED90705D4AB899E
S31502003C509A0502D4A86D00F03DFDAB895B063FF5DF
S31502003C601FAF09981EE703AB2A4604A93046009304
S31502003C70044B00F011F9E4E7185E0002225E00022E
S31502003C8000000000373A00021E5E0002F8B50E463A
S31502003C901446054618B1036A0BB900F06FFBA36917
S31502003CA0A360A3891A0701D5236943B92146284689
S31502003CB000F02AF818B14FF0FF373846F8BD2368EE
S31502003CC0F6B222693746981A6369834205DC2146B1
S31502003CD0284600F083FA0028EDD1A368013BA360D1
S31502003CE023685A1C22601E70431C62699A4204D0E1
S31502003CF0A389DB07E1D50A2EDFD12146284600F04B
S31502003D006DFA0028D9D0D6E738B5294B05460C46B8
S31502003D10186818B1036A0BB900F030FBB4F90C301D
S31502003D20190722D4DA0607D409222A6043F040038F
S31502003D304FF0FF30A38133E0580712D5616B41B1D2
S31502003D4004F14403994202D0284600F077FC00238E
S31502003D506363A38923F02403A38100236360236999
S31502003D602360A38943F00803A38123694BB9A3897E
S31502003D7003F42073B3F5007F03D02146284600F0F2
S31502003D80CFFCB4F90C3013F001020AD00022A26073
S31502003D9062695242A261226942B913F08000C5D11A
S31502003DA038BD990758BF6269A260F4E70020F7E7B9
S31502003DB0040000222DE9F047164698468A6807460F
S31502003DC00B690C46DDF820909342B8BF1346336068
S31502003DD091F843200AB1013333602368990642BF42
S31502003DE0336802333360256815F0060506D104F1FF
S31502003DF0190AE36832689B1AAB422BDC94F843300B
S31502003E002268003B18BF0123920630D404F1430214
S31502003E1041463846C847013023D023681A3454F83D
S31502003E200A2C03F00603042B0ABF54F80E5C002585
S31502003E3033684FF0000608BFED1A54F8123C08BF6B
S31502003E4025EAE5759342C4BF9B1AED18B5421AD10D
S31502003E50002008E00123524641463846C847013051
S31502003E6003D14FF0FF30BDE8F0870135C1E7E11815
S31502003E705A1C30200233224481F8430094F845103C
S31502003E8082F84310C2E70123224641463846C84714
S31502003E900130E6D00136D9E72DE9FF470F7E91467C
S31502003EA080460C46782F9A460C9E01F1430207D8AB
S31502003EB0622F0AD8002F00F0D180582F00F0B88068
S31502003EC004F1420684F842703AE0A7F16303152B27
S31502003ED0F6D801A151F823F0313F0002453F000216
S31502003EE0C13E0002C13E0002C13E0002C13E0002C6
S31502003EF0453F0002C13E0002C13E0002C13E000231
S31502003F00C13E0002434000026F3F0002FD3F000235
S31502003F10C13E0002C13E000265400002C13E0002EF
S31502003F206F3F0002C13E0002C13E00020540000290
S31502003F3033681A1D1B68326004F1420684F8423067
S31502003F4001239CE033682068191D3160060601D5FD
S31502003F501D6803E04506FBD5B3F90050002D03DAD0
S31502003F602D236D4284F8433058480A2311E0216814
S31502003F703368080653F8045B02D4490648BFADB25B
S31502003F806F2F3360514814BF0A230823002184F897
S31502003F9043106668002EA66005DB21682E4321F0D9
S31502003FA0040121604BD01646B5FBF3F103FB115712
S31502003FB0C75D06F8017D2F460D46BB42F4D9082B94
S31502003FC00BD12368DF0708D5236961689942DEBFF2
S31502003FD0302306F8013C06F1FF36921B22614B465E
S31502003FE003AA21464046CDF800A0FFF7E3FE0130C2
S31502003FF04AD14FF0FF3004B0BDE8F087236843F0A2
S315020040002003236078273248236884F845701F0608
S31502004010316851F8045B02D45F0648BFADB2316025
S31502004020D90744BF43F0200323601DB11023ADE737
S315020040302648E9E7236823F020032360F6E71646BD
S31502004040BDE733682568181D616930602E061B6856
S3150200405001D5196002E06806FBD5198000231646D1
S315020040602361BCE7336800211A1D32601E6862684C
S31502004070304600F0DBF808B1801B6060636823619C
S31502004080002384F84330AAE723693246494640466C
S31502004090D0470130ADD023689B0713D4E068039B59
S315020040A09842B8BF1846A6E701233246494640461B
S315020040B0D04701309DD00135E36803995B1AAB42C4
S315020040C0F2DCEBE7002504F11906F5E7295E0002AA
S315020040D03A5E0002B1F90C202DE9F04116070546B9
S315020040E00C4654D44B68002B02DC0B6C002B48DDCB
S315020040F0E66A002E45D0002312F480522F68216A08
S315020041002B6030D0626DA389590705D56368D21A30
S31502004110636B0BB1236CD21A0023E66A216A284626
S31502004120B047431CA38906D129681D292BD82A4AE0
S31502004130CA40D60727D50022D904626022692260C6
S3150200414004D5421C01D12B6803B96065616B2F60EF
S31502004150B9B104F14403994202D0284600F06EFA3E
S31502004160002363630DE001232846B0470246501C34
S31502004170C9D12B68002BC6D01D2B01D0162B1DD101
S315020041802F60002021E043F040031BB21AE00F69C2
S31502004190002FF6D093070E680F600CBF4B69002301
S315020041A0A6EB07088B60B8F1000FEADD43463A46F4
S315020041B0216A2846A66AB047002808DCB4F90C3002
S315020041C043F040034FF0FF30A381BDE8F08107447E
S315020041D0A8EB0008E7E700BF0100402038B50B69ED
S315020041E005460C4613B90025284638BD18B1036AA0
S315020041F00BB900F0C3F8B4F90C30002BF3D0626EA1
S31502004200D00704D4990502D4A06D00F062FA2846BC
S315020042102146FFF75FFF636E0546DA07E4D4A389FA
S315020042209B05E1D4A06D00F055FADDE7C9B203465D
S31502004230024410B59342184601D1002003E00478E7
S3150200424001338C42F6D110BD0A44431E914200D17D
S31502004250704710B511F8014B914203F8014FF9D19D
S3150200426010BDFFFF002310B5044683608181194605
S315020042704366C28108228361C0E90033C0E9043380
S315020042805C3000F0A5F90D4B246263620C4BA3620D
S315020042900C4BE3620C4B23630C4B9C4206D003F19E
S315020042A06802944202D0D0339C4205D104F15800F0
S315020042B0BDE8104000F00CBA10BD00BF1544000264
S315020042C0374400026F440002934400025021012247
S315020042D0024A0349034800F043B900BF54000022D2
S315020042E0DD4100020800002241680C4B994210B5DC
S315020042F0044601D0FFF772FFA168094B994202D02A
S315020043002046FFF76BFFE168064B994204D0204630
S31502004310BDE81040FFF762BF10BD00BF5021012269
S31502004320B82101222022012210B50B4B04210B4C8D
S315020043300B4A20461A600022FFF794FF04F1680038
S3150200434001220921FFF78EFF04F1D0000222122179
S31502004350BDE81040FFF786BF8822012250210122C4
S31502004360D1420002014800F0B4B900BF8D220122F9
S31502004370014800F0AFB900BF8D22012210B50446F4
S31502004380FFF7F0FF236A1BB1BDE81040FFF7F0BF4D
S31502004390044B2362044B1B68002BF5D1FFF7C4FFC5
S315020043A0F2E700BFE9420002882201220CB4184B50
S315020043B030B50C1E9DB01D6808DA8B234FF0FF3016
S315020043C02B601DB0BDE8304002B070474FF4027357
S315020043D00290069002A9ADF8143014BF04F1FF331F
S315020043E02346209A2846049307934FF6FF73ADF8A7
S315020043F0163021AB019300F02BFA431CBCBF8B2372
S315020044002B60002CDDD0029B00221A70D9E700BF78
S315020044100400002210B50C46B1F90E1000F07CF82B
S315020044200028ABBF636DA3891B1823F48053ACBF6E
S315020044306365A38110BD2DE9F0411F468B890546B0
S315020044400C46DB05164605D502230022B1F90E10ED
S3150200445000F0D6FBA3893246B4F90E10284623F49F
S315020044608053A3813B46BDE8F04100F067B810B522
S315020044700C46B1F90E1000F0C3FB431CA38915BF0D
S31502004480606523F4805343F48053A38118BFA3814C
S3150200449010BDB1F90E1000F0D7BAFFFF164B10B5DA
S315020044A01C68236BB3B9182000F0DEFA02462063BB
S315020044B020B9124B52211248FFF78EF81149124BBE
S315020044C0C0E90013114B002183600B238381012075
S315020044D0C2E90401216B0E480B694C690D4A584327
S315020044E002FB0400A3FB0232013340EB0200C1E9E6
S315020044F0043020F0004010BD040000224B5E000292
S31502004500625E00020E33CDAB34126DE6ECDE0500C0
S315020045102DF451582D7F954C38B50446064D084664
S31502004520114600222A601A46FDF780FF431C02D17B
S315020045302B6803B1236038BD4C21012238B50446ED
S31502004540064D0846114600222A601A46FDF770FFFC
S31502004550431C02D12B6803B1236038BD4C210122D2
S315020045602DE9F8430746884614460026D4E9019504
S31502004570B9F1010905D52468002CF7D13046BDE80A
S31502004580F883AB89012B07D9B5F90E30013303D075
S3150200459029463846C04706436835E9E7884210B5DA
S315020045A001EB020402D98442234607D8431EA142E4
S315020045B008D011F8012B03F8012FF8E7024401464F
S315020045C08A4200D110BD13F8014D02F8014DF7E7FA
S315020045D002440346934200D1704703F8011BF9E7F0
S315020045E02DE9F041074614460D4621B91146BDE8AC
S315020045F0F04100F063BA2AB9254600F01FF82846B2
S31502004600BDE8F08100F01AFB8442064602D8B4EBFC
S31502004610500FF4D82146384600F050FA804608B9C1
S315020046204546ECE7B4422246294628BF3246FFF702
S315020046300BFE2946384600F001F8F1E738B5054683
S31502004640002941D051F8043C0C1F002BB8BFE418D6
S3150200465000F0E8FA1D4A136833B96360146028460D
S31502004660BDE8384000F0E4BAA34208D92068211810
S315020046708B4201BF19685B6809182160EDE71A468B
S315020046805B680BB1A342FAD911685018A0420BD14C
S3150200469020680144501811608342E0D118685B68B3
S315020046A0084453601060DAE702D90C232B60D6E780
S315020046B0206821188B4202BF19685B68091863607B
S315020046C008BF21605460CAE738BD00BF94220122A8
S315020046D070477047704770B50C46B1F90E1096B028
S315020046E0154600291E460CDAA389002113F0800F15
S315020046F014BF40234FF48063002031602B6016B054
S3150200470070BD6A4600F05AFA0028EDDB019901F401
S315020047107041A1F50053594259414FF48063EBE7CA
S315020047208B89F7B59D0706460C4607D504F1470364
S31502004730236023610123636103B0F0BD01AB6A46C6
S31502004740FFF7C9FF009F05463046394600F0B6F925
S3150200475048B9B4F90C309A05EED423F0030343F0BA
S315020047600203A381E2E7A389206043F08003A381C9
S31502004770019BC4E904075BB1B4F90E10304600F0A0
S315020047802FFA28B1A38923F0030343F00103A3817F
S31502004790A3891D43A581CFE72DE9F0471F468E6801
S315020047A082460C46BE4290460B682DD8B1F90C20C3
S315020047B012F4906F26D06569096905EB4505A3EBEE
S315020047C001097B1C05EBD5754B446D109D4238BF24
S315020047D01D46530527D5294600F070F9064660B3F3
S315020047E04A462169FFF730FDA38923F4906343F01B
S315020047F08003A38126614E446561A5EB0905266007
S315020048003E46A560BE4200D93E4632464146206833
S31502004810FFF7C4FEA36800209B1BA36023683344F2
S315020048202360BDE8F0872A46FFF7DAFE064600282F
S31502004830E0D121695046FFF701FF0C234FF0FF300C
S31502004840CAF80030A38943F04003A381E9E7FFFFDA
S315020048502DE9F04F98468B899DB007461B060D46FB
S31502004860144610D50B6973B9402100F027F9286068
S31502004870286130B90C233B604FF0FF301DB0BDE814
S31502004880F08F40236B610023CDF80C804FF00109B5
S31502004890DFF8A081099320238DF8293030238DF883
S315020048A02A3023469A4613F8012B0AB1252AF9D152
S315020048B0BAEB040B0BD05B46224629463846FFF775
S315020048C06BFF013000F0A780099A5A4409929AF8C0
S315020048D00030002B00F09F8000234FF0FF320AF1D8
S315020048E0010A049307938DF853301A93CDE90523F1
S315020048F0544605224F4814F8011BFFF797FC049A09
S31502004900D8B9D00644BF20238DF85330110744BFCF
S315020049102B238DF853309AF800302A2B15D0079A9C
S31502004920544600204FF00A0C214611F8013B303B59
S31502004930092B4BD9B0B1079214E0A0EB0803A246AB
S3150200494009FA03F313430493D2E7039B191D1B6869
S31502004950002B0391BBBF5B4242F00202079307930F
S31502004960B8BF049223782E2B0AD163782A2B32D130
S31502004970039B02341A1D1B6843EAE37303920593F1
S31502004980DFF8C0A0032221785046FFF74FFC38B16A
S31502004990A0EB0A004022049B013482401343049395
S315020049A014F8011B062224488DF82810FFF73EFC56
S315020049B0002836D0214B1BBB039B073323F007038A
S315020049C008330393099B334409936AE70CFB0232CB
S315020049D00C460120A8E7002301344FF00A0C1946C1
S315020049E00593204610F8012B303A092A03D9002BE9
S315020049F0C6D00591C4E70CFB012104460123F0E76A
S31502004A0003AB2A4604A9384600930D4BAFF3008048
S31502004A10421C0646D6D1AB895B063FF52DAF0998F7
S31502004A202CE703AB2A4604A938460093044BFFF74A
S31502004A3033FAEDE7185E0002225E00020000000073
S31502004A40994700021E5E000238B50023054D044652
S31502004A5008462B60FDF7EEFC431C02D12B6803B11E
S31502004A60236038BD4C210122024B0146186800F032
S31502004A7025B800BF0400002270B50F4E0C4605464D
S31502004A80316811B900F0E2F830602146284600F09C
S31502004A90DDF8431C03D14FF0FF34204670BDC41C21
S31502004AA024F00304A042F8D0211A284600F0CEF8DA
S31502004AB00130F2D1EFE700BF902201222DE9F8433F
S31502004AC0CD1C064625F0030508350C2D38BF0C25EE
S31502004AD0002D01DBA94204D90C2333600020BDE876
S31502004AE0F883DFF8D48000F09DF8D8F800301C4631
S31502004AF044BB29463046FFF7BFFF431C044658D144
S31502004B00D8F800402746002F43D1002C4BD023680B
S31502004B103946304604EB030900F098F8814542D144
S31502004B20216830466D1A2946FFF7A6FF01303AD0B2
S31502004B3023682B442360D8F800305A6862BBC8F851
S31502004B4000700FE02268521B20D40B2A17D9611974
S31502004B50A342256018BF5960636808BFC8F80010F1
S31502004B6062514B60304600F063F804F10B00231DDE
S31502004B7020F00700C21A1CBF1B1AA350AFE76268D7
S31502004B80A3420CBFC8F800205A60EBE723466468CC
S31502004B90AEE73C467F68B6E71A465B68A342FBD19E
S31502004BA000235360DEE70C233046336000F040F802
S31502004BB094E70560D6E700BF9422012238B50023A8
S31502004BC0064D0446084611462B60FDF735FC431C8C
S31502004BD002D12B6803B1236038BD00BF4C210122EC
S31502004BE038B50023054D044608462B60FDF726FC22
S31502004BF0431C02D12B6803B1236038BD4C2101222C
S31502004C0038B50446064D0846114600222A601A4661
S31502004C10FDF716FC431C02D12B6803B1236038BD95
S31502004C204C2101220148FFF754BD00BF8C2201220C
S31502004C300148FFF74FBD00BF8C22012251F8043C08
S31502004C40181F002BBCBF0B58C018704738B500237D
S31502004C50054D044608462B60FEF79AFD431C02D119
S31502004C602B6803B1236038BD4C21012208B52DED16
S31502004C70028BB0EE408A00F063FBB4EE488AF1EE96
S31502004C8010FA0FD6B5EEC08AF1EE10FA0AD8B5EED2
S31502004C90408AF1EE10FA08D100F0DAFD22239FEDE8
S31502004CA0090A0360BDEC028B08BD00F0D1FD21228A
S31502004CB003460548BDEC028B1A60BDE8084000F0C9
S31502004CC099B800BF000080FF945C000208B52DED84
S31502004CD0028BB0EE408A00F093F8B4EE488AF1EE09
S31502004CE010FA06D6DFED098AB4EEE88AF1EE10FA7A
S31502004CF002D4BDEC028B08BD00F0AAFD88EEA80A1C
S31502004D0021230360BDEC028B08BD00BF000000003A
S31502004D1010EE103A40F22A41B7EEC02AC3F30A5205
S31502004D208A4232D82E4BB7EE000B93ED487B93EDB9
S31502004D304A1B93ED4C4BB0EE473B93ED4E6BA1EE07
S31502004D40023B93ED505B30B433EE477B13EE102AF1
S31502004D5002F01F0191EE027B03EBC10053F83140D2
S31502004D6000234568181905EBC23130BCA4EE076B67
S31502004D70A5EE070B27EE077BA6EE070B41EC170BFA
S31502004D8020EE070BB7EEC00B704713F5000F20D0CD
S31502004D90B2F5FF6F1AD2DFED137AB4EEE70AF1EE3F
S31502004DA010FA10DCDFED107AB4EEE70AF1EE10FA33
S31502004DB012D4DFED0E7AB4EEE70AF1EE10FAB1D5AF
S31502004DC0002000F08FBA002000F092BA30EE000AFE
S31502004DD070479FED070A7047002000F07DBA00BFBA
S31502004DE0C05E00021772B142B4F1CFC2CF8ECEC2FC
S31502004DF0000000009FED010A704700BF0000C07F5F
S31502004E00B1EEC00A704700BF10EE103AB3F17E5FF2
S31502004E103BD0A3F500011A46B1F1FE4F38D22A4B18
S31502004E20BFEE002B2948134429491840C3F3C34C4B
S31502004E30DB15121A00EE103A03EE902AB8EEC00BFA
S31502004E40B7EEE33A91ED424B91ED447B91ED406B27
S31502004E5091ED465B01EB0C112DED028B91ED008B72
S31502004E6091ED021BA8EE032B30EE010BBDEC028B7B
S31502004E70A4EE027B22EE024BA5EE020BA6EE047B0B
S31502004E80A4EE070BB7EEC00B70479FED120A7047F0
S31502004E90590014D0B3F1FF4F14D0B1F17F4F0AD2AB
S31502004EA0002B08DBDFED0C7A60EE277A17EE903ADC
S31502004EB0A3F13862B3E700EE103A00F031BA0120EE
S31502004EC000F01CBA704700BF0000CDC0000080FF92
S31502004ED008600002000000000000004BFFFFFFFF19
S31502004EE030B510EE104AB7EEC07A83B0C4F30A5357
S31502004EF0B3F57D7F19D2B3F5667F27EE075B6CD3D8
S31502004F0027EE052B6C4B93ED1A3B93ED186B93ED45
S31502004F10164BA5EE036BA2EE047B25EE025BA6EE14
S31502004F20057BB7EEC70B03B030BD40F22E4293426B
S31502004F305BD8614991ED086B91ED0A5B01F1700254
S31502004F4027EE066BFDEEC66B16EE903A03F50003EE
S31502004F501B1606EE903A13F0020FB8EEE66B08BF88
S31502004F600A46D807A6EE457B27EE076B1BD403F04D
S31502004F70030301EBC30192ED1A2B92ED184B92ED4E
S31502004F80163B91ED005B27EE057BA6EE024B27EE64
S31502004F90065BA5EE037B26EE055BA4EE057BB7EE6C
S31502004FA0C70B03B030BD92ED0E2B92ED0C0B26EE25
S31502004FB0065BA6EE020B92ED143B92ED127B92ED8E
S31502004FC0104BA6EE037BA5EE040B26EE056BA7EEB1
S31502004FD0060BB7EEC00B03B030BD14F0FF4FF0EE78
S31502004FE0406A46D0B0EE660ADBE7B3F5FF6F3BD206
S31502004FF0C4F38360314AC4F31603C4F3C25502EB09
S31502005000800152F8202043F40003086AAB40096984
S31502005010A0FB035003FB02F2E3FB010202F1005183
S315020050208D0F01F04041511A05EBD47400F0E2FBFA
S31502005030234B14F0020FA3F170029FED1D6B41EC9E
S31502005040170B08BF1346E90727EE067B27EE076B09
S3150200505014D402EBC40293ED1A2B93ED184B93ED85
S31502005060163B92ED005B8EE703B0BDE8304000F0E0
S3150200507057B9B7EEC55B8DED015AB3E793ED0E1B3B
S3150200508093ED0C7B26EE064BA6EE017B93ED142BDD
S3150200509093ED125B93ED103BA6EE025BA4EE037B4F
S315020050A026EE046BA5EE067BB7EEC70B79E700BFCB
S315020050B0182D4454FB21193C886100022861000224
S315020050C0F8610002FFFFFFFF38B510EE104AB7EE97
S315020050D0C07AC4F30A53B3F57D7F1ED2B3F5667F59
S315020050E027EE077B6FD36A4B27EE071B93ED0E2B3A
S315020050F093ED0C6B93ED143B93ED125BA7EE026BF3
S31502005100A7EE035B27EE017B93ED104BA1EE046B3A
S31502005110A5EE076BB7EEC60B38BD40F22E429342A0
S3150200512054D85B4991ED086B91ED0A5B01F170026F
S3150200513027EE066BFDEEC66B16EE903A03F50003FC
S315020051401B1606EE903A13F0020FB8EEE66B08BF96
S315020051500A46D807A6EE457B27EE076B1AD503F05B
S31502005160030301EBC30192ED1A2B92ED184B92ED5C
S31502005170163B91ED005B27EE057BA6EE024B27EE72
S31502005180065BA5EE037B26EE055BA4EE057BB7EE7A
S31502005190C70B38BD92ED0E2B92ED0C0B26EE065B7D
S315020051A0A6EE020B92ED143B92ED127B92ED104BA2
S315020051B0A6EE037BA5EE040B26EE056BA7EE060B09
S315020051C0B7EEC00B38BDB7EE000A38BDB3F5FF6FB8
S315020051D03DD2C4F383602F4AC4F31603C4F3C25507
S315020051E002EB800152F8202043F40003086AAB4028
S315020051F00969A0FB035003FB02F2E3FB010202F181
S3150200520000518D0F01F04041511A05EBD47400F0A4
S31502005210F1FA214B14F0020FA3F170029FED1A6B03
S3150200522041EC170B08BF1346E90727EE067B27EE6C
S31502005230076B10D504F0030402EBC40293ED1A2B9C
S3150200524093ED184B93ED163B92ED005B93E7BDE8A9
S31502005250384000F065B893ED0E1B93ED0C7B26EEFD
S31502005260064BA6EE017B93ED142B93ED125B93EDA9
S31502005270103BA6EE025BA4EE037B26EE046BA5EEC4
S31502005280067BB7EEC70B38BD182D4454FB21193CDB
S315020052908861000228610002F861000210B52DED56
S315020052A0028BB0EE408A044600F0D2FA0460B0EEF9
S315020052B0480ABDEC028B10BD30B1F1EE407A2220D5
S315020052C027EE800AFFF7EABFF0EE407A222027EEA9
S315020052D0800AFFF7E3BF00BF9FED010AFFF7ECBFAD
S315020052E0000000109FED010AFFF7E6BF0000201A3A
S315020052F09FED010AFFF7E0BF00000070F7EE007AAB
S315020053000028BFEE007A9FED050A4FF0220047FE05
S31502005310877A87EE800AFFF7C1BF00BF0000000050
S31502005320F0EE407A30EE407AF4EE677A87EE070ABC
S31502005330F1EE10FA02D62120FFF7B0BF704700BF88
S3150200534008B510EE103A33F000422DED028B2CD048
S31502005350002B1A4632DBB3F1FF4F41DAB3F5000FE9
S3150200536035DB0021D315C2F316027F3B0B44D90F5E
S3150200537003EBD373C1F17F0107EE903A42EAC153C0
S31502005380B8EEE78A00EE103A00F03CF8DFED176A55
S315020053909FED177A20EE260ADFED167AA8EE070AA7
S315020053A0A8EE270ABDEC028B08BD9FED137ADFED4E
S315020053B0137ABDEC028B87EE270A08BD70EE407A9F
S315020053C09FED0E7ABDEC028B87EE870A08BDDFEDF4
S315020053D00C7A6FF0180160EE277A17EE902AC1E771
S315020053E0BDEC028B30EE000A08BD00BFD95BDE3E83
S315020053F0DB27543580209A3E000000CC00000000D6
S315020054000000004C10EE103AB3F17E5F3BD0A3F5DC
S3150200541000011A46B1F1FE4F38D22A49BFEE000BFF
S3150200542029481144294B0840C1F3C34CC915121A25
S3150200543003EE901A02EE902AB8EEE33BB7EEE22AAA
S3150200544093ED445B93ED467B93ED404B93ED426BBC
S3150200545003EB0C132DED028B93ED008B93ED021BE8
S31502005460A8EE020BA3EE041BBDEC028BA5EE007B9D
S3150200547020EE005B30EE010BA6EE057BA5EE070BD8
S31502005480B7EEC00B70479FED120A7047590014D051
S31502005490B3F1FF4F14D0B1F17F4F0AD2002B08DBD4
S315020054A0DFED0C7A60EE277A17EE903AA3F13862B6
S315020054B0B3E700EE103AFFF733BF0120FFF71EBF36
S315020054C0704700BF0000CDC0000080FF6862000286
S315020054D0000000000000004B81F0004102E000BF26
S315020054E083F0004330B54FEA41044FEA430594EA9C
S315020054F0050F08BF90EA020F1FBF54EA000C55EAD7
