S00F0000534852415659412E73726563F7
S31502000000D02B0D2235660002CD6400023166000255
S315020000103166000231660002316600023166000274
S31502000020000000000000000000000000316600022F
S31502000030316600020000000031660002B13700029C
S31502000040A9520002C1530002995700022958000220
S3150200005005590002D5590002755E00020348044B99
S31502000060834202D0034B03B118477047AC0000220B
S31502000070AC00002200000000064B0749C91A89108D
S3150200008048BF0131491003D0044B0BB10148184750
S31502000090704700BFAC000022AC0000220000000046
S315020000A010B5064C237843B9FFF7D8FF044B13B1BA
S315020000B00448AFF300800123237010BDD80000224C
S315020000C00000000020D9000208B5054B1BB1054906
S315020000D00548AFF30080BDE80840FFF7CDBF00BF7B
S315020000E000000000DC00002220D900022DE9F04FBA
S315020000F02DED088B012A83B0019002EBD27A53DDF3
S3150200010007EE902A17460D46F8EEE7AA4FF00008CA
S315020001104FF000099FED27BA4FEA6A0A0E1D07EE55
S31502000120908ADFED258AB8EEE7AA00242AEE0BAA0A
S31502000130B0EE689ADDF804B046F8049CC5F804905F
S3150200014007EE904AF8EEE77A67EE8A7AC7EEAA9A3F
S31502000150B0EE690A08F0E4F99BED008AF0EE407A07
S3150200016068EE277A39EE279AB0EE690A06ED019A09
S3150200017008F0E2F8FBEC017A20EE270A78EE808A94
S315020001800134A742C5ED018ADAD189EE2A7AC8EE90
S31502000190AA7A08F101080835D04506F1080606EDE7
S315020001A0037A45ED017ABADB03B0BDEC088BBDE8F4
S315020001B0F08F00BFDB0FC9C00000000070B56022DF
S315020001C02DED048B00213E4807F090F928220021EC
S315020001D03C4807F08BF99FED3C9AF6EE008A9FEDBC
S315020001E03B8A3B4DA5F5C06404F1400607F0E4F8EE
S315020001F007EE900AF8EEE77A67EE897A77EEE87A02
S3150200020067EE887AE4EC017AB442EFD1A542EBD1EB
S31502000210402200212E4807F069F99FED2B9AF6EE4F
S31502000220008A9FED2A8A2B4D05F54076A5F130040A
S3150200023007F0C2F807EE900AF8EEE77A67EE897AD7
S3150200024077EEE87A67EE887AE4EC017AAC42EFD18F
S3150200025004F13005B542E9D1302200211E4807F0EB
S3150200026045F99FED199AF6EE008A9FED188A1B4D05
S3150200027005F59076A5F1180407F09EF807EE900AA8
S31502000280F8EEE77A67EE897A77EEE87A67EE887AA9
S31502000290E4EC017AA542EFD11835AE42EAD100224A
S315020002A080EF50600E4B00205A610124A3EC047FBC
S315020002B00C4D0D4928601A600C70BDEC048B70BDA4
S315020002C0D00B0022A80B002200000030CDCC4C3E01
S315020002D00007002270070022400A0022880A002234
S315020002E0900B0022F4000022F8000022F0B52DED5A
S315020002F00C8B0C461546ADF6042D80A9FFF7F6FECB
S315020003002A460DF5C0612046FFF7F0FE4FF0200E9B
S3150200031086EF504F69464EF001E00DF5C06280ABA4
S3150200032093FC009FB3FC209F92FC001FB2FC201F8F
S315020003300AFF5ACD08FF588D02FF526D00FF500D7D
S315020003400CEF48CD06EF406D06EF4C6D06FF546D7F
S31502000350A1EC047F0FF01DC09FED6A7ADDED026A03
S315020003609DED045A9DED008A76EE875A35EE076AB0
S315020003709DED014A9DED033ADDED053AF0EE477A31
S3150200038038EE077ADDED064A75EE835A36EE236AB3
S3150200039037EE047A4FF00A0E75EE855A36EE246A67
S315020003A037EE267A584E6C464EF001E0C6ED015AFB
S315020003B086ED026A86ED007A06ABB3EC017A77EE39
S315020003C0877A0FF007C04FF0090EC6ED037A9FED4C
S315020003D04D7A4EF001E00FABF3EC016A37EE267A66
S315020003E00FF007C0F5EEC07AF1EE10FAB5EEC06A6C
S315020003F086ED047ACCBF86EE277A9FED427AF1EE3D
S3150200040010FA4FF0800ECCBFC5EE867ADFED3D7A4C
S3150200041086ED057AC6ED067A6B46DFED3A8A4EF030
S3150200042001E080AFF3EC017A78EEA78A0FF007C0FD
S31502000430F5EEC08AF1EE10FA61D96D46DFED319A1A
S31502000440F5EC017AF5EEC07AF1EE10FA09DD87EEE7
S31502000450A89AB0EE490A07F005FF29EE009A79EE4E
S31502000460C99AAF42ECD1B1EE0C7AC9EE877AC6EDE3
S31502000470077A012200217F2301A8F0EC017AF4EE2B
S31502000480C87AF1EE10FAC8BF114637FE888A013BD8
S3150200049002F10102F1D107EE901ADFED1C5AF8EED5
S315020004A0E77ADFED186A4FF0800E67EEA57A002331
S315020004B0B0EE666A4EF001E0C6ED087A07EE903AB3
S315020004C0F8EEE77AB4EC017A67EEA57A67EE877AF8
S315020004D076EE876A36EE276A01330FF011C8F5EE1B
S315020004E0C06AF1EE10FACCBFC6EE267ADFED057AC7
S315020004F0C6ED097A0DF6042DBDEC0C8BF0BDDFEDD1
S31502000500017AB4E700000000D00B00220000FA3F97
S31502000510F0B507EE902A2DED048B002AB8EEE79A85
S31502000520ADF60C0D40F35B814FEA820EAEF1040E7E
S315020005304FEA9E0E0DF581630EF1010E1D46F6EE93
S31502000540006A4EF001E01C469700F0EC017AB1EC2D
S31502000550017A77EE877A67EEA67AE4EC017A0FF0F3
S315020005600DC0A7F1040E4FEA9E0E0EF1010E1946BA
S31502000570DFEDC17A4EF001E0FE18B1EC017A77EEBA
S31502000580877A0FF007C087EE898AA6EB030EAEF1D3
S31502000590040EBA4C4FEA9E0E0EF1010E9FEDB67A8C
S315020005A04EF001E0194684ED0A8AF1EC017A67EE13
S315020005B0A77A37EE277A0FF009C087EE090AB5EE59
S315020005C0400AF1EE10FA00F14881F1EEC07AA6EB8C
S315020005D0030EAEF1040E4FEA9E0E0EF1010EC4EDAD
S315020005E00B7A9FEDA57A4EF001E0F5EC017A77EEF3
S315020005F0C87A67EEA77A37EE277A0FF00BC0551E38
S3150200060007EE905AF8EEE79AC7EE298AF5EE408A87
S31502000610F1EE10FAC4ED0C8A00F10A81F1EEE85A05
S31502000620F5EEC05AF1EE10FA40F31281DFED926A4E
S31502000630043F4FEA970E0EF1010E4EF001E0B0EEC6
S31502000640666AB3EC017A37EE487AC7EE257A27EE68
S31502000650A77A27EE277A67EE877A36EE076A76EE6C
S31502000660A76A0FF013C0C6EE897AF0EE086A86EE24
S31502000670097A77EEE67A012A84ED0D7AC4ED0E7ACE
S3150200068040F3D0800DF581630DF20C4103EB82033A
S315020006905B1A043B9B080020013308E051ED027A05
S315020006A0F5EEC07AF1EE10FA10D4013B12D0F1EC5D
S315020006B0017AF5EEC07AF1EE10FAEFDAF5D551EDE0
S315020006C0027AF5EEC07AF1EE10FAEEDB013B00F1AA
S315020006D00100ECD107EE900AF8EEE77A023A87EECD
S315020006E0A97A07EE902A002DC4ED108AB8EEE76AC1
S315020006F084ED0F7A67DD4FEA850EAEF1040E4FEAFE
S315020007009E0E03AB0EF1010E19464EF001E00DF5F9
S31502000710816292ED007A03EB85050DF20C42F0EE52
S31502000720477AB2EC017A77EE677AE1EC017A0FF05A
S315020007300BC0A5EB030EAEF1040E4FEA9E0E0EF1B0
S31502000740010E1A46DFED4C7A4EF001E0B2EC017A68
S3150200075077EE877A0FF007C0ED1AA5F1040E4FEA7D
S315020007609E0E0EF1010EC7EEA96A9FED437A4EF078
S3150200077001E0F3EC017A77EEE67A67EEA77A37EED6
S31502000780277A0FF00BC0F5EEC08AF1EE10FA08DCFC
S31502000790DFED397AC4ED117A0DF60C0DBDEC048B42
S315020007A0F0BDC7EE067A87EEA80AB5EE400AF1EE6C
S315020007B010FA5BD4F1EEC07AC4ED117A0DF60C0D87
S315020007C0BDEC048BF0BDDFED2C7AF4EEE78AF1EE98
S315020007D010FADDDD87EE867A87EE280AEAE7551EED
S315020007E007EE905A9FED247AF8EEE79AC7EE298A29
S315020007F0F1EEE86AC7EE097AF4EEC76AB1EEE76A85
S31502000800F1EE10FA1D4CC4ED0A7AC4ED0C8A84EDA1
S315020008100B6A0ADDB0EE087AC4ED0D7A77EEC77A76
S31502000820C4ED0E7ADFED147A58E7F0EE477A22E746
S31502000830B0EE680A019207F077FCB5EEC00AF1EE57
S3150200084010FAF0EE405A019A0DF581633FF7EEAECB
S315020008509FED097AF0EE477A0DE7019207F064FC04
S31502000860019AF0EE407A0DF58163B0E607F05CFC82
S31502000870F0EE407A8EE700BF00000000D00B0022A7
S3150200088000B52DED028B002A85B05EDDDFED356AFF
S315020008909200A2F1040E4FEA9E0E0EF1010E4EF0E8
S315020008A001E0B0EE660AB0EE668AB0EC017AF1ECCF
S315020008B0017A27EE076A27EE277A67EEA77A30EEE5
S315020008C0060A38EE078A76EEA76A0FF013C020EE04
S315020008D0260AB5EE400AF1EE10FA3DD4F1EEC07AE0
S315020008E0F5EEC07AF1EE10FA2FDDC8EE276AF7EEC2
S315020008F0007AB0EEE66AB6EE007A77EEC67A67EE70
S31502000900877A194B9FED195A93ED027AD3ED035A62
S31502000910CDED037A77EE257A77EE857ACDED006A0C
S31502000920C7EE276A85EEA77A66EE866A67EE067ACC
S31502000930CDED016ACDED027A9DED007F83ED127F4A
S3150200094005B0BDEC028B5DF804FB9FED066AF6EE80
S31502000950007AF0EE466AD4E707F0E6FBF0EE407A5C
S31502000960BEE700BF00000000D00B0022BD3786356F
S3150200097010B52DED028B144CDFED147A94ED0C8A32
S3150200098068EE277AF5EEC07AF1EE10FA0EDC9FEDEC
S31502000990100AF7EE007A38EE278A87EE887A84ED17
S315020009A0160A84ED177ABDEC028B10BD94ED0B0A84
S315020009B020EE000A80EE270A07F086FBF2EE047AA2
S315020009C020EE270AE5E700BFD00B0022CDCCCC3DB6
S315020009D0000000002DE9F04F03462DED028B93ED4A
S315020009E0047FBBB08DED267F93ED087F93ED0C5F00
S315020009F08DED2A7F93ED007F8DED2E5F8DED227FAB
S31502000A0093ED105F93ED147F0C4612A90D468DED02
S31502000A10325F8DED367FDFF850C122A83AAF0CF176
S31502000A204006A7EB000EAEF1040E4FEA9E0E0EF143
S31502000A30010E02464EF001E09CED007AACF5C06371
S31502000A400CF1040C9846F2EC017AD8ED006A67EED6
S31502000A50A67A403337EE277A0FF00DC0B5EEC07A8C
S31502000A60F1EE10FAD8BF9FED3D7AB445A5EC017AB6
S31502000A70D7D106A806463A4D01F14007A7EB010E6B
S31502000A80AEF1040E4FEA9E0E0EF1010E0A464EF02C
S31502000A9001E095ED007AA5F5407304359C46F2EC2B
S31502000AA0017ADCED006A67EEA67A303337EE277AF2
S31502000AB00FF00DC0B5EEC07AF1EE10FAD8BF9FED79
S31502000AC0277AA6EC017A8E42D8D16E46354625495A
S31502000AD04FF00C0E02464EF001E091ED007AA1F5C0
S31502000AE0907304311F46F2EC017AD7ED006A67EE85
S31502000AF0A67A183337EE277A0FF00DC0A5EC017AE5
S31502000B008542E5D1274625469FED148A04F1180849
S31502000B10B6EC010A07F02AFBA5EC010AA84538EE55
S31502000B20008AF5D1B5EEC08AF1EE10FA11DDA8EB16
S31502000B30040EAEF1040E4FEA9E0E0EF1010E4EF0B9
S31502000B4001E097ED007AC7EE087AE7EC017A0FF03A
S31502000B5009C03BB0BDEC028BBDE8F08F000000007F
S31502000B60400A0022900B00220007002201220021E7
S31502000B700523F0EC017AB0EC017AF4EEC77AF1EED5
S31502000B8010FA48BF114648BFF0EE477A013B02F120
S31502000B900102F0D1C8B27047037E012B1BD0022B93
S31502000BA00BD190ED027AF6EE087AB4EEE77AF1EE20
S31502000BB010FACCBF012000207047032B17D190ED0D
S31502000BC0037ADFED0C7AB4EEE77AF1EE10FACCBFD7
S31502000BD001200020704790ED017ADFED077AB4EE2E
S31502000BE0E77AF1EE10FACCBF012000207047002010
S31502000BF0704700BFCDCC4C3F3333333FFFFFFFFF7F
S31502000C002DE9F04F2DED048B6F4889B006F0E0F91F
S31502000C109FED6E9ADFED6E8A4FF0000B6D4E6E4CB5
S31502000C20DFF8FCA1DFF8FC91DFF8FC816B4D6C4F1D
S31502000C30284606F0CDF94FF0FF31306802F06AFF20
S31502000C40014618B1674805F0F5FDF1E7384606F0AA
S31502000C50BFF907AA06A905A804F04EFA002840F033
S31502000C6094800799604805F0E5FDDDE906120598CE
S31502000C70FFF73CFB5D4806F0ABF9DDE90612059885
S31502000C80FFF746FC5A4806F0A3F9DDE90612059875
S31502000C90FFF7F6FD574806F09BF994ED0C8A68EECD
S31502000CA0097AF5EEC07AF1EE10FA7CDC00EE10BAA3
S31502000CB0F7EE007A38EE278A87EE887A4E4884ED78
S31502000CC0177A84ED160A06F083F994ED037AB4EEE8
S31502000CD0E87AF1EE10FAD4ED025A5FDC9FED386B3A
S31502000CE0B7EEC77A8DED026BB7EEE56A8DED007B46
S31502000CF053EC162B414805F09DFD94ED0C7AD4ED8C
S31502000D000B5A94ED0F6AB7EEC77AB7EEC66A8DED47
S31502000D10007BB7EEE57A8DED026B53EC172B384864
S31502000D2005F088FD94ED137AD4ED125A94ED146A07
S31502000D30B7EEC77AB7EEC66A8DED007BB7EEE57AF7
S31502000D408DED026B53EC172B2E4805F073FD012136
S31502000D50DAF8000002F010FF2B4806F039F92B48AA
S31502000D6006F036F94FF0FF31D9F8000002F0D2FE54
S31502000D7078B9274806F02CF90121D8F8000002F0CC
S31502000D80FBFE244806F024F952E7234806F020F930
S31502000D904EE70146214805F04DFDEDE785EE876AEF
S31502000DA0B7EEC66A9CE794ED0B0A20EE000A80EEC7
S31502000DB0270A07F089F9F2EE047A20EE270A77E786
S31502000DC00000000000000000108D0002CDCCCC3DDA
S31502000DD0BD3786352C190D22D00B00223C8D000220
S31502000DE0B08D0002788D0002E08D00021C8E00029A
S31502000DF0488E0002788E0002A48E0002D48E000273
S31502000E00248F00026C8F0002BC8F0002F48F000256
S31502000E102C90000288900002B890000254900002C2
S31502000E2028190D2218190D221C190D222DE9F04F31
S31502000E302DED048B85B0FFF7C1F938B1AD4806F048
S31502000E40C7F84FF47A7002F0ADFDFAE7AA4806F049
S31502000E50BFF8DFEDAA9A9FEDAA9ADFEDAA8A9FED67
S31502000E60AA8AAA4EDFF8FC92A94DDFF8FC82A94FA6
S31502000E70DFF8F8A24FF0FF31306802F04BFE04466D
S31502000E800028F7D1A44806F0A3F83A6A97F8243066
S31502000E90110E03F00F00C2F3036242EA000C1CF0CB
S31502000EA0080FDBB200F0D68013F0080F00F01A81AB
S31502000EB04FF0030B03F007030BFA03FB0B0740F19A
S31502000EC00E81032301F007018B40D9F8002002FBB3
S31502000ED00BFBBBFBF3FB8E499048FFF77BFD95EDC1
S31502000EE0006AAAFB0B3B01220523F0EE467A8C49E7
S31502000EF04FEA9B1BB1EC017AB4EEE77AF1EE10FAF7
S31502000F00C8BF144677FE277A013B02F10102F1D1EE
S31502000F10D5ED016AB7EEC64AB7EE007AD5ED047A88
S31502000F2066EE095A53EC142B95ED025AB7EEE64AD1
S31502000F3067EEA97A77EE666A77EEA57A37EE457A94
S31502000F4066EEA86A27EE087A77EEA67A77EE877AB1
S31502000F50B7EEE76A21468DED004B8DED026B7148C7
S31502000F60C5ED077A2C7605F065FC2B7E012B00F089
S31502000F709380022B40F0828095ED027AF6EE087A93
S31502000F80B4EEE77AF1EE10FACCBF012100213A6AFB
S31502000F9085F8241097F82430C2F3036403F00F0C8B
S31502000FA044EA0C0E1EF0080FD8B24FEA1262D9F8C4
S31502000FB000305FD010F0080F00F089804FF0030C6C
S31502000FC000F007000CFA00F012F0080F7CD00324A0
S31502000FD002F0070204FA02F203FB00F0B0FBF2F39E
S31502000FE0AAFB0323CBEB9312D8F800302A62013313
S31502000FF0C8F80030002934D04B4805F0E9FF4B4BC6
S315020010000121186802F0B8FD494B0121186802F067
S31502001010B3FD484805F0DCFF474B4FF0FF31186837
S3150200102002F078FD0146002855D1444805F0D0FF6C
S31502001030D8F800304249434A01FB03F3B2EB730F7F
S3150200104036D2414B0121186802F096FD3F4805F061
S31502001050BFFF0FE7D9F8003003FA00FB2BFA02FBB9
S3150200106039E73B4805F0B4FF334B0121186802F01B
S3150200107083FDDDE703FA0CF3E340B1E7032B36D138
S3150200108095ED037ADFED337AB4EEE77AF1EE10FAF4
S31502001090CCBF012100217AE795ED017ADFED2E7AA8
S315020010A0B4EEE77AF1EE10FACCBF012100216EE729
S315020010B0D5ED077AB7EEE77AD8F8001053EC172B7E
S315020010C0264805F0B7FBBCE70122A24084E70120CF
S315020010D000FA0CF078E7224805F0ACFBA8E70123FA
S315020010E09340F2E64FF0010B0BFA00FBE6E6002115
S315020010F04DE700BFEC90000228910002CDCCCC3E19
S315020011009A99993ECDCC4C3ECDCCCC3D28190D2298
S31502001110A80B002200E0014058910002D00B0022E9
S31502001120AC0B002298910002EC91000224190D22C8
S3150200113020190D223092000214190D226492000227
S31502001140CDCCCCCC9999991918190D223493000259
S31502001150B4920002CDCC4C3F3333333FF4920002BB
S3150200116088920002D0250D22F4000022D34D62108F
S3150200117010B590B10B4B1B787BB184464FF0000E35
S31502001180094C0FCCACE80F000FCCACE80F0094E88A
S3150200119003008CE80300704610BD4FF0020E704645
S315020011A010BD00BFF8000022A80B002230B108B51E
S315020011B06022034905F0CEFF002008BD02207047D9
S315020011C0D00B0022037E022B0ED0032B02D0012B62
S315020011D016D07047DFED107A90ED037AB4EEE77A17
S315020011E0F1EE10FA16DC704790ED027AF6EE087A06
S315020011F0B4EEE77AF1EE10FAF5DD184602F042BADD
S31502001200DFED067A90ED017AB4EEE77AF1EE10FAA6
S31502001210F3DC704702F064BACDCC4C3F3333333F34
S3150200122038B54FF4996200211F4806F05FF91F4B4B
S315020012301A6A93F82410C2F3036C01F00F001C4BD8
S315020012404CEA000425071B6812D5C9B20C074FEAFF
S3150200125012621ED401218140100721D5032002F01B
S31502001260070200FA02F201FB03F3B3FBF2F302E018
S31502001270834023FA0CF301220E490F4DA1FB0313FF
S31502001280094C0E499B092B6084F8C0240A70002081
S3150200129038BD032001F0070100FA01F11007DDD481
S315020012A0012202FA0CF2DEE7380C002200E00140CD
S315020012B0D0250D22D34D6210300C0022340C0022B0
S315020012C070B503462DED088B93ED20BA93ED21AA56
S315020012D093ED229A93ED238AB7EECBBAB7EECAAA5A
S315020012E0B7EEC99AB7EEC88A9EB093ED240A93ED7B
S315020012F0251A93ED262A93ED273A93ED284A93ED84
S31502001300295A93ED2A6A93ED2B7A8DED04BB8DED66
S3150200131006AB8DED089B8DED0A8B03F12006009638
S3150200132093F8B0C01C4DBCF1000F1C4C18BF2C46E4
S31502001330B7EEC00AB7EEC11AB7EEC22AB7EEC33A83
S31502001340B7EEC44AB7EEC55AB7EEC66AB7EEC77A63
S31502001350D3F8B4501C9403F140040194084603F1F7
S31502001360600411460E4A8DED0C0B8DED0E1B8DEDB4
S31502001370102B8DED123B8DED144B8DED165B8DED25
S31502001380186B8DED1A7B1D95029405F09DFF1EB01C
S31502001390BDEC088B70BD00BF649300026C93000223
S315020013A074930002F0B5ADF5805D87B005466427FB
S315020013B005F082FF012441F22E6CA826CDE9027CBB
S315020013C0C023284ACDE904054FF48051CDE90064D3
S315020013D006A805F079FF4FF47A71322005F036F847
S315020013E04FF47A71322005F031F81F4A1F49136A09
S315020013F092F82400D1F8B424C3F30365224400F022
S315020014000F0CC1F8B4241A0E45EA0C031F0713D5B4
S31502001410C0B2060743BF032300F00700834004FA65
S315020014200CF3100718D40122AA401148006800FBE9
S3150200143003F3B3FBF2F304E00D4B1B6803FA0CF360
S31502001440EB4000200B4AA2FB03239B09C1F8BC34E4
S315020014500DF5805D07B0F0BD032002F0070200FA29
S3150200146002F2E2E75C95000200E00140380C00223D
S31502001470D0250D22D34D62102DE9F04F2DED028BB2
S31502001480ADF6943DFFF7CCFE00286ED10CA802F013
S3150200149001FF20B99DF83030022B00F08B81B54B4D
S315020014A0DFF808A3039364AB0B93B34BB34C0693D9
S315020014B03AAB09933EAB0A9346AB04934EAB059304
S315020014C056AB07935CAB0DF150081EAF36AE0893D0
S315020014D00DF56479002541F2883002F063FA0CA812
S315020014E002F0D8FE0028F6D19DF83030022B45D006
S315020014F0002DEFD0A24ADAF80030106A92F82420C2
S31502001500C0F3036102F00F0541EA050C1CF0080F57
S315020015104FEA1060D2B200F0D48112F0080F00F048
S31502001520DB81032502F0070205FA02F2050740F104
S31502001530D881032100F00700814002FB03F3B3FBCD
S31502001540F1F3904A0B9DA2FB03239B090093039B95
S315020015504FF400711B68284601938B4A8B4B05F0AA
S31502001560B3FE2846FFF71EFFB4E74FF47A7002F087
S3150200157019FA4FF47A7002F015FAF6E7002D00F028
S3150200158034819FED838ADFF8FCB147F2305002F0D6
S3150200159009FA4046FFF7ECFDC0B9C446D4F8B05488
S315020015A07C4BA3FB05239B0803EB4303A5EB4305F7
S315020015B005EB850504EBC505BCE80F000FC5BCE8C5
S315020015C00F000FC59CE8030085E803003846FFF7C5
S315020015D0EDFDD4F8B05480B96F486022A0FB053007
S315020015E0C00800EB8000A5EB400000EB400004EBD6
S315020015F040103946F03005F0ADFD0135C4F8B0545F
S31502001600002D00F0AE803546A8220021099805F08B
S315020016106DFFDFF89CC1BCE80F000FC5DCF8003097
S3150200162020212B70039B5D4A1B680A9805F04CFE2D
S31502001630049D069BDFF848C10FCB85E80F00DCF856
S3150200164020009CF82430C0F3036103F00F0541EA41
S31502001650050212074FEA1060DBB240F127811A0732
S3150200166040F12C81032203F007039A40030740F15D
S315020016702281032300F007008340DAF8001001FB01
S3150200168002F2B2FBF3F2ABFB0230454B4549A3FB38
S315020016900232404B520DA3FB02531B09800903EB96
S315020016A04303A2EBC303A1FB00525209A1FB025161
S315020016B04909C1EB0111A2EB8101C2EB0212A0EBB7
S315020016C082000091384A20210190059805F0FCFD20
S315020016D0D7ED177A82EF542FB2EE046A98ED005FC7
S315020016E098ED047A04FF524D27EE067AF4EEC87A94
S315020016F04FF4FA7397ED001FF1EE10FAF6EE006A58
S3150200170074EE077AC6F8B430089B67EEA67A83EDC4
S31502001710001F3B694FF40062C6F8A830BB6D49460C
S31502001720C6F8AC30079B304683ED005F4CBF012301
S31502001730002386ED247AC6ED257A86F8B030032595
S31502001740FFF7BEFD4846FFF72DFE50B1D4F8B83478
S315020017504FF47A700133C4F8B83402F023F9013D2C
S31502001760F0D10CA802F096FD00287FF40EAF0125F9
S31502001770BAE600BF300C0022CC960002380C0022DA
S3150200178000E00140D34D62103C9600029C96000296
S315020017903333333FABAAAAAACDCCCCCCC096000237
S315020017A0B17C219589888888DC960002D0250D2295
S315020017B0AC960002544BDFF86CA1039364AB0B9317
S315020017C0524B534C06933AAB09933EAB0A9346AB44
S315020017D004934EAB059356AB07935CAB0DF15008E1
S315020017E01EAF36AE08930DF564794A4BDAF800203F
S315020017F0196A93F82450C1F3036005F00F0340EA17
S31502001800030C1CF0080F4FEA1161EDB260D015F01F
S31502001810080F6AD0032305F00705AB400D0769D50B
S31502001820032001F0070100FA01F102FB03F3B3FB07
S31502001830F1F339493748A1FB031303999B090B605E
S31502001840016A90F82400C1F3036500F00F0C45EA23
S315020018500C0E1EF0080F4FEA1161C0B234D010F020
S31502001860080F4DD04FF0030C00F007000CFA00F001
S3150200187011F0080F41D0032501F0070105FA01F125
S3150200188002FB00F0B0FBF1F20193234B0B9DA3FB8D
S3150200189002239B0900934FF4007128461F4B204AEE
S315020018A005F012FD2846FFF77DFD6AE6DAF800200C
S315020018B0AA40CA40E7E601238B40DEE60122AA409F
S315020018C0D4E6AB40CB403CE602FA0CF2EA40DBE758
S315020018D002FA03F3C340ACE70122AA4005073FF52B
S315020018E028AE012000FA01F127E6012505FA03F3E5
S315020018F00D0795D40121814097E70121A940BFE751
S31502001900012000FA0CF0B3E7300C0022CC9600025C
S31502001910380C002200E00140D34D62102C960002E2
S315020019203C960002D0250D222DE9F041002286B018
S3150200193040F20C41324804F0CFF800230193019B98
S31502001940B3F5966F07D200BF019B01330193019B4A
S31502001950B3F5966FF7D34FF00008072640F6B73473
S315020019604546274F0395039BA34206D800BF039B18
S3150200197001330393039BA342F8D9012240F20C419F
S31502001980384604F0A9F80295029BA34206D800BF86
S31502001990029B01330293029BA342F8D940F20A4109
S315020019A038460DF1030204F085F89DF80330012B49
S315020019B004D1B34048EA03035FFA83F80595059B11
S315020019C0A34206D800BF059B01330593059BA3429C
S315020019D0F8D9002240F20C41384604F07DF804950D
S315020019E0049BA34206D800BF049B01330493049BC5
S315020019F0A342F8D9013EB5D2404606B0BDE8F08111
S31502001A0000250D2200B51D4883B005F0E1FA052236
S31502001A1040F20D411A4804F049F9024618B110463F
S31502001A2003B05DF804FB042240F20C41144804F0B2
S31502001A303DF902460028F2D1042240F20B41104839
S31502001A4004F034F902460028E9D140F20A410C4872
S31502001A5004F02CF902460028E1D10146084804F0B8
S31502001A6025F902460028DAD10190064805F0B0FAB7
S31502001A70054805F0ADFA019AD1E700BFFC960002CF
S31502001A8000250D22389700028C9700022DE9F041BD
S31502001A90002284B0074640F20C412B4804F01CF8A1
S31502001AA000230093009BB3F5966F07D200BF009BFD
S31502001AB001330093009BB3F5966FF7D307240026F4
S31502001AC041F26F78204D47FA04F240F20B41284664
S31502001AD002F0010204F000F80396039B434506D880
S31502001AE000BF039B01330393039B4345F8D90122AD
S31502001AF040F20C41284603F0EFFF0296029B434553
S31502001B0006D800BF029B01330293029B4345F8D9D4
S31502001B10002240F20C41284603F0DEFF0196019BAB
S31502001B20434506D800BF019B01330193019B434500
S31502001B30F8D9013CC7D2002240F20B41024804B058
S31502001B40BDE8F04103F0C8BF00250D222DE9F04F94
S31502001B5000258BB08246A54801912E4605F038FA3B
S31502001B602F46DFF8F082002240F20D41404603F094
S31502001B70B3FF42F6DF620597059B934206D800BF84
S31502001B80059B01330593059B9342F8D91220FFF773
S31502001B907DFF45F6BF520697069B934206D800BFC5
S31502001BA0069B01330693069B9342F8D90424FFF75A
S31502001BB0BBFE013C40EA0525F9D1012240F20D4166
S31502001BC0404603F089FF45F6BF520494049B9342B4
S31502001BD006D800BF049B01330493049B9342F8D9B1
S31502001BE06B1E033340F2E280022E0BD001363146E1
S31502001BF003227F4804F01EFE4FF47A71012004F09E
S31502001C0025FCB0E703217B4804F014FE7A4805F070
S31502001C10DFF94FF0FF354FF0000B00234EF65F223F
S31502001C200393039B934206D800BF039B013303939E
S31502001C30039B9342F8D90027704805F0C9F9B846C4
S31502001C40DFF81092002240F20D41484603F044FFAD
S31502001C5042F6DF62CDF82080089B934206D800BF89
S31502001C60089B01330893089B9342F8D91420FFF787
S31502001C700DFF45F6BF52CDF82480099B934206D844
S31502001C8000BF099B01330993099B9342F8D90326A6
S31502001C90FFF74AFE013E40EA0424F9D1012240F24E
S31502001CA00D41484603F018FF45F6BF520796079BBB
S31502001CB0934206D800BF079B01330793079B9342C3
S31502001CC0F8D944F07F4314F4000F18BF1C46631E74
S31502001CD003331ED9022F0BD0013739460322484857
S31502001CE004F0A8FD4FF47A71012004F0AFFBA9E7D6
S31502001CF00321444804F09EFD434805F069F9BBF10F
S31502001D00000F00F0CA80019BCAF800503F481D60D0
S31502001D105DE03F4922460B683E4801330B6021468F
S31502001D2004F088FDBBF1000F4CD0019BCAF80050AD
S31502001D301C60394C394805F04BF9D4E900320133BD
S31502001D4023603749374F03FB01F13748B7EB311FA1
S31502001D50056815D3A3B1354F05F5FA75396871B122
S31502001D60691A07EE901A9FED326AF8EE677ADFED8E
S31502001D70316A87EE867AC6EE877AC4ED057A3D60C9
S31502001D802D492E4FA1FB0313B2EB131F34BF0121C2
S31502001D9000213B6805F5FA75294AEB1A934205605C
S31502001DA0217659D830460BB0BDE8F08F254A294630
S31502001DB013682548013313602A4604F03BFD4FF0B1
S31502001DC0010B2AE7019B2148CAF800401C6005F076
S31502001DD0FFF81F48104C0168D4E901230131013391
S31502001DE00132A360626023680160AAE7889C000250
S31502001DF0409D0002E49C0002189D0002649D0002C0
S31502001E00209E0002C49D0002F89D0002809E0002F0
S31502001E1070110D22989D000278110D22449E000237
S31502001E20D578E9269BC42000001100220411002265
S31502001E30002474490000FA44CDCCCCCC081100220F
S31502001E403F420F0074110D22B89C0002C49E00028C
S31502001E5068110D2200250D22DFF89C90DFF89C8088
S31502001E60D9F800101E48D8F8002004F0E3FCD9F88F
S31502001E700030D8F800209B1A002BB8BF5B42642BB7
S31502001E8021DCD4ED057AF5EEC07AF1EE10FA12DC19
S31502001E9030463D600BB0BDE8F08F019BCAF800B03A
S31502001EA01048C3F800B005F093F80F4805F090F813
S31502001EB04FF4CD7676E7B7EEE77A0C4853EC172B5C
S31502001EC004F0B8FCE4E70A4B0A481A6801321A60C1
S31502001ED0D9F80010D8F800201B6804F0ABFCD0E754
S31502001EE0789F0002089F00023C9F000204A00002A5
S31502001EF06C110D22BC9F000274110D2270110D226D
S31502001F0030B5002287B005460C462E4840F20D41F8
S31502001F1003F0E2FD002342F6DF620593059B93423E
S31502001F2006D800BF059B01330593059B9342F8D95A
S31502001F3045F04000FFF7AAFD002342F6DF62049354
S31502001F40049B934206D800BF049B01330493049B6F
S31502001F509342F8D90020FFF799FD002342F6DF628B
S31502001F600393039B934206D800BF039B013303935B
S31502001F70039B9342F8D92046FFF788FD002342F6D9
S31502001F80DF620293029B934206D800BF029B013393
S31502001F900293029B9342F8D9012240F20D4109486D
S31502001FA003F09AFD002345F6BF520193019B93422B
S31502001FB006D800BF019B01330193019B9342F8D9D6
S31502001FC007B030BD00250D22F0B511219BB00120CE
S31502001FD0FFF796FFB04804F0FBFFB04804F0F8FFA5
S31502001FE0AF4804F0F5FFAF4804F0F2FF00240021E9
S31502001FF00025AD4B4FF45022A3F55020C3E900450E
S315020020001972D96005F072FA4FF48041A74804F0BC
S3150200201011FCA74804F0DCFFFFF7F4FC0446002895
S3150200202040F05483A34804F0D3FFA34804F0D0FF42
S31502002030A24804F0CDFF4FF47A71142004F006FA98
S315020020409F4804F0C5FF4FF47A71322004F0FEF97E
S315020020509C4804F0BDFF9C4804F0BAFF9B4804F07C
S31502002060B7FF224640F20D41994803F035FD02942E
S31502002070984A029B934206D800BF029B0133029301
S31502002080029B9342F8D940F20D410DF106029048A7
S3150200209003F010FD9DF806208F4B002A8F499048C9
S315020020A008BF194604F0C6FB012240F20D418848DA
S315020020B003F012FD00230393864A039B934206D83C
S315020020C000BF039B01330393039B9342F8D940F26B
S315020020D00D410DF106027E4803F0ECFC9DF8062048
S315020020E07D4B012A7D497F4808BF194604F0A2FBB1
S315020020F09DF80630012B40F0FF827B4804F068FF12
S31502002100042240F20A41724803F0D0FD002240F256
S315020021100A416F4803F0E0FC002304936D4A049BD6
S31502002120934206D800BF049B01330493049B934257
S31502002130F8D940F20A410DF10702654803F0BAFCEC
S315020021409DF80720644B002A6449684808BF19466F
S3150200215004F070FB012240F20A415D4803F0BCFC28
S31502002160002305935B4A059B934206D800BF059B55
S3150200217001330593059B9342F8D940F20A410DF1CA
S315020021800702534803F096FC9DF80720524B012A9A
S315020021905249574808BF194604F04CFB002240F248
S315020021A00A414B4803F082FD00230693514A069BDF
S315020021B0934206D800BF069B01330693069B9342C1
S315020021C0F8D940F20A410DF10702414803F072FCC8
S315020021D09DF80720484B012A4849494808BF194635
S315020021E004F028FB474804F0F3FE474804F0F0FEEB
S315020021F0464804F0EDFE464804F0EAFE002240F2AC
S315020022000D41334803F068FC002342F6DF620A936D
S315020022100A9B934206D800BF0A9B01330A930A9B84
S315020022209342F8D90620FFF731FC002342F6DF621B
S315020022300993099B934206D800BF099B0133099370
S31502002240099B9342F8D9012240F20D41204803F03E
S3150200225043FC002342F6DF620893089B934206D8AA
S3150200226000BF089B01330893089B9342F8D929487B
S3150200227004F0AEFE4FF47A71322004F0E7F82648F5
S3150200228004F0A6FE254804F0A3FE00230793244A81
S31502002290079B93424DD845E05CA000028CA0000249
S315020022A0D0A000021CA1000258110D2258A1000262
S315020022B088A1000238970002ECA1000234A20002B3
S315020022C058A2000290A20002C0A20002FCA20002D2
S315020022D000250D22BFD4010030A0000238A0000262
S315020022E020A300023CA3000288A30002BCA30002B2
S315020022F0D0A30002BF27090040A000024CA00002A2
S31502002300E8A3000200A4000230A4000270A40002A6
S31502002310B0A4000278980002E4A4000214A5000208
S315020023207F4F120000BF079B01330793079B93421F
S31502002330F8D90021AC4804F07DFA002240F20D41A2
S31502002340AA4803F0C9FB002342F6DF620B930B9BFC
S31502002350934206D800BF0B9B01330B930B9B934210
S31502002360F8D92020FFF792FB002342F6DF620C9396
S315020023700C9B934206D800BF0C9B01330C930C9B1B
S315020023809342F8D90020FFF781FB00234EF65F2225
S315020023900D930D9B934206D800BF0D9B01330D93FF
S315020023A00D9B9342F8D9FFF7BFFA002342F6DF628C
S315020023B00E930E9B0546934206D800BF0E9B013331
S315020023C00E930E9B9342F8D9012240F20D418748A3
S315020023D003F082FB002345F6BF520F930F9B9342F5
S315020023E006D800BF0F9B01330F930F9B9342F8D978
S315020023F02A4600217E4804F01DFA29467D4804F04B
S3150200240019FA012D00F07C81FF2D00F0E7812946A3
S315020024100025794804F00EFA784804F0D9FD784888
S3150200242004F0D6FD774F784B784A7949794E7A4847
S31502002430C3E90155C3E90355C3E905551D603D606E
S3150200244035600D60156004F0C3FD29460320FFF7D1
S3150200245057FD83210420FFF753FD04210520FFF7D2
S315020024604FFD01210620FFF74BFD04211520FFF742
S3150200247047FD23211620FFF743FD684804F0A8FD17
S31502002480674804F0A5FD674804F0A2FD2A4640F21B
S315020024900D41564803F020FB45F6BF521295129B9A
S315020024A0934206D800BF129B01331293129B9342AA
S315020024B0F8D90220FFF7EAFA00234EF65F221393B9
S315020024C0139B934206D800BF139B01331393139BAE
S315020024D09342F8D9012240F20D41444803F0FCFA36
S315020024E04FF47A71642003F0B1FF4F4804F070FD97
S315020024F0002240F20D413D4803F0EEFA002345F674
S31502002500BF521493149B934206D800BF149B013307
S315020025101493149B9342F8D90420FFF7B7FA0023C9
S315020025204EF65F221593159B934206D800BF159B64
S3150200253001331593159B9342F8D9012240F20D41BE
S315020025402A4803F0C9FA4FF47A71322003F07EFF6B
S31502002550364804F03DFD002240F20D41234803F0C7
S31502002560BBFA002345F6BF521693169B934206D832
S3150200257000BF169B01331693169B9342F8D9082087
S31502002580FFF784FA00234EF65F221793179B9342B6
S3150200259006D800BF179B01331793179B9342F8D9AE
S315020025A0012240F20D41114803F096FA4FF47A7176
S315020025B0642003F04BFF1E4804F00AFD002240F29D
S315020025C00D410A4803F088FA002345F6BF521893D4
S315020025D0189B93422ED800BF189B01331893189B61
S315020025E09342F8D926E000BF60A5000200250D221D
S315020025F08CA50002B8A500021CAA000260AA00026D
S3150200260098AA000294110D2278110D226C110D2246
S3150200261070110D2274110D22D4AA000200AB000221
S3150200262034AB00026CAB0002A0AB0002C8AB0002E6
S31502002630F8AB00020C20FFF729FA00234EF65F22C0
S315020026401993199B934206D800BF199B013319931C
S31502002650199B9342F8D9012240F20D41634803F0D7
S315020026603BFA4FF47A71642003F0F0FE604804F0FE
S31502002670AFFC4FF47A714FF4FA7003F0E7FE5D484F
S3150200268004F0A6FC002311A910A8CDE91033FFF728
S315020026905DFA10BB584804F09BFC109A5748114645
S315020026A004F0C8F8119A5648114604F0C3F8554882
S315020026B004F08EFC544804F08BFC544804F088FC69
S315020026C001222046524B1A701BB0F0BD01465148FA
S315020026D004F0B0F820461BB0F0BD01464E4804F0A7
S315020026E0A9F81B214D4804F0A5F84D4804F070FCEA
S315020026F01B2420461BB0F0BD4A4804F069FCF7E7EC
S31502002700494804F065FC494804F062FC484804F074
S315020027105FFC484804F05CFC474804F059FC002181
S315020027200320FFF7EDFB04210846FFF7E9FB002132
S315020027300520FFF7E5FB414804F04AFC1121284633
S31502002740FFF7DEFB3E4804F043FC05210220FFF7BB
S31502002750D7FB3C4804F03CFC00210320FFF7D0FBEA
S31502002760394804F035FC80210420FFF7C9FB3748BD
S3150200277004F02EFC05210846FFF7C2FB344804F09C
S3150200278027FC29460620FFF7BBFB324804F020FC53
S3150200279000210F20FFF7B4FB2F4804F019FC00219B
S315020027A00D20FFF7ADFB03210E20FFF7A9FB2B48F7
S315020027B004F00EFC05211520FFF7A2FB23211620AB
S315020027C0FFF79EFB264804F003FC264804F000FCB3
S315020027D00F4B25481D7004F0FBFB7BE7234804F0F2
S315020027E0F7FB234804F0F4FB82E700BF00250D2225
S315020027F02CAC00025CAC000240AD000274AD0002DB
S31502002800A0AD0002CCAD00020CAE000240AE00024A
S3150200281050110022C4A1000294AC0002C8AC00020E
S31502002820FCAC000258A30002E8A5000230A6000292
S315020028307CA60002C4A600020CA7000244A700025E
S3150200284070A7000298A70002C4A70002F0A7000220
S3150200285020A800025CA8000288A80002B8A800020C
S31502002860F0A8000238A900026CA90002A4A900027D
S31502002870DCA900022DE9F04F2DED028B8948A5B0A7
S3150200288004F0A6FB884804F0A3FB884B1B78002BB8
S3150200289000F0FF804FF00008DFED858A9FED858A04
S315020028A04546854F854804F093FB3B6803F5FA736A
S315020028B003933B60824B03F55029002306A905A822
S315020028C0CDE90533FFF742F90146002857D13822F0
S315020028D016A804F00BFE3B680BAC03F5FA7B059BCE
S315020028E01BAE0193069BD9F800C002930FCE0FC40C
S315020028F00FCE0FC4D9F804E00CF1010A3368CAF30B
S315020029000D0AF245C7F800B0236000F08E80342429
S31502002910019BCDF828B00793029B07AE0893684B3C
S31502002920F24504FB0C344FF0000309930FCE0FC49B
S315020029300FCE0FC40FCE0FC43368C9F800A02360B0
S3150200294000F08F8008F10108B8F13F0F05F101058B
S3150200295039D85C4B5C4A03FB05F3B2EBF30F15D295
S31502002960052001F01FF841F288339D42A5D1574850
S3150200297025B0BDEC028BBDE8F04F04F029BB5448EC
S3150200298004F026FB0A2001F00DF896E73C68039B4B
S3150200299004F5FA74E31A07EE103AB8EE477AC8EE6F
S315020029A0877A67EE887AB7EEE77A294653EC172BD1
S315020029B048483C6003F03EFFDDE90112464803F059
S315020029C039FF0394CCE7454C42462946444803F076
S315020029D031FF2168434803F02DFF0121206801F0F1
S315020029E0CBF8414804F0F4FA404804F0F1FA4048C2
S315020029F004F0EEFA0121206801F0BEF83D4B18689A
S31502002A0001F088F888B33C4803F014FF01F00EFF8A
S31502002A1002F006F9394804F0DBFA02F0E9FA38481E
S31502002A2004F0D6FA4FF0000893E799F8083003BB92
S31502002A30CDE9093B019B224A0793029B07AC089307
S31502002A40342303FB0C2C0FCCACE80F000FCCACE804
S31502002A500F000FCCACE80F002368C9F800A0CCF831
S31502002A600030012389F808306CE7264804F0B0FAF2
S31502002A70D5E7254A0AF10103C3F30D03C9F8043069
S31502002A80136822480133136004F0A2FAD9E900CE92
S31502002A903DE71F4825B0BDEC028BBDE8F04F04F0C0
S31502002AA097BA00BF80AE0002BCAE000250110022EF
S31502002AB00024744900007A440011002224AF000267
S31502002AC058110022D578E926378941001CB2000246
S31502002AD0E8B1000280B10002B4B1000230190D2241
S31502002AE0A0AF0002E8AF000214B0000240B000023C
S31502002AF074B0000238190D22ECB0000210B10002C7
S31502002B0040B10002B4B000024C1100225CAF0002D8
S31502002B10F0AE00020121054B0548DA6800680A4456
S31502002B20DA6083F8251000F09FBF00BF0C11002267
S31502002B3034190D222DE9F043864600283ED016466A
S31502002B40002A3BD01F4D08462B7AA3BBD5E90021AC
S31502002B508A4238BF02F58042511A814228BF014695
S31502002B60316029B300244FF034086B68164FF146E2
S31502002B7008FB037CBCE80F00A9E80F00BCE80F00C5
S31502002B80A9E80F00BCE80F00A9E80F00DCF8003046
S31502002B900134C9F800306B680EF1340E0133C3F309
S31502002BA00D036B603268A242E1D80AB100232B7290
S31502002BB00020BDE8F0834FF48041CEE70220BDE855
S31502002BC0F08300BF58110D2258110022704700BF32
S31502002BD070B586B005F0F4F9B34804F0F9F9B348D4
S31502002BE004F0F6F9B24804F0F3F9B24804F0F0F949
S31502002BF0B14804F0EDF9B149B14802F02DFC0028C4
S31502002C0061D00146AF4803F015FEAF4804F0E0F983
S31502002C10FFF7DAF900285AD00146AC4803F00AFE5B
S31502002C20AB4804F0D5F9AB4804F0D2F9AA49AB484F
S31502002C3003F090F80446002872D103460246A849DA
S31502002C40A64803F0EBF80446002844D1A34803F053
S31502002C50C3F80446002840F01281A24804F0B8F9ED
S31502002C60A14804F0B5F9A14804F0B2F900F0FCF964
S31502002C70002851D001469E4803F0DCFD9D4804F031
S31502002C80A7F9FEF7CDFA002842D001469A4803F08A
S31502002C90D1FD9A4804F09CF900F0D2FF002833D007
S31502002CA00146974803F0C6FD964804F091F9964806
S31502002CB004F08EF900F09CFDC8B10146934803F07A
S31502002CC0B9FD00BFFDE7924804F082F99DE79148FD
S31502002CD004F07EF9A4E701468F4803F0ABFD7F4876
S31502002CE003F0A2F821468D4803F0A4FDBBE78C4809
S31502002CF004F06EF901F01AF80446B0B101468948AB
S31502002D0003F098FD00BFFDE7874804F061F9CBE7C1
S31502002D10864804F05DF9BCE7854804F059F9ADE749
S31502002D200146844803F086FDDCE7834804F050F947
S31502002D30824804F04DF94FF4006540F201310A234E
S31502002D407F4A01A8CDE90112CDE90335059400F0C9
S31502002D50CBFD002840F3A480214600F005FE044680
S31502002D6028B12146774803F065FD00BFFDE703223F
S31502002D704FF4005374497548CDE90323029104F0D8
S31502002D8027F901A800F0B0FD061E40F385800399DD
S31502002D906F4803F04FFD2146304600F0E5FD04463C
S31502002DA0002874D16B4804F013F910224FF48063A3
S31502002DB0694901A8CDE90323029100F095FD002897
S31502002DC06EDD214600F0D0FD04460028C9D1142349
S31502002DD0624A01A8CDE90335029200F085FD00287A
S31502002DE05EDD214600F0C0FD04460028B9D11C2351
S31502002DF04FF480655A4A01A8CDE90223049500F0F2
S31502002E0073FD00284CDD002100F0AEFD04460028CB
S31502002E10A7D11823534A01A8CDE90335029200F03F
S31502002E2063FD00283CDD214600F09EFD0446002895
S31502002E3097D106234C4A01A8CDE90335029200F048
S31502002E4053FD00282CDD214600F08EFD04460028A5
S31502002E5087D1464804F0BCF8454804F0B9F845481D
S31502002E6004F0B6F8444804F0B3F8444804F0B0F865
S31502002E7000F0B8FD424804F0ABF800BFFDE701469A
S31502002E80404803F0D7FC154802F0CEFF2AE7014678
S31502002E903D4803F0CFFC64E731463C4803F0CAFCE8
S31502002EA06FF004045DE700BF54B2000284B2000270
S31502002EB0CCB2000208B3000248B3000238CE0002C8
S31502002EC018250D2274B30002DCB3000210B400020E
S31502002ED088B40002C4B4000220CE000208250D22E6
S31502002EE0152B000280B50002CCB500024CB60002DA
S31502002EF080B60002D8B6000204B7000260B700022C
S31502002F008CB70002E8B7000230B800025CB80002D3
S31502002F10B0B3000254B4000224B5000208B600029F
S31502002F2090B80002B8B80002C4B700023CB700026B
S31502002F30B0B60002F8B40002E8B8000210B9000206
S31502002F407528000264BB0002F549000234B900028A
S31502002F5094B90002E4B90002010C00022D0E00022F
S31502002F607D3300027914000255400002FCB90002CA
S31502002F7034BA000278BA0002B8BA0002F0BA000205
S31502002F8034BB000254B50002BCB9000268B90002A3
S31502002F90022800D070470249024802F07DBE00BFF7
S31502002FA09CCE000200250D22032898BF284B70B53F
S31502002FB098BF53F82010274B88BF27490546D422CD
S31502002FC0184604F0C7F84FF4807603464FF0000C1B
S31502002FD0224A146A92F82410214A01F00F0040EAAC
S31502002FE0147E1EF0080F1268C9B24FEA147483F8F1
S31502002FF0DB5083F8D4C0A3F8D6C0A3F8D86083F810
S31502003000DAC011D00D071DD40121814020074CBF23
S315020030100320012001FB02F248BF04F0070400FA74
S3150200302004F4B2FBF4F201E08240E2400D48D3F828
S31502003030E010A0FB02020131920CC3F8E010C3F8C3
S31502003040DC2070BD032001F0070100FA01F1DDE783
S3150200305008CD0002C8150D229C110D2200E0014088
S31502003060D0250D2283DE1B432DE9F84FE8220021ED
S31502003070B44804F03BFA4FF000014FF4C163EDEEA1
S31502003080101A00214FF0010CAF4DB04A25F8033C4F
S31502003090AF4B11609A89DFF8D4A225F8B92C9A8B26
S315020030A005F801CC25F8AD2CBAE80700286069605E
S315020030B093E8030045F8C30C986825F8BF1C45F849
S315020030C0BD0C03F1100003C845F8B70C9869AA6055
S315020030D045F8B10C03F120009AF8002025F8B31C3C
S315020030E003C845F8AB0C986A2A7325F8A71C45F85D
S315020030F0A50C4FF0FA7045F89F0C4FF47A7045F81C
S31502003100970C002045F89B0C40F60A10914E9A8DBA
S3150200311026F8030CFDEE100A26F8BD0CC82046F868
S31502003120BB0CFDEE100A26F8B10CC82046F8AF0C0F
S31502003130FDEE100ADFF8389226F8A50C25F8A12C28
S31502003140B9E80700306003F13000716003C846F841
S31502003150C30C03F1380026F8BF1C03C846F8B70CA7
S3150200316003F140004FF0000A26F8B31C03C846F8E4
S31502003170AB0CC820B260B9F8002026F8A71CB281B1
S3150200318006F801AC46F8A30C4FF4967046F8970C75
S315020031904FF4487046F88B0C40F206406E4F6F4D66
S315020031A027F8030C642047F8BB0CFDEE100A26F83C
S315020031B0990C26F88D0C27F8BD0C03F1480003C8BC
S315020031C046F89F0C03F1500026F89B1C03C846F8EC
S315020031D0930C26F88F1C07CDBA602A7838603A73AA
S315020031E003F15802796092E8030008324FF0010CAD
S315020031F047F8C30C27F8BF1C92E80300FDEE102A1D
S3150200320047F8B70C27F8B31C07F801CC27F8B12CFE
S31502003210C82247F8AF2C4FF44272514CDFF854B132
S3150200322024F8032C03F1680292E80300B3F8742031
S3150200323047F8AB0C27F8A12CB3F88420186F24F8B2
S31502003240B92C03F1780227F8A71C47F8A50CBBE8AE
S3150200325003002060616092E80300BBF8002044F896
S31502003260C30C22819BF80220D3F88000A27203F1DC
S31502003270880224F8BF1C44F8BD0C92E8030044F807
S31502003280B70CD3F890004FF4C86204F801AC24F8E6
S31502003290B31C44F8B10C40F20440DFF8DCE044F819
S315020032A0972CFDEE102A2EF8030C4FF07A7024F8B4
S315020032B0992C2EF8BF2C03F198024EF8C30C92E813
S315020032C00300B3F8942044F8AB0CD3F8A00024F81A
S315020032D0AD2C03F1A80224F8A71C44F8A50C92E829
S315020032E00300B3F8A42044F89F0C24F89B1C24F88E
S315020032F0A12CB3F8B4201B4C2EF8B92C07CCCEF86F
S315020033000000D3F8B000CEF8082003F1B802CEF8D8
S3150200331004104EF8BD0C0EF801CC92E803004EF8EC
S31502003320B70CD3F8C000B3F8C4304EF8B10C2EF87F
S31502003330AD3C0D4B002083F800C02EF8B31CBDE84F
S31502003340F88F00BFC8150D22AF150D22C4150D2228
S3150200335018CD0002DB140D2207140D22B0BB0002A9
S3150200336033130D22CCBB0002C0150D2290BB000206
S31502003370A0BB0002C0BB00025F120D222DE9F04F76
S315020033802DED028B97B0FFF76FFE20B14FF47A70E6
S3150200339000F008FBFAE7DFEDB08A9FEDB08AB04E87
S315020033A0B04CDFF8D492DFF8D482DFF8D4B2AE4D57
S315020033B04FF0FF31306800F0ADFB0028F8D102A8CB
S315020033C0FDF7D6FE94F8D93050B95BB99DF82C308A
S315020033D0002BEDD09DF82000FFF7E6FD94F8D930DA
S315020033E0002BE5D04FF0000A6DE014F817E047789D
S315020033F089F800E088F80070BCF1000F00F0AB809D
S3150200340040889A4FB3EB500FA7FB00C74FEA5717F6
S315020034102B608BF800706ED29BF8007099F800C092
S315020034203846009798F800700197002800F0A980A6
S315020034302F780098ACEB070C9CFBF0FEBEF1000F58
S3150200344000F0A480BE445FFA8EF7642F28BF64277B
S3150200345001982F706F78A0EB070C00989CFBF0F098
S31502003460002800F09D803844C7B2642F6F7001D9DE
S3150200347064206870114404EB4101498832339BB2DF
S315020034809942A4F8D63016D894F8C0300132D2B296
S31502003490934284F8D420A4F8D6A00CD894F8D83055
S315020034A094F8C1200133DBB29A4284F8D83040F254
S315020034B0818084F8D4A0322000F074FA94F8D930CE
S315020034C0002B3FF475AF94F8DA30002BF3D194F861
S315020034D0D420B4F8D63002EB420704EB470090F84A
S315020034E004C05100002B80D0BCF1000F03D04088ED
S315020034F0B3EB500F90D3881804EB40004779002FA6
S31502003500B8D04088B3EB500FB4D99BF8000000281E
S3150200351067D02F78C7F1000C9CFBF0FE0FFA8CFCEB
S31502003520BEF1000F61D1BCF1000F07D04FF0FF3E94
S315020035307744FFB2642F88BF64272F706F78C7F174
S31502003540000C9CFBF0F00FFA8CFC002850D000B265
S315020035500744FFB289E77046642828BF6420BEF19B
S31502003560000E18BF4FF0010E642F2870384628BF90
S315020035706420003F18BF012785F802E06870EF70EB
S3150200358078E7019885F800C0687073E7BCF1000F10
S315020035903FF45BAFCCBF013707F1FF37FFB254E709
S315020035A0BCF1000F3FF461AFCCBF013707F1FF3723
S315020035B0FFB25AE70CA894F8DB7084F8D9A0C5F8D4
S315020035C000A0FDF7D5FDF0EE487A38B9022F37D0C4
S315020035D0032F24D0012F12D0DFED1F7AC4ED397AE2
S315020035E069E74FF00000288044E70FFA8EFE9FE756
S315020035F0BCF1000F3FF43EAF4FF0FF30A8E7F6EE06
S31502003600006A9DED0D6AB4EEE66ADFED137A9FED70
S31502003610137AF1EE10FA58BFF0EE477ADEE7DFEDE5
S31502003620147A9DED0C7AB4EEE77AF1EE10FACCBF7D
S3150200363001230023002B48FE287AC4ED397A3AE7A3
S31502003640DFED0C7A9DED0E7AB4EEE77AF1EE10FA22
S315020036504CBF01230023EDE7CDCC4C3F9A99993E0E
S3150200366024190D22C8150D22C4150D221F85EB51F2
S31502003670CDCCCC3E9A99193F9A110D2299110D2261
S3150200368098110D2208B5094B1B7863B1084B93F8C4
S31502003690D92022B10022074983F8D9200A60FFF710
S315020036A083FC002008BD212008BD00BFC0150D22E5
S315020036B0C8150D22C4150D2218B1084BD3F8E030F7
S315020036C0036019B1054BD3F8E4300B601AB1034B12
S315020036D093F8D93013700020704700BFC8150D2229
S315020036E02C4B1B78002B52D070B52B4CB6B0D02287
S315020036F0002102A803F0FAFE284D94F8D9600FCDF6
S31502003700CDF8C700CDF8CB10CDF8CF20CDF8D33009
S3150200371016B10022224B1A60322364214FF4FA7545
S3150200372040F201124FF44270ADF80C30ADF8183089
S3150200373001231C4EADF824101B490196ADF83050FA
S3150200374006F54806194D0791ADF82C2001A9ADF8EA
S31502003750C400D42206F60A260F4804958DF8C63010
S315020037600A9603F0F7FC00224FF4807503211046F7
S31502003770D4F8E03084F8D4200133A4F8D620A4F893
S31502003780D85084F8DB10C4F8E03036B070BD212082
S31502003790704700BFC0150D22C8150D22D8BB000206
S315020037A0C4150D22464664005F5F960055557800A3
S315020037B00C4A0D49136809780133136081B14FF041
S315020037C0010C0822094B197831B11969481E19B141
S315020037D0186108B983F801C0013A03F11803F2D15E
S315020037E0704700BFF0180D22F4180D2230180D2272
S315020037F0F8B5314D2C780CB10020F8BD2146C02217
S315020038002E4803F073FE21464FF480722C4803F0D3
S315020038106DFE214640222B4803F068FE21464022D7
S31502003820294803F063FE294A294E136A92F82410A6
S31502003830C3F3036401F00F001A0E336844EA00066C
S315020038403707C9B20FD50E072BD4012181401007C5
S315020038502ED5032002F0070200FA02F201FB03F35F
S31502003860B3FBF2F301E08340E3404FF0E022194953
S315020038700027A1FB031307269B09F020013B536196
S315020038804FF0FF340123144997611661134A81F8F8
S3150200389023001349134814602B7002F0CBFF00205B
S315020038A0F8BD032001F0070100FA01F11007D0D498
S315020038B00122A240D2E700BFF5180D2230180D22D0
S315020038C030170D22F0160D22B0160D2200E001402F
S315020038D0D0250D22D34D621000ED00E01C0000221F
S315020038E0E8BB000210BC000270B51B4B1B7883B309
S315020038F078B343686BB3194D00242B460822197816
S31502003900A4461833013429B1013AF8D16FF0030401
S31502003910204670BD4FF001024FF480560CEB4C0C62
S315020039204FEACC03EA52426805EBCC0CCCF80420F1
S3150200393082680833CCF80820094ACCF814109D187E
S31502003940D650696082682146064802F073FF204617
S3150200395070BD6FF01004DBE7F5180D2230180D224A
S3150200396034180D2220BC000208B5431E072B11D8BD
S315020039700A4A03EB4303014612F83300DB0048B15F
S315020039804FF0010C1A44064882F801C002F052FFB9
S31502003990002008BD6FF0010008BD00BF30180D22DF
S315020039A04CBC000208B50C4B1A7872B10B4A12686D
S315020039B0072A08D803460020094902EB420201EB16
S315020039C0C20213615070002008BD4FF47A7102F0F2
S315020039D03DFD002008BD00BFF4180D221C00002288
S315020039E030180D22194B1B7813B96FF0040070477B
S315020039F00122174B2DE9F0411A7062B61549164895
S31502003A0002F018FF154FDFF85C80154D00262C4694
S31502003A1023785BB163784BB10021636808463E6048
S31502003A2098474FF47A71012002F010FD0136082EF4
S31502003A3004F11804ECD12B7813B16B78002BE4D186
S31502003A4018354545F7D130BFDFE700BFF5180D221F
S31502003A50F4180D2268BC000210BC00021C000022F1
S31502003A6030180D22F0180D2201380F2819D808B582
S31502003A700F4B02019A5C03EB0013AAB1D3E90121B1
S31502003A808A4207DA01320B490B485A6002F0D2FE2B
S31502003A90002008BD0949084802F0CCFE6FF0030079
S31502003AA008BD6FF0010070476FF0010008BD00BF4E
S31502003AB030170D2290BC000210BC0002A8BC000206
S31502003AC038B5F8B100241023104D2201AA5C214614
S31502003AD001342AB1013BF8D16FF00304204638BD08
S31502003AE005EB01134FEA011C012105F80C1045688C
S31502003AF021465D6085680648DA609D6002F09AFE9E
S31502003B00204638BD6FF01004E8E700BF30170D22DB
S31502003B10BCBC0002431E0F2B28D8164A1901515C61
S31502003B2002EB031311B3002042F20F7282B000902F
S31502003B300099914212DC5968002913DC0190019B1D
S31502003B40632B05DC019B01330193019B632BF9DD9A
S31502003B50009B01330093009B9342EFDD6FF006005A
S31502003B6002B070470139596002B070476FF0010028
S31502003B70704700BF30170D2201380F2810D80A4BA4
S31502003B8002019A5C03EB001352B1D3E901218A4286
S31502003B9003DA013200205A6070476FF00300704763
S31502003BA06FF00100704700BF30170D22431E072B2E
S31502003BB010D80A4A03EB4303014612F83300DB002E
S31502003BC040B110B500241A440548547002F032FE82
S31502003BD0204610BD6FF00100704700BF30180D225D
S31502003BE0DCBC000208B5431E072B11D80A4A03EBB8
S31502003BF04303014612F83300DB0048B14FF0010CD3
S31502003C001A44064882F801C002F014FE002008BDDC
S31502003C106FF0010008BD00BF30180D22FCBC000287
S31502003C2008B5024803F0D4F9002008BD18BD000209
S31502003C30024B186840EAE070013070471C0000220F
S31502003C40002010B52249234C0860226A94F824C049
S31502003C5048608860C86008740CF00F0040EA127170
S31502003C601D4B0C071B684FEA127214D55FFA8CFCC7
S31502003C701CF0080F25D10121814010074CBF0320FB
S31502003C80012001FB03F348BF02F0070200FA02F229
S31502003C90B3FBF2F301E08340D34040F6D86E4FF017
S31502003CA04B0C01240D490E4AA1FB03130D499B0936
S31502003CB00B600D4BA2F800E082F802C01C700020D7
S31502003CC010BD03210CF0070C01FA0CF1D5E700BF79
S31502003CD003190D2200E00140D0250D22D34D6210BA
S31502003CE000190D22F8180D22FC180D2210B40D4CE5
S31502003CF024789CB110B10C4CA478047011B10A4816
S31502003D000088088012B108490979117013B1064A70
S31502003D1012691A6000205DF8044B704721205DF895
S31502003D20044B7047FC180D2200190D222DE9F041B3
S31502003D30614884B003F04CF900240A230225684640
S31502003D400293CDE90054FFF7BBFE5C4BA04218601C
S31502003D5040F3878005265A4803F03AF96846CDE9CA
S31502003D6000540296FFF7ACFE564B0028186040F34B
S31502003D7082800127544803F02BF96846CDE90054A6
S31502003D800297FFF79DFE514B002818606FDD4FF03A
S31502003D9003086846CDE90054CDF80880FFF790FE87
S31502003DA04B4B002818606EDD4A4803F011F968464D
S31502003DB0CDE90054CDF80880FFF782FE464B002875
S31502003DC018605CDD454803F003F96846CDE9005406
S31502003DD00296FFF775FE424B002818605BDD4148EC
S31502003DE003F0F6F86846CDE90054CDF80880FFF7EF
S31502003DF067FE3D4B0028186049DD3C4803F0E8F8B1
S31502003E003B4803F0E5F86846CDE900540297FFF710
S31502003E1057FE384B0028186045DD374803F0D8F8BE
S31502003E206846CDE900540297FFF74AFE334B002855
S31502003E30186034DD324803F0CBF86846CDE9005409
S31502003E400297FFF73DFE2F4B002818602FDD2E4804
S31502003E5003F0BEF82D4803F0BBF8002004B0BDE81D
S31502003E60F0812B4803F0B4F86FF00400F6E7294816
S31502003E7003F0AEF8F8E7284803F0AAF8F4E7274873
S31502003E8003F0A6F8F0E7264803F0A2F8ECE7254887
S31502003E9003F09EF8E8E7244803F09AF8E4E723489B
S31502003EA003F096F8E0E7224803F092F8DCE72148AF
S31502003EB003F08EF8D8E700BF38BD000234190D2290
S31502003EC0A4BD000230190D220CBE000238190D22C3
S31502003ED02C190D22B0BE000228190D2218BF0002AD
S31502003EE024190D2278BF000220190D22DCBF000220
S31502003EF010C000021C190D2280C0000218190D22E2
S31502003F00ECC0000214190D2258C1000288C1000239
S31502003F1074BD000240BE0002D8BD0002E4BE00022B
S31502003F2078BE0002A8BF00024CBF0002B0C0000269
S31502003F304CC0000224C10002B7EE007ADFED407ADF
S31502003F4010B4404B1A7E597E002A14BF0122002269
S31502003F5047FE877A11B177EE877A0132997E21B1CF
S31502003F60B7EE007A77EE877A0132D97E21B1B7EEC3
S31502003F70007A77EE877A01321C7F587F997F002C70
S31502003F803ED0B7EE007A77EE877A08B3B7EE007ABC
S31502003F9077EE877A19B1B7EE007A77EE877AF1EE85
S31502003FA00C5A9FED296A87EEA57ADFED286A67EE3D
S31502003FB0067AF4EEE67AF1EE10FAC3ED057A13DB31
S31502003FC01A78052A01D102221A705DF8044B70474D
S31502003FD00029E0D1B1EE0C6ADFED1B6A87EE867A24
S31502003FE067EE267AC3ED057A9FED197AF4EEC77A63
S31502003FF0F1EE10FAE9D505221A705DF8044B704706
S315020040000028C3D131B9002AE4D100225A6105221F
S315020040101A70F2E7B7EE007AB1EE0C6A77EE877A9B
S31502004020DFED096A87EE867A67EE267A9FED087AD1
S31502004030F4EEC77AF1EE10FAC3ED057AC5D5DAE7E2
S315020040400000000040190D220000C8420000AA42EA
S31502004050000048422DE9F0432022002186488DB017
S3150200406003F044FA854A864E116A92F82420080F14
S3150200407002F00F0444EA11710F07336815D5D2B264
S31502004080150740F1E880032102F0070201FA02F265
S3150200409004074CBF0321012102FB03F348BF00F0D2
S315020040A007008140B3FBF1F301E0A340C340754A28
S315020040B0714CA2FB03239B096360FDF785FFB0FAEF
S315020040C080F04009207600F05BFAB0FA80F04009F1
S315020040D06076FCF773F8B0FA80F04009A076FEF736
S315020040E0C3FFB0FA80F04009E076FDF799F8B0FA1E
S315020040F080F040092077FFF7A3FDB0FA80F0237E17
S31502004100400960771BB1637E002B40F0978018460A
S3150200411001235D4D20742B702B78002B49D0DFF8DC
S315020041207091DFF86081594FFFF706FF2378052B60
S3150200413000F29F80DFE803F0400B46030D66002184
S3150200414002AA0846FFF7B8FA9DF808300BB902230F
S3150200415023704A4B3268196A93F82430080F03F029
S315020041600F0C4CEA11710907DBB259D519075BD559
S31502004170032103F0070301FA03F301074CBF0321EE
S31502004180012102FB03F348BF00F007008140B3FBA5
S31502004190F1F2A8FB023263684FF4FA70C3EB921392
S315020041A0A7FB03239B0BE360FFF7FCFB2B78002B9B
S315020041B0BAD10DB0BDE8F083237C002BC9D0012310
S315020041C02370C6E702A8FCF7D3FF38B99DF82C3056
S315020041D073B303232370A3680133A36000230DF195
S315020041E0070219460DF10600FFF780FD0028B0D13F
S315020041F09DF807302278002B37D0052AA9D0042350
S315020042002370A6E7D4ED057AB7EEE77A484653EC73
S31502004210172B02F00FFB237E03B3FFF78DFE98E701
S3150200422002FA0CF2C240B4E7012303FA0CF3A4E744
S315020042302378032B04BF02232370CFE7A37E002B30
S315020042403FF465AFE37E002B3FF461AF237F002B83
S3150200425008BF00205CE70122A24019E7FDF7B4FE81
S315020042600028DAD101232376D7E7042A7FF471AF37
S315020042706DE7052323706CE740190D2200E001402B
S31502004280D0250D22D34D62103C190D2273B2E7459B
S31502004290C8C1000210B560B184464FF0000E074C4B
S315020042A00FCCACE80F0094E80F008CE80F007046C4
S315020042B010BD4FF0020E704610BD00BF40190D2210
S315020042C0D0ED056AD0ED013AD0ED007A88B090EDD6
S315020042D0064ACDED056AD0ED025A66EEA36A60EE95
S315020042E0277A90ED077AD0ED034A65EE845A77EE87
S315020042F0A67A90ED085A8DED077A90ED046A27EEBC
S31502004300247A77EEA57A26EE056A77EEC77A77EEF5
S31502004310C67A8DED040ACDED067A9DED045FD0EDE9
S315020043200E6A90ED093AD0ED0A3A80ED055FCDEDC1
S31502004330016A90ED0F4A27EE830A66EEA36AD0ED74
S315020043400B5A90ED107AD0ED0C4A65EE845A30EE97
S31502004350260A90ED0D6A90ED115A8DED037A30EE34
S31502004360250A27EE247ACDED007A30EE470A66EE6C
S31502004370057A30EE670A8DED020A9DED007F80ED2B
S315020043800E7F08B0704700BF03469FED3D4B9FED81
S315020043903E5B2DE9F04FA3EC045F9FED3D4B9FED95
S315020043A03E5B83ED005F9FED3E4B9FED3F5B80EDF5
S315020043B0085F9FED3F4B9FED405B80ED0C5F9FEDED
S315020043C0404B9FED415B80ED105F9FED414B9FEDB2
S315020043D0425B80ED145F9FED424B9FED435B80EDA8
S315020043E0185F9FED434B9FED445B80ED1C5F9FED95
S315020043F0444B9FED455B80ED245F9FED454B9FED62
S31502004400465B80ED285F9FED464B9FED475B80ED57
S315020044102C5F9FED474B9FED485B80EF506080ED30
S31502004420305F9FED474B9FED485B85B000F1D002B0
S315020044300192019B80ED207F83ED005F9FED444B4F
S315020044409FED455B00F1E0020292029B00F1F00251
S3150200445083ED005F9FED424B9FED435B0392039B0F
S3150200446000F1A00E83ED005F9FED414B9FED425B95
S3150200447080ED447F80ED405F05B0BDE8F08F00BF60
S31502004480F900653F342FE2BFF900653F342FE2BFE2
S31502004490F3014A3F00000000000000000000000097
S315020044A000000000F900653F342FE2BFF900653FC6
S315020044B0342FE2BFF3014A3F000000000000000073
S315020044C000000000000000000C44603F1E4BDCBFF1
S315020044D00C44603F1E4BDCBF1788403F00000000C3
S315020044E00000000000000000000000000C44603FD5
S315020044F01E4BDCBF0C44603F1E4BDCBF1788403F9F
S3150200450041B77F3F41B7FFBF41B77F3F36B7FFBFD6
S31502004510946E7F3F000000000000000000000000D3
S315020045200000000041B77F3F41B7FFBF41B77F3F61
S3150200453036B7FFBF946E7F3F000000000000000008
S3150200454000000000000000007EA4943B7EA4143C00
S315020045507EA4943B897BE6BF379C513F0000000056
S315020045600000000000000000000000007EA4943B52
S315020045707EA4143C7EA4943B897BE6BF379C513FC4
S3150200458010B5094C4FF428620021204602F0AEFF16
S315020045902046FFF7F9FE04F59070FFF7F5FE0122BB
S315020045A0024B00201A7010BD801A0D22791A0D22B4
S315020045B070B590ED000ADFED8D6AB8EEC00A9FED88
S315020045C08C7A20EE260A20EE070ADFED8A7AB0EE12
S315020045D0C06AB4EEE76AF1EE10FA874D874CD5ED64
S315020045E0005A94ED005A43683BDC04EE903AF8EE2A
S315020045F0E42A62EEA62A62EE872AB0EEE27AB4EEE8
S31502004600E77AF1EE10FA2CDC70EE657ADFED7C6A61
S31502004610F0EEE77AF4EEE67AF1EE10FA21DC72EECB
S31502004620C57AF0EEE77AF4EEE67AF1EE10FA18DCE5
S31502004630B4EEE66AF1EE10FA11DDB4EEE67AF1EEC8
S3150200464010FA0CDD26EE076A62EE807A9FED6D7A2D
S31502004650C7EE866AF4EEC76AF1EE10FA01DC6A4E1C
S3150200466017E0DFED6A2A25EEA20A65EE222A664ED9
S31502004670674BD6F8700AA3FB00C3DB0803EB830380
S31502004680A0EB430303F2922356F82300013046F8C7
S315020046902300604BDFED606AD3ED001A93ED012A29
S315020046A09FED5E7A61EEA61A60EE077A22EE262A60
S315020046B022EE877A71EEA71A32EE072AA3F6E410E3
S315020046C083ED012AC3ED001AFFF7FAFDA3F6C40033
S315020046D0B0EE401AB0EE620AFFF7F2FDA3F67420BE
S315020046E0F0EE402AB0EE410AFFF7EAFDA3F65410B7
S315020046F0B0EE401AB0EE620AFFF7E2FDA3F62C20F6
S31502004700F0EE402AB0EE410AFFF7DAFDA3F60C10EE
S31502004710B0EE401AB0EE620AFFF7D2FDA3F69C1085
S31502004720F0EE402AB0EE410AFFF7CAFDF0EE407AFB
S31502004730B0EE620AF0EE672AA3F67C00FFF7C0FD30
S315020047409FED377A72EEE17AF4EEC77AF1EE10FA5D
S3150200475030EE420A24DD77EEC77ADFED326A67EE83
S31502004760A67A77EE877A9FED2E7AB4EEC70AF1EE35
S3150200477010FA2BDD30EE470ADFED2A6A20EE260A12
S3150200478030EE070AC1ED007A82ED000AC5ED007A25
S3150200479084ED000AD6F87C3A0133C6F87C3A70BD3D
S315020047A0DFED216AF4EEE67AF1EE10FADBD577EE6A
S315020047B0877ADFED1C6A67EEA67A77EEC77A9FEDF7
S315020047C0187AB4EEC70AF1EE10FAD3DCDFED166AF8
S315020047D0B4EEE60AF1EE10FAD4D530EE070ADFEDB2
S315020047E0116A20EE260A30EE470ACBE780969847F2
S315020047F0000000340000164364190D2260190D22D0
S3150200480000004842CDCC4C3F801A0D226666663FB8
S31502004810CDCCCCCCF4240D2277BE7F3F6F12833AE7
S315020048200000C842CDCCCC3D0000C8C22DE9F04301
S31502004830594883B0594C02F0CBFB594802F0C8FBE9
S315020048402578B5B9574802F0C3FB4FF428622946CA
S31502004850554802F04BFE5448FFF796FD00F590705E
S31502004860FFF792FD0123514A51481370237002F05B
S31502004870AFFB504F504802F0ABFB05213A464F487A
S31502004880FEF758F9044608B9396841B94C4802F0AE
S315020048909FFB4C4803B0BDE8F04302F099BB4A487F
S315020048A001F0C8FF3868DFF84491DFF84481002838
S315020048B070D04A464146414E3B4D3046FFF778FEA0
S315020048C0D5F8403AD9F800C003F5C87005EB800068
S315020048D0C0F800C03868D8F800E0013405EB830C54
S315020048E0A04203F1010306F13406CCF840E2C5F812
S315020048F0403AE2D801230146344885F8443A01F0A9
S3150200490099FFD5F8403AFF2B32D8D5F87C3A304990
S31502004910304A01FB03F3B2EBB30F11D30021D5F8F2
S31502004920703A2D4A0133A2FB0302D20802EB82023D
S31502004930C5F8703AA3EB420303F2922345F823101B
S3150200494099ED007AD8ED006AB7EEC77AB7EEE66A55
S315020049508DED007B53EC162B204801F06BFF2048AF
S3150200496002F036FB174803B0BDE8F04302F030BB55
S3150200497080231C494FF40072A1F50070C5F8403A35
S3150200498002F0E8FB18494FF40072A1F5007002F03C
S31502004990E1FBBAE7044DADE7FCC10002781A0D222D
S315020049A04CC2000280C20002801A0D22791A0D2220
S315020049B0B4C2000270190D22E0C2000274190D225F
S315020049C014C4000250C4000214C300024CC3000205
S315020049D0917EFB3AE2361A00CDCCCCCC84C30002DF
S315020049E0C8C30002C01E0D22C0220D2268190D2264
S315020049F06C190D222DE9F04F6B48C7B002F0E8FAA8
S31502004A006A4802F0E5FAFFF7BBFD38B1684802F0E2
S31502004A10DFFA4FF47A70FEF7C5FFFAE7654802F04F
S31502004A20D7FA654E654CDFF8EC91654FDFF8E8A1E1
S31502004A30DFF8E8B1384602F0CBFA3168614801F096
S31502004A40F9FE3068FFF766F805465F48294601F029
S31502004A50F1FE2946BDB1EB1D0CBF5C485C4801F076
S31502004A60E9FE29465B4801F0E5FE6420FEF79AFF5F
S31502004A70FFF7D6F8FFF7DCF8FFF798F8FFF7D8F854
S31502004A80FFF7B0F8D6E7544801F0D4FE534802F0D7
S31502004A909FFA052102AA05A8FEF74CF8054610B9A9
S31502004AA0029900293CD14E4802F092FAD4F87C3A97
S31502004AB00AFB03F3BBEBB30F11D30021D4F8703A10
S31502004AC0484A0133A2FB0302D20802EB8202C4F86F
S31502004AD0703AA3EB420303F2922344F823104248AE
S31502004AE002F076FA414B01211868FFF745F8404873
S31502004AF002F06EFA3F4B1868FFF70CF8014658B9F8
S31502004B003D4802F065FA0121D9F80000FFF734F8B2
S31502004B103A4802F05DFA8DE7394801F08BFEF2E77A
S31502004B20384801F087FE029A0DF1140832B9BDE742
S31502004B30029B0135AB4208F13408B7D9404604AAB4
S31502004B4003A9FFF735FD4FF0010EDDED047AD4F827
S31502004B50403ADDF80CC003F5C87204EB830104EB9E
S31502004B60820273442848C4F8403ACDED017AC2ED78
S31502004B70007A84F844EAC1F840C202F029FAD4F86D
S31502004B80403AFF2BD4D9802320494FF40072A1F575
S31502004B900070C4F8403A02F0DDFA4FF400721C4885
S31502004BA0811802F0D7FAC3E788C40002B8C400022B
S31502004BB0E4C400021CC5000230190D22801A0D221F
S31502004BC048C5000284C50002C0C5000264C60002D0
S31502004BD0A0C60002DCC60002F0C5000230C6000212
S31502004BE058C70002CDCCCCCC84C700022C190D22AA
S31502004BF0B4C700021C190D22F0C7000254C80002F5
S31502004C001CC8000214C3000210C70002C01E0D22F7
S31502004C10C0200D2238190D22917EFB3AE2361A0087
S31502004C2010B5574884B0574C02F0D2F9564802F0F4
S31502004C30CFF994F8443A002B00F096804FF4807135
S31502004C40524801F0F7FD04F5C8614FF4807204F58D
S31502004C501070FBF74BFB4E4802F0BAF904F5C86137
S31502004C604FF4807204F51070FBF752FC494802F0CB
S31502004C70AFF904F5C8614FF4807204F51070FBF7C2
S31502004C80FFFD454802F0A4F904F5C86104F5107069
S31502004C904FF48072414CFBF76BFE414802F098F9E3
S31502004CA0DFED407A94ED037AB4EEE77AF1EE10FA8C
S31502004CB0D4ED025A53DC9FED306BB7EEC77A8DED19
S31502004CC0026BB7EEE56A8DED007B53EC162B364888
S31502004CD001F0B0FD94ED0F6A94ED0C7AD4ED0B5A07
S31502004CE0B7EEC66AB7EEC77AB7EEE55A8DED026B36
S31502004CF053EC152B8DED007B2C4801F09BFD94EDBA
S31502004D00146A94ED137AD4ED125AB7EEC66AB7EE68
S31502004D10C77AB7EEE55A8DED026B53EC152B8DED86
S31502004D20007B234801F086FD94ED046A94ED017A36
S31502004D30D4ED005AB7EEC66AB7EEC77AB7EEE55AB1
S31502004D408DED026B53EC152B8DED007B194801F0AE
S31502004D5071FD194804B0BDE8104002F039B985EE7C
S31502004D60876AB7EEC66AA8E7144804B0BDE81040E1
S31502004D7002F02EB9AFF30080000000000000000030
S31502004D8084C80002801A0D22CCC80002E08D0002FF
S31502004D901C8E0002488E0002788E0002D00B002282
S31502004DA0A48E0002BD378635D48E0002248F0002FF
S31502004DB06C8F000254C90002A4C9000208C900028D
S31502004DC084B0F0B5ADF6DC0D0DF50F6484E80F0086
S31502004DD07548764C02F0FCF8A82200210CA802F0D5
S31502004DE085FB0FCC266808AC0FC4714D26702B6A62
S31502004DF095F82420C3F3036102F00F0041EA000490
S31502004E00250717D5D2B214074FEA136300F1C28001
S31502004E1001241A0704FA00F440F1C380032203F0C6
S31502004E20070302FA03F3634A126802FB04F4B4FBB3
S31502004E30F3F403E05F4B1C688440CC405E4D2021B6
S31502004E40A5FB0435AD092B465C4A10A802F03CFAD4
S31502004E50DFF898C15A4FACFB04C45A4B0DF1600CF3
S31502004E600FCB8CE80F00630DA7FB0504564E6409B1
S31502004E70A6FB0312A7FB04604009C0EB0010A4EBDB
S31502004E8080001209C4EB0414A5EB840502EB42026E
S31502004E90A3EBC20320214D4A0090019520A802F0FF
S31502004EA013FA4B4B4FF47A7093ED174ADFED495ADA
S31502004EB093ED007F996D1D690DF50F631C683391A3
S31502004EC004940DF6F801096835900DF6F400B4EE77
S31502004ED0E54AD0ED005A05910DF6FC0108680DF57C
S31502004EE0106109680690079182EF542FF2EE044A88
S31502004EF08DED2E7F9DED047F65EEA45A06FF526D61
S31502004F00F1EE10FAB6EE005A8DED287F36EE256ADE
S31502004F1004AB26EE056A4CBF0123002336A94FF4E3
S31502004F20006208A8CDED2C5A8DED2D6A8DF8D03091
S31502004F303295FCF7C5F936A8FCF734FA014628BBC8
S31502004F40254802F045F80DF60C1393ED006A9DED27
S31502004F50297ADDED285AB7EEC66AB7EEC77AB7EEFA
S31502004F60E55A8DED026B53EC152B8DED007B1B483C
S31502004F7001F060FC1A4802F02BF81A4802F028F8F1
S31502004F800DF6DC0DBDE8F04004B07047164801F09E
S31502004F9051FCEFE7032402F0070294401A073FF59B
S31502004FA03DAF01238B403EE7D8C90002AC96000212
S31502004FB000E00140D0250D22D34D6210C0960002BA
S31502004FC089888888CC960002ABAAAAAA20CA0002BF
S31502004FD0D00B00223333333F40CA000270CA0002AC
S31502004FE0D8CA000218CB0002ACCA0002B17C2195D5
S31502004FF010B5364896B001F0EBFF06A93448FBF728
S31502005000E9FC06A8FBF7B2FDDDED077ADDED066ADF
S31502005010B6EE007A77EEA67A0CACA64667EE877AEB
S315020050200DF1180C8DF84800BCE80F00AEE80F0031
S315020050309CE803008EE803002648CDED137A01F0C2
S31502005040C7FF9DF848302BB15A1ED2B2032A32D975
S31502005050214900E0214916AA02EB830353ED0A7A9D
S31502005060B7EEE77A1E4853EC172B01F0E3FBDDEDB2
S31502005070137AB7EEE77A1B4853EC172B01F0DAFBEB
S31502005080194801F0A5FF2046FBF786FDB8B9174877
S3150200509001F09EFFEC460DF1400EBEE80F00ACE8B3
S315020050A00F009EE803008CE8030094E80F00FFF768
S315020050B087FE16B010BD0E4951F82210CBE70D48F7
S315020050C001F086FF2046FCF77DF8E0E774CB00028C
S315020050D0D00B0022BCCB000264CB00026CCB0002D8
S315020050E0E8CB000220CC00024CCC0002B4CC000279
S315020050F010CE000278CC000210B40C4B93F8444A4E
S3150200510074B110B103F51073036009B1084B0B605B
S3150200511012B14FF48073136000205DF8044B7047A0
S315020051206FF00B005DF8044B704700BF801A0D222A
S31502005130C0200D2208B5FDF74BFD002008BD00BFBB
S3150200514010B582680446136823F0705323F00303F4
S3150200515043F0007313608268136923F00C03136132
S315020051604368DA6822B1936810681B6998476368D6
S315020051709A6822B1936810681B699847636800228F
S31502005180DB79A168DB070B61C4E90322C4E90522C6
S3150200519010BD00BF30B5816883694C69057FC4F3D1
S315020051A005249C4228BF1C46022D426938D0012D97
S315020051B01CD065BBB4B1234600E08168097F013B80
S315020051C002F8011BF9D1D0E90532017F121B04FA5C
S315020051D001F10B44C0E905324FF480328368596904
S315020051E05A61836903B14369436130BD002C3AD0E9
S315020051F06300023B5B08013300E08168898B013B57
S3150200520022F8021BF9D1057F426945B3836904FA84
S3150200521005F51B1B2A44C0E90523002CE2D0DBE777
S315020052200CB31346C969012C43F8041B11D002EBD7
S315020052308402A2EB030EAEF1040E4FEA9E0E0EF1AD
S31502005240010E4EF001E08268D26943F8042B0FF09A
S3150200525007C0057F4269012D03D0002DD6D1816892
S31502005260A9E78168C4E7AC402244C0E90523B9E74F
S3150200527030B5436A83B004460A466D468BB193E85D
S31502005280030085E803001A71A26A18461A60236AA7
S315020052909847636A1BB195E8030083E8030003B0ED
S315020052A030BD2B46EFE700BF30B5EFF30383103B6B
S315020052B0414A5BB203F5C65152F821403F4824F4F5
S315020052C0803450F8230042F8214052F82130C36856
S315020052D0002B51D0826805695469017FC4F30564C5
S315020052E0C4F12004AC4228BF2C46022924D001294D
S315020052F04BD0002937D1B4B1214600E0826813F8B9
S3150200530001CB013982F818C0F8D1D0E90332017F06
S31502005310121B04FA01F10B44C0E90332012283682D
S3150200532059695A61056935B9C56083685B69C3F312
S315020053300563102B24D830BD002C37D053F8041B3C
S31502005340012C916109D004F1FF3E4EF001E0826822
S3150200535053F8041B91610FF007C0017FC36801294E
S3150200536022D0F9B1056904FA01F12D1B1944C0E9ED
S315020053700315002CD7D0D1E70369002BD5D030BD59
S315020053800121BDE83040FFF773BF7CB1214600E042
S31502005390826833F8025B01391583F9D1017FC3684C
S315020053A00029DFD18268A7E78268EFE704FA01F1F4
S315020053B00B44C0E90335B6E700600040A8250D227C
S315020053C010B5EFF303830021114A103B5CB252F889
S315020053D0240083685A685960930111D443690BB15A
S315020053E0FFF7D8FEFFF7ACFE0A4A04F5C65352F899
S315020053F0231021F4803142F8231052F8233010BDD5
S3150200540083681A6861F359621A60FFF731FFEBE7A6
S31502005410A8250D220060004030B5836A85B0044697
S315020054208C4601ADABB193E8070085E807006268D8
S315020054301846127883F804C01A60E26A9A60636AB0
S315020054409847A36A1BB195E8070083E8070005B0F1
S3150200545030BD2B46EBE700BF2DE9F84F0B78D1F8AC
S31502005460108003F5800303F557530D4604461F02C9
S31502005470B8F1000F13D04FF00062D8F804301B6861
S315020054801A60D8F804301B689F60D8E90113D8F86F
S3150200549000001B6898470646002840F039816B6970
S315020054A083B14FF400215A68126811605A68126873
S315020054B05760D3E901121868126890470646002819
S315020054C040F0298100236560A969AC4A6162E969F5
S315020054D0C4E90A312B7803F5800303F557531B02FF
S315020054E0A360687A697B002818BF4FF44412EB7AEE
S315020054F00903AE7A41EA43012B6A31431D78DE790C
