:020000043200C8
:1080000080B582B00190019800F0BAFA02B080BD4C
:020000043200C8
:1080400080B582B00190019800F0F6F902B080BDD1
:020000043200C8
:0880800080B500F0B9F980BDE4
:020000043200C8
:1080C00080B584B003900291019203980299019ABD
:0880D00000F05AFB04B080BD72
:020000043200C8
:1081000080B586B000210191009102911220ADF856
:108110000C008DF80E1001208DF80F008DF8101056
:108120008DF811108DF81200684600F081FB06B042
:1081300080BD00000000000080B586B06020ADF872
:108140000C00002102918DF80E1001208DF80F0017
:108150008DF810108DF811108DF81200684600F09F
:1081600067FB06B080BD000080B588B0ADF81E008A
:108170000691BDF81E00ADF80C0006980290002193
:108180008DF80E1001208DF80F0004228DF81020BC
:108190008DF811108DF81200684600F049FB08B008
:1081A00080BD00000000000080B58AB009908DF805
:1081B00023108DF822200793002006900190009054
:1081C000099902916521ADF80C109DF822108DF8E7
:1081D0000E1001218DF80F109DF823208DF810202E
:1081E0008DF811108DF81200684600F021FB069002
:1081F000069838B9FFE700F0ABF8069000980799A9
:108200000870FFE706980AB080BD0000000000007B
:1082100080B58CB00A9009910892002003900290DA
:1082200004909F21ADF814108DF8160001218DF8EF
:1082300017108DF8180003218DF819108DF81A0009
:10824000FFE702A800F0F4FA0190019818B1FFE7E7
:1082500001980B900EE0FFE702980A9908700298C7
:10826000000A09990870BDF80A00089908700020F2
:108270000B90FFE70B980CB080BD000000000000E1
:1082800080B58AB08DF827000891002003900290F5
:1082900004900521ADF814109DF827108DF81610E4
:1082A00001218DF817108DF818008DF819108DF830
:1082B0001A0002A800F0BCFA0190019820B9FFE76B
:1082C000029808990870FFE701980AB080BD000085
:1082D00080B588B007908DF81B108DF81A209DF896
:1082E0001A10002001900091079902917121ADF8B8
:1082F0000C108DF80E0001208DF80F009DF81B105A
:108300008DF810108DF811008DF81200684600F0FD
:108310008FFA08B080BD000080B586B000210191C1
:10832000009102910620ADF80C008DF80E1001208E
:108330008DF80F008DF810108DF811108DF81200C7
:10834000684600F075FA06B080BD0000000000002D
:1083500080B582B0002001908DF80300FFE7002077
:108360000DF10301FFF78CFF0190019808B1FFE7C1
:108370001DE09DF80300C00718B9FFE70020019039
:1083800015E09DF803008006002804D5FFE74FF0B4
:10839000FF3001900BE09DF803004006002804D553
:1083A000FFE74FF0FF30019001E0FFE7D7E7FFF76D
:1083B000A7FE019802B080BD40F60C51C5F2400105
:1083C000087800F0BF000870087840F0800008705E
:1083D000704700000000000040F60C51C5F240015B
:1083E000087800F07F000870087840F040000870BE
:1083F000704700000000000080B584B0FFE7012056
:1084000000F01AFE0290029818B1FFE7029803905C
:108410000FE0FFE7FFE7FFF78FFE0190019818B12B
:10842000FFE70198039004E0FFE7FFF791FF039057
:10843000FFE7039804B080BD80B58AB008900020A3
:108440000790ADF81A00059004900898000F0828CE
:1084500004D8FFE74FF0FF30099071E0089800F171
:10846000E040039003990020B0EB514F0CD1FFE79F
:108470002120ADF81A00039840F6FF71884305905B
:108480004FF48050049031E00398B0F5003F11D3D1
:10849000FFE703990020B0EB914F0BD1FFE7DC2001
:1084A000ADF81A0003986FF3100005904FF40030F8
:1084B00004901AE00398B0F5802F11D3FFE70399D9
:1084C0000020B0EB916F0BD1FFE7DC20ADF81A0074
:1084D00003986FF3110005904FF48020049003E09F
:1084E0004FF0FF3009902BE0FFE7FFE7FFE70120A7
:1084F00000F0A2FD0290029818B1FFE702980990DF
:108500001EE0FFE7FFE7BDF81A000599FFF72CFE14
:108510000190019818B1FFE70198099010E0FFE77A
:10852000FFF716FF0790079818B9FFE70498009027
:1085300003E04FF0FF300090FFE700980990FFE75D
:1085400009980AB080BD000080B582B048F20811D9
:10855000C5F226010191086820F4803008604FF4CC
:108560007A7000F039FD0199086840F480300860A5
:108570004FF4FA7000F030FD02B080BD0000000042
:1085800080B584B0029000F0AFFBFFE700F024F864
:108590000190019818B1FFE70198039016E0FFE7FA
:1085A000FFE700F04DF80090009818B1FFE7009841
:1085B00003900BE0FFE700F067F820B9FFE74FF00A
:1085C000FF30039002E000200390FFE7039804B01F
:1085D00080BD00000000000080B584B00020029043
:1085E00048F26002C5F22602116821F00C01116008
:1085F000029A48F25401C5F226010A6048F20002CC
:10860000C5F22602106002980860FFE700F09CFAAD
:108610000190019818B1FFE7019803900BE0FFE784
:1086200048F26001C5F22601086840F00C000860BD
:1086300000200390FFE7039804B080BD0000000015
:1086400080B584B0FFF780FFFFE700F0D1FA029019
:10865000029818B1FFE70298039010E0FFE7FFF7D8
:1086600073FFFFE700F008FC0190019818B1FFE7E5
:108670000198039003E0FFE700200390FFE70398D1
:1086800004B080BD0000000080B582B000208DF8ED
:1086900006008DF805008DF804000DF106000DF1BF
:1086A000050101AAFFF7B4FD20B1FFE700208DF816
:1086B00007001AE09DF806100020342900900ED122
:1086C000FFE79DF8051000205A29009007D1FFE729
:1086D0009DF804001A285FEA1F900090FFE70098B9
:1086E00000F001008DF80700FFE79DF8070002B0D9
:1086F00080BD00000000000080B588B006900591A4
:1087000004929DF81000400720B1FFE74FF0FF30C2
:10871000079033E0069820F0070003900598029038
:1087200004980190FFE7012000F086FC009000987B
:1087300018B1FFE70098079020E0FFE7FFE70198F6
:10874000082810D3FFE7029908684A6803994A602D
:10875000086003980830039002980830029001984E
:1087600008380190EBE748F26401C5F226014FF4A6
:1087700080700860FFF7ECFD0790FFE7079808B0EE
:1087800080BD00000000000080B58EB00C900B9101
:108790000A9200200990402008900C9807900B98AE
:1087A00006900A9805909DF83000800620B1FFE7FA
:1087B0004FF0FF300D9037E0FFE7059838B3FFE743
:1087C0000598412803D3FFE74020029002E0059876
:1087D0000290FFE702980490FFE707980699049A31
:1087E000FFF78AFF0390039818B1FFE703980D90F5
:1087F0001AE0FFE70499079808440790049906983F
:108800000844069004990598401A0590D5E7099800
:1088100018B9FFE70A98019003E04FF0FF3001908C
:10882000FFE701980D90FFE70D980EB080BD0000A6
:1088300083B0029048F27001C5F22601086840F04A
:1088400008000860086820F001000860FFE7FFE703
:1088500048F27000C5F226000068C00708B12FF08A
:108860000BC0002001900298C07B00F0030101982A
:10887000084301900298007C00F00701019840EA4B
:10888000810001900298407C00F00F01019840EABD
:10889000411001900298807B00F01F01019840EA8E
:1088A000412001900298807C00F00101019840EA8B
:1088B000C13001900298C07B012805D1FFE70298E2
:1088C00080890006009004E00298808900040090EE
:1088D000FFE70099019808430190019848F2800150
:1088E000C5F2260108600298806848F28401C5F24A
:1088F000260108600298807C012815D1FFE70298C4
:10890000006848F28801C5F2260108600298407CA0
:10891000052808D3FFE70298406848F28C01C5F2A9
:1089200026010860FFE7FFE748F27001C5F2260163
:10893000086840F001000860FFE7FFE748F2901088
:10894000C5F226000068C00708B92FF00BC00298D6
:10895000807CD8B9FFE748F28800C5F2260000689D
:10896000029900224A6008600298407C05280CD3D6
:10897000FFE748F28C00C5F22600036802990A68F6
:10898000486818430A604860FFE7FFE748F294111F
:10899000C5F22601086840F001000860002003B01D
:1089A000704700000000000081B08DF803009DF8C2
:1089B0000300C007002861D0FFE740F62021C5F280
:1089C0004001086840F48030086040F62421C5F278
:1089D0004001086840F48030086040F65001C5F25C
:1089E0004001086840F48030086040F64001C5F25C
:1089F0004001086840F48030086040F60C21C5F260
:108A00004001086840F48030086040F64C01C5F22F
:108A10004001086840F48030086040F64401C5F227
:108A20004001086840F48030086040F64801C5F213
:108A30004001086840F48030086040F60021C5F22B
:108A40004001086840F48030086040F60821C5F213
:108A50004001086840F48030086040F61021C5F2FB
:108A60004001086840F48030086040F65801C5F2C3
:108A70004001086840F48030086060E040F6202142
:108A8000C5F24001086820F48030086040F62421D7
:108A9000C5F24001086820F48030086040F65001BB
:108AA000C5F24001086820F48030086040F64001BB
:108AB000C5F24001086820F48030086040F60C21BF
:108AC000C5F24001086820F48030086040F64C018F
:108AD000C5F24001086820F48030086040F6440187
:108AE000C5F24001086820F48030086040F6480173
:108AF000C5F24001086820F48030086040F600218B
:108B0000C5F24001086820F48030086040F6082172
:108B1000C5F24001086820F48030086040F610215A
:108B2000C5F24001086820F48030086040F6580122
:108B3000C5F24001086820F480300860FFE701B00A
:108B4000704700000000000086B00020059048F249
:108B50005402C5F22602116840F2FF3399431160B6
:108B6000049003900290049941F00C01049104993F
:108B700041F4700104914FF44071ADF806104FF4C8
:108B80009051ADF80410039941F44071039102999A
:108B900041F490510291049948F22002C5F2260254
:108BA0001160039948F22402C5F22602116002996D
:108BB00048F22802C5F2260211600090009941F0A7
:108BC00080010091009941F470610091009941F495
:108BD00080310091009948F20802C5F22602116026
:108BE000009948F20C02C5F22602116006B07047E7
:108BF00080B588B000208DF81B008DF81A008DF824
:108C00001900FFE7002000F017FA0590059818B149
:108C1000FFE70598079061E0FFE7FFE704200321E5
:108C20000022FFF755FB0490049818B1FFE7049861
:108C3000079053E0FFE7FFE7002000F0FDF9039005
:108C4000039818B1FFE70398079047E0FFE7FFE7B5
:108C5000022003210022FFF73BFB0290029818B18B
:108C6000FFE70298079039E0FFE741F68020C0F265
:108C7000060000F0B1F9FFE70420032108220DF1FE
:108C80001903FFF791FA0190019818B1FFE70198D5
:108C9000079023E0FFE79DF8190020B1FFE74FF0B0
:108CA000FF3007901AE0FFE70220032108220DF1B0
:108CB0001903FFF779FA0090009818B1FFE70098C0
:108CC00007900BE0FFE79DF8190020B1FFE74FF098
:108CD000FF30079002E000200790FFE7079808B0F8
:108CE00080BD00000000000080B584B0FFF774FB79
:108CF00000200190FFF758FE0199012203921C23E6
:108D00000293084600F090F80199029B039A40F6FE
:108D1000202CC5F2400CCCF80000084600F084F886
:108D2000029B039A40F62421C5F2400108601046D8
:108D3000114600F079F80199029B039A40F6500C15
:108D4000C5F2400CCCF80000084600F06DF801991F
:108D5000029B039A40F6400CC5F2400CCCF8000090
:108D6000084600F061F80199029B039A40F60C2C2A
:108D7000C5F2400CCCF80000084600F055F8019907
:108D8000029B039A40F64C0CC5F2400CCCF8000054
:108D9000084600F049F80199029B039A40F6440CFA
:108DA000C5F2400CCCF80000084600F03DF80199EF
:108DB000029B039A40F6480CC5F2400CCCF8000028
:108DC000084600F031F80199029B039A40F6002C06
:108DD000C5F2400CCCF80000084600F025F80199D7
:108DE000029B039A40F6082CC5F2400CCCF8000018
:108DF000084600F019F80199029B039A40F6102CDE
:108E0000C5F2400CCCF80000084600F00DF8014611
:108E1000039840F65802C5F240021160FFF7C4FD06
:108E2000FFF7CAFA04B080BD82B08DF807008DF854
:108E300006108DF805208DF80430002000909DF874
:108E400007100098084300909DF80610009840EA2B
:108E5000410000909DF80510009840EA81000090C4
:108E60009DF80410009840EA01600090009802B05C
:108E7000704700000000000080B58CB000208DF825
:108E80002B0080218DF82A108DF829008DF82800FC
:108E9000FFE7002000F0D0F80990099818B1FFE72B
:108EA00009980B9095E0FFE7FFE70320C0F28000F0
:108EB00003218022FFF70CFA0890089818B1FFE709
:108EC00008980B9085E0FFE7FFE7002000F0B4F87A
:108ED0000790079818B1FFE707980B9079E0FFE734
:108EE000FFE7022004210022FFF7F2F9069006981E
:108EF00018B1FFE706980B906BE0FFE7FFE7002053
:108F000000F09AF80590059818B1FFE705980B90C6
:108F10005FE0FFE7FFE70420C0F2800004210022A9
:108F2000FFF7D6F90490049818B1FFE704980B9066
:108F30004FE0FFE7FFE70320C0F280000421082292
:108F40000AABFFF731F90390039818B1FFE70398D4
:108F50000B903EE0FFE79DF8280000F0800080289D
:108F600004D0FFE74FF0FF300B9032E0FFE7022024
:108F7000042108220AABFFF717F90290029818B1F2
:108F8000FFE702980B9024E0FFE79DF8280020B14E
:108F9000FFE74FF0FF300B901BE0FFE70420C0F22B
:108FA0008000042108220AABFFF7FEF80190019827
:108FB00018B1FFE701980B900BE0FFE79DF8280040
:108FC00020B1FFE74FF0FF300B9002E000200B9044
:108FD000FFE70B980CB080BD83B002900520009095
:108FE000009818B9FFE701200090FFE702984FF4BE
:108FF0007A7148430099B0FBF1F0019001984AF66C
:10900000AB21CAF6AA21A0FB0110800801900198AB
:1090100018B9FFE701200190FFE7FFE7019830B1A1
:10902000FFE700BFFFE7019801380190F6E703B0C2
:10903000704700000000000080B586B08DF8130076
:10904000FFE7FFF769F90390039818B1FFE703986A
:10905000059025E0FFE79DF81300C007E8B1FFE7A2
:1090600000208DF80B00FFE700200DF10B01FFF74A
:1090700007F90190019818B1FFE7019805900FE0FA
:10908000FFE79DF80B0000F00200022804D0FFE784
:109090004FF0FF30059003E0FFE700200590FFE769
:0890A000059806B080BD000038
:0400000500000000F7
:00000001FF
