:020000043200C8
:1080000080B582B00190019800F032FA02B080BDD4
:020000043200C8
:1080400080B582B00190019800F0BEF902B080BD09
:020000043200C8
:0880800080B500F089F980BD14
:020000043200C8
:1080C00080B584B003900291019203980299019ABD
:0880D00000F08AFA04B080BD43
:020000043200C8
:1081000080B588B00790DC20ADF80C00079802908D
:1081100000218DF80E1001208DF80F0004228DF83B
:1081200010208DF811108DF81200684600F0B0FA9A
:1081300008B080BD0000000080B586B06020ADF8BA
:108140000C00002102918DF80E1001208DF80F0017
:108150008DF810108DF811108DF81200684600F09F
:1081600097FA06B080BD000080B588B007900691F0
:10817000002001900090079902917121ADF80C1038
:108180008DF80E0001218DF80F1004228DF81020BB
:108190008DF811108DF81200684600F079FA0098F9
:1081A0000699087008B080BD80B58AB00990089122
:1081B000079200200190009002909F21ADF80C10D2
:1081C0008DF80E0001218DF80F108DF8100003219D
:1081D0008DF811108DF81200684600F059FA0098D9
:1081E000099908700098000A08990870BDF8020003
:1081F000079908700AB080BD80B588B0079000204C
:108200000190009002902B21ADF80C108DF80E001B
:1082100001218DF80F108DF810008DF811108DF8D8
:108220001200684600F034FA00980799087008B008
:1082300080BD00000000000080B588B007900020DD
:108240000190009002900521ADF80C108DF80E0001
:1082500001218DF80F108DF810008DF811108DF898
:108260001200684600F014FA00980799087008B0E8
:1082700080BD00000000000080B588B007908DF838
:108280001B109DF81B10002001900091079902918E
:108290007221ADF80C108DF80E0001208DF80F0042
:1082A00004218DF810108DF811008DF81200684629
:1082B00000F0EEF908B080BD80B586B000210191D4
:1082C000009102910620ADF80C008DF80E100120EF
:1082D0008DF80F008DF810108DF811108DF8120028
:1082E000684600F0D5F906B080BD0000000000002F
:1082F00080B584B08DF80F00002002908DF8070043
:10830000FFE70DF10700FFF797FF9DF80700C00793
:1083100018B9FFE70020029018E00DF10700FFF701
:108320006BFF9DF807009DF80F10084088425FEA38
:108330001F908DF806009DF80600C00720B1FFE7EA
:108340004FF0FF30029001E0FFE7DAE7029804B057
:1083500080BD00000000000040F60C51C5F2400155
:10836000087800F0BF000870087840F080000870BE
:10837000704700000000000040F60C51C5F24001BB
:10838000087800F07F000870087840F0400008701E
:10839000704700000000000080B582B0FFE70120B8
:1083A00000F076FC0090009818B1FFE7009801906B
:1083B00007E0FFE7FFF7C0FE4020FFF799FF0190BD
:1083C000FFE7019802B080BD80B586B00490002020
:1083D00003900498B0F1104F05D3FFE70498B0F173
:1083E000144F04D3FFE74FF0FF3005901FE00498CF
:1083F00000F1E0400290FFE7012000F049FC01900D
:10840000019818B1FFE70198059010E0FFE7029886
:10841000FFF776FE4020FFF76BFF039003994FF0C4
:10842000FF30002908BF4FF480300590FFE7059822
:1084300006B080BD0000000080B582B048F208118F
:10844000C5F226010191086820F4803008604FF4DD
:10845000FA7000F0EDFB0199086840F48030086084
:10846000642000F0E5FB02B080BD000000000000C9
:1084700080B584B0029000F013FB00F01DF8FFF708
:10848000DBFFFFE700F08CFA0190019818B1FFE7DD
:10849000019803900BE0FFE700F032F820B9FFE706
:1084A0004FF0FF30039002E000200390FFE70398B5
:1084B00004B080BD0000000080B582B000200190B3
:1084C00048F26002C5F226020092116821F00C0108
:1084D0001160019A48F25401C5F226010A6048F27F
:1084E0000002C5F2260210600198086000F084FACC
:1084F0000099086840F00C00086002B080BD0000E0
:1085000080B584B0002001908DF80F008DF80E002A
:108510008DF80D000DF10F000DF10E010DF10D02A2
:10852000FFF742FE01989DF80F10C22902900ED16C
:10853000FFE79DF80E1000208629029007D1FFE783
:108540009DF80D003A285FEA1F900290FFE702981D
:1085500000F0010004B080BD80B588B006900591A0
:1085600004929DF81000400720B1FFE74FF0FF3064
:10857000079034E0069820F00700039005980290D9
:1085800004980190FFE7012000F082FB0090009822
:1085900018B1FFE70098079021E0FFE7FFE7019897
:1085A000082810D3FFE7029908684A6803994A60CF
:1085B00008600398083003900298083002900198F0
:1085C00008380190EBE748F26401C5F226014FF448
:1085D000807008602020FFF78BFE0790FFE7079868
:1085E00008B080BD0000000080B58EB00C900B91EB
:1085F0000A9200200990402008900C9807900B9850
:1086000006900A9805909DF83000800620B1FFE79B
:108610004FF0FF300D9037E0FFE7059838B3FFE7E4
:108620000598412803D3FFE74020029002E0059817
:108630000290FFE702980490FFE707980699049AD2
:10864000FFF78AFF0390039818B1FFE703980D9096
:108650001AE0FFE7049907980844079004990698E0
:108660000844069004990598401A0590D5E70998A2
:1086700018B9FFE70A98019003E04FF0FF3001902E
:10868000FFE701980D90FFE70D980EB080BD000048
:1086900083B0029048F27001C5F22601086840F0EC
:1086A00008000860086820F001000860FFE7FFE7A5
:1086B00048F27000C5F226000068C00708B12FF02C
:1086C0000BC0002001900298C07B00F003010198CC
:1086D000084301900298007C00F00701019840EAED
:1086E000810001900298407C00F00F01019840EA5F
:1086F000411001900298807B00F01F01019840EA30
:10870000412001900298807C00F00101019840EA2C
:10871000C13001900298C07B012805D1FFE7029883
:1087200080890006009004E002988089000400908F
:10873000FFE70099019808430190019848F28001F1
:10874000C5F2260108600298806848F28401C5F2EB
:10875000260108600298807C012815D1FFE7029865
:10876000006848F28801C5F2260108600298407C42
:10877000052808D3FFE70298406848F28C01C5F24B
:1087800026010860FFE7FFE748F27001C5F2260105
:10879000086840F001000860FFE7FFE748F290102A
:1087A000C5F226000068C00708B92FF00BC0029878
:1087B000807CD8B9FFE748F28800C5F2260000683F
:1087C000029900224A6008600298407C05280CD378
:1087D000FFE748F28C00C5F22600036802990A6898
:1087E000486818430A604860FFE7FFE748F29411C1
:1087F000C5F22601086840F00100086003B0704728
:1088000081B08DF803009DF80300C007002861D0F7
:10881000FFE740F62021C5F24001086840F48030AF
:10882000086040F62421C5F24001086840F4803019
:10883000086040F65001C5F24001086840F48030FD
:10884000086040F64001C5F24001086840F48030FD
:10885000086040F60C21C5F24001086840F4803001
:10886000086040F64C01C5F24001086840F48030D1
:10887000086040F64401C5F24001086840F48030C9
:10888000086040F64801C5F24001086840F48030B5
:10889000086040F60021C5F24001086840F48030CD
:1088A000086040F60821C5F24001086840F48030B5
:1088B000086040F61021C5F24001086840F480309D
:1088C000086040F65801C5F24001086840F4803065
:1088D000086060E040F62021C5F24001086820F4FD
:1088E0008030086040F62421C5F24001086820F479
:1088F0008030086040F65001C5F24001086820F45D
:108900008030086040F64001C5F24001086820F45C
:108910008030086040F60C21C5F24001086820F460
:108920008030086040F64C01C5F24001086820F430
:108930008030086040F64401C5F24001086820F428
:108940008030086040F64801C5F24001086820F414
:108950008030086040F60021C5F24001086820F42C
:108960008030086040F60821C5F24001086820F414
:108970008030086040F61021C5F24001086820F4FC
:108980008030086040F65801C5F24001086820F4C4
:1089900080300860FFE701B0704700000000000071
:1089A00080B584B0FFE7002000F072F902900298D1
:1089B00018B1FFE70298039018E0FFE7002100914B
:1089C0000846FFF759FC00988DF807000DF10701E4
:1089D000FFF7CAFB9DF80700800720B1FFE74FF0C3
:1089E000FF30039002E000200390FFE7039804B0FB
:1089F00080BD00000000000086B00020059048F215
:108A00005402C5F22602116840F2FF339943116007
:108A1000049003900290049941F00C010491049990
:108A200041F4700104914FF49851ADF806104FF4E1
:108A30009051ADF80410039941F4985103910299B3
:108A400041F490510291049948F22002C5F22602A5
:108A50001160039948F22402C5F2260211600299BE
:108A600048F22802C5F2260211600090009840F0FA
:108A700080000090009840F470600090009840F4EE
:108A800080300090009848F20801C5F22601086085
:108A9000009848F20C01C5F22601086006B0704744
:108AA00080B584B0FFF768FC00200190FFF7A8FEB6
:108AB0000199012203921C230293084600F090F8CA
:108AC0000199029B039A40F6202CC5F2400CCCF889
:108AD0000000084600F084F8029B039A40F6242127
:108AE000C5F2400108601046114600F079F801997E
:108AF000029B039A40F6500CC5F2400CCCF80000E3
:108B0000084600F06DF80199029B039A40F6400C6C
:108B1000C5F2400CCCF80000084600F061F801995D
:108B2000029B039A40F60C2CC5F2400CCCF80000D6
:108B3000084600F055F80199029B039A40F64C0C48
:108B4000C5F2400CCCF80000084600F049F8019945
:108B5000029B039A40F6440CC5F2400CCCF800008E
:108B6000084600F03DF80199029B039A40F6480C34
:108B7000C5F2400CCCF80000084600F031F801992D
:108B8000029B039A40F6002CC5F2400CCCF8000082
:108B9000084600F025F80199029B039A40F6082C3C
:108BA000C5F2400CCCF80000084600F019F8019915
:108BB000029B039A40F6102CC5F2400CCCF8000042
:108BC000084600F00DF80146039840F65802C5F239
:108BD00040021160FFF714FEFFF7BEFB04B080BD3A
:108BE00082B08DF807008DF806108DF805208DF8FD
:108BF0000430002000909DF8071000980843009072
:108C00009DF80610009840EA410000909DF805107C
:108C1000009840EA810000909DF80410009840EA16
:108C200001600090009802B0704700000000000052
:108C300083B0029005200090009818B9FFE701204A
:108C40000090FFE702984FF47A7148430099B0FB17
:108C5000F1F0019001984AF6AB21CAF6AA21A0FBD7
:108C6000011080080190019818B9FFE701200190D8
:108C7000FFE7FFE7019830B1FFE700BFFFE701988A
:108C800001380190F6E703B07047000000000000D3
:108C900080B582B08DF80300FFF70EFB9DF803004E
:108CA000C00798B1FFE700208DF802000DF1020027
:108CB000FFF7C2FA9DF8020000F00200022804D07B
:108CC000FFE74FF0FF30019003E0FFE70020019045
:088CD000FFE7019802B080BD2E
:0400000500000000F7
:00000001FF
